:1000000045C100005FC100005DC100005BC1000090
:1000100059C1000057C1000055C1000053C1000084
:1000200051C100002DC600004DC100004BC10000B1
:1000300049C1000047C1000045C1000043C10000A4
:1000400041C100003FC100003DC100003BC10000B4
:1000500039C1000037C1000035C1000077C600007B
:1000600031C100002FC100002DC100002BC10000D4
:1000700029C1000027C1000025C1000023C10000E4
:1000800021C100001FC100001DC100001BC10000F4
:1000900019C1000017C1000015C1000013C1000004
:1000A00011C100000FC100000DC1000000000000E0
:1000B0000000005F00000007000700147F147F1499
:1000C000242A7F2A122313086462364955225000DD
:1000D00005030000001C2241000041221C001408FE
:1000E0003E081408083E08080050300000080808C0
:1000F0000808006060000020100804023E514945D5
:100100003E00427F400042615149462141454B310A
:100110001814127F1027454545393C4A494930019A
:10012000710905033649494936064949291E0036F1
:100130003600000056360000081422410014141442
:100140001414004122140802015109063249794170
:100150003E7E1111117E7F494949363E414141227F
:100160007F4141221C7F494949417F090909013EDC
:100170004149497A7F0808087F00417F41002040BB
:10018000413F017F081422417F404040407F020CE4
:10019000027F7F0408107F3E4141413E7F090909EB
:1001A000063E4151215E7F09192946464949493198
:1001B00001017F01013F4040403F1F2040201F3F81
:1001C0004038403F63140814630708700807615102
:1001D000494543007F41410002040810200041418D
:1001E0007F0004020102044040404040000102043C
:1001F0000020545454787F484444383844444420C0
:10020000384444487F3854545418087E0901020C7D
:100210005252523E7F0804047800447D4000204042
:10022000443D007F1028440000417F40007C0418BA
:1002300004787C0804047838444444387C1414144A
:1002400008081414187C7C080404084854545420EA
:10025000043F4440203C4040207C1C2040201C3C6B
:100260004030403C44281028440C5050503C4464DA
:10027000544C44000836410000007F000000413625
:1002800008001008081008784641467811241FBE5F
:10029000CFEFDAE0DEBFCDBF11E0A0E0B1E0EAEBE6
:1002A000FBE102C005900D92A036B107D9F713E02B
:1002B000A0E6B1E001C01D92A037B107E1F7BCD5BF
:1002C0000C94DB0D9DCECF92DF92EF92FF920F93B5
:1002D0001F936B017C0120E030E040E05FE4CAD175
:1002E00087FD0CC020E030E040E05FE4C701B601CC
:1002F00087D644D28B019C01305805C0C701B60196
:100300003DD28B019C01B801C9011F910F91FF9053
:10031000EF90DF90CF900895A0E2B0E0E2E9F1E045
:100320000C94F30C6D8F7E8F8F8F98A3298F3A8F4B
:100330004B8F5C8FBE016F5E7F4FCE014D9636D3E3
:10034000BE01675F7F4FCE01499630D399899230C5
:1003500008F412C08985823008F41AC0943021F460
:10036000823009F4B4C008C0843021F4923009F41A
:10037000AEC00EC0923051F481E02A899A852913CB
:1003800001C080E08A8BCE014196A3C0823051F437
:1003900081E02A899A85291301C080E08A87CE01ED
:1003A000099697C08D889E88AF88B88C0D851E856C
:1003B0002F853889E0E2F0E080E090E0DC01C12C9C
:1003C000D12C760140E050E0BA0180FE18C0400F09
:1003D000511F621F731F8C0D9D1DAE1DBF1D412C33
:1003E000512C32014394401751076207730718F0EC
:1003F000412C512C3201840D951DA61DB71DCC0C2E
:10040000DD1CEE1CFF1C37FF02C06894C0F8000F13
:10041000111F221F331FB694A79497948794319786
:10042000A1F62B893C89EB85FC852E0F3F1F2E5FA3
:100430003F4F3C832B8321E0EA893A85E31301C0D7
:1004400020E02A83EB81FC810CC080FF05C07695FB
:100450006795579547957068B695A7959795879531
:100460003196B7FDF2CF9F010CC0880F991FAA1FCC
:10047000BB1F77FD8160440F551F661F771F2150FA
:1004800031090097A105E0E4BE0778F32B833C8394
:100490008C019D010F771127222733270034110586
:1004A0002105310559F487FD09C0452B462B472B03
:1004B00029F0805C9F4FAF4FBF4F80788D839E8324
:1004C000AF83B88783E08983CE01019602C086E1BD
:1004D00091E0A2D1A096E0E10C940F0DA8E1B0E06C
:1004E000E4E7F2E00C94FB0C6D8B7E8B8F8B988F86
:1004F000298B3A8B4B8B5C8BBE01675F7F4FCE01A4
:10050000459654D2BE016F5F7F4FCE0141964ED2C9
:100510009985923008F475C08981823008F474C0DE
:100520002A853A8123272A87943011F0923019F4D2
:10053000981367C06CC0843039F41D861E861F86F0
:10054000188A1C861B8604C0823029F484E08987BF
:10055000CE0109965EC08B859C852B813C81821BD8
:10056000930B9C878B874D855E856F857889CD80C1
:10057000DE80EF80F8844C155D056E057F0538F44C
:10058000440F551F661F771F01979C878B87EFE1EC
:10059000F0E000E010E020E030E480E090E0DC01FA
:1005A0004C155D056E057F0540F0802B912BA22B2D
:1005B000B32B4C195D096E097F0936952795179560
:1005C0000795440F551F661F771F319749F78C0118
:1005D0009D010F77112722273327003411052105AC
:1005E000310559F487FD09C0452B462B472B29F0CF
:1005F000805C9F4FAF4FBF4F80788D879E87AF87BE
:10060000B88BCE01099605C0CE01019602C086E1E5
:1006100091E002D16896E8E00C94170DA8E1B0E0F3
:10062000E4E1F3E00C94010D6D8B7E8B8F8B988F42
:10063000298B3A8B4B8B5C8BBE01675F7F4FCE0162
:100640004596B4D1BE016F5F7F4FCE014196AED1CA
:100650008985823050F08981823038F0BE016F5F29
:100660007F4FCE01099611D201C08FEF6896E2E06C
:100670000C941D0DA8E1B0E0E0E4F3E00C94010D52
:100680006D8B7E8B8F8B988F298B3A8B4B8B5C8BF2
:10069000BE01675F7F4FCE01459688D1BE016F5F77
:1006A0007F4FCE01419682D18985823050F0898179
:1006B000823038F0BE016F5F7F4FCE010996E5D1E1
:1006C00001C08FEF6896E2E00C941D0DA8E1B0E048
:1006D000ECE6F3E00C94010D6D8B7E8B8F8B988F85
:1006E000298B3A8B4B8B5C8BBE01675F7F4FCE01B2
:1006F00045965CD1BE016F5F7F4FCE01419656D1CA
:100700008985823050F08981823038F0BE016F5F78
:100710007F4FCE010996B9D101C081E06896E2E031
:100720000C941D0DA8E1B0E0E8E9F3E00C94010D94
:100730006D8B7E8B8F8B988F298B3A8B4B8B5C8B41
:10074000BE01675F7F4FCE01459630D1BE016F5F1E
:100750007F4FCE0141962AD18985823050F0898120
:10076000823038F0BE016F5F7F4FCE0109968DD188
:1007700001C081E06896E2E00C941D0DACE0B0E0B1
:10078000E4ECF3E00C94FF0C69877A878B879C87F5
:10079000BE016F5F7F4FCE01099608D189818230FB
:1007A00091F1823080F1843041F48A81882331F1E3
:1007B00000E010E020E030E829C02B813C8137FDCB
:1007C00022C02F3131058CF78EE190E0821B930B14
:1007D0000D811E812F81388504C036952795179588
:1007E00007958A95D2F78A81882381F030952095E4
:1007F000109501951F4F2F4F3F4F08C00FEF1FEF70
:100800002FEF3FE703C000E010E09801B801C901F5
:100810002C96E4E00C941B0D0F931F93CF93DF9362
:10082000DC0114964D915D916D917C911797119615
:10083000EC9111978C91823020F460618FEF90E001
:10084000A6C0843009F49EC0823009F495C04115D9
:1008500051056105710509F492C012962D913C91E4
:10086000139722388FEF38070CF058C0C2E8DFEF3B
:10087000C21BD30BCA31D1056CF58A019B010C2E2A
:1008800004C036952795179507950A94D2F781E00D
:1008900090E0A0E0B0E00C2E04C0880F991FAA1FC2
:1008A000BB1F0A94D2F70197A109B10984239523AC
:1008B000A623B72341E050E060E070E0892B8A2B4B
:1008C0008B2B19F440E050E0BA01402B512B622BE6
:1008D000732B03C040E050E0BA01DB01CA018F77FF
:1008E0009927AA27BB2780349105A105B10539F4C2
:1008F00047FF09C0405C5F4F6F4F7F4F04C0415CB2
:100900005F4F6F4F7F4F81E090E0411551056105CA
:1009100020E4720748F580E090E026C020383105D9
:100920008CF5DB01CA018F779927AA27BB27803472
:100930009105A105B10539F447FF09C0405C5F4F3F
:100940006F4F7F4F04C0415C5F4F6F4F7F4F77FD0C
:1009500004C0C90181589F4F07C076956795579588
:100960004795C90180589F4F97E0769567955795B1
:1009700047959A95D1F70BC080E090E005C080E0E4
:1009800090E005C08FEF90E040E050E0BA01982F72
:100990009695E0FB97F9362F80FB37F9642F752F7A
:1009A000832FDF91CF911F910F910895CF92DF9206
:1009B000EF92DC01FB01CC901196DC90119712961E
:1009C0008C9112973FE7E32EE8226E2DA60170E08E
:1009D000982F991F9927991F13962C91822F880F72
:1009E000892B90E027FB222720F92183009729F506
:1009F000411551056105710511F482E027C082E8B7
:100A00009FEF9383828327E0440F551F661F771F54
:100A10002A95D1F783E0808309C0440F551F661FD4
:100A2000771F8281938101979383828341155105BA
:100A3000610580E4780788F320C08F3F910579F441
:100A4000411551056105710519F484E0808319C0D1
:100A5000E4FE03C081E0808310C010820EC08F5777
:100A600091099383828383E0808387E0440F551F3D
:100A7000661F771F8A95D1F7706444835583668318
:100A80007783EF90DF90CF900895CF93FC01DB0147
:100A90009081923008F452C08C91823008F44EC09C
:100AA000943071F4843039F411962C9130E08181C6
:100AB000281B310948C08181882309F43FC03BC00D
:100AC000843029F411968C91811138C034C0923051
:100AD00019F48230B9F735C0823069F3C1811196BB
:100AE0008C911197C8131DC02281338112968D916C
:100AF0009C911397821793070CF413C0281739079A
:100B00000CF417C0448155816681778114968D91CC
:100B10009D910D90BC91A02D84179507A607B7074E
:100B200018F4C11108C00AC0481759076A077B07A3
:100B300040F4C11103C02FEF3FEF05C021E030E0CA
:100B400002C020E030E0C901CF910895CF93C3E304
:100B50005BD346E162E08EE191E0D5D546E16BE4FE
:100B60008C2F7DD540D32FEF83ED90E32150804033
:100B70009040E1F700C00000C150C03349F7CF9169
:100B800008951092710110927001109273011092E9
:100B90007201199B11C02FEF80E792E02150804035
:100BA0009040E1F700C00000199B06C081E090E092
:100BB0009093710180937001189B11C02FEF80E713
:100BC00092E0215080409040E1F700C00000189B67
:100BD00006C081E090E090937301809372010895C4
:100BE0005E9A84B18C6084B980E090E001C0019687
:100BF0002091700130917101232B19F078D71BB827
:100C000008952091720130917301232B81F3F6CF67
:100C1000EBE6F0E080818160808380818260808368
:100C2000E8E6F0E0808181608083E9E6F0E08081A1
:100C3000816080837894089584B18C6084B9569AD9
:100C40008BB18BB9289AE1E6F0E080E880831082CE
:100C50008FE38BD5D9D2DCDFD7D240E064E08EE2DF
:100C600091E051D549E062E08EE391E04CD54CE152
:100C700066E18FE491E047D5B6D2B2DF82DF66CF7E
:100C80001F920F920FB60F9211248F939F93109281
:100C90007101109270011092730110927201199BF0
:100CA00006C081E090E09093710180937001189BE1
:100CB00006C081E090E090937301809372019F9150
:100CC0008F910F900FBE0F901F9018958091040187
:100CD00090910501892B51F481E090E0909363019C
:100CE000809362011092030110920201809104012D
:100CF000909105018130910541F490930301809317
:100D0000020110926301109262018091040190919E
:100D10000501029751F48FEF9FEF90936301809349
:100D200062011092030110920201809104019091DE
:100D30000501039751F48FEF9FEF90930301809388
:100D40000201109263011092620108951F920F92A6
:100D50000FB60F9211242F933F934F935F936F938E
:100D60007F938F939F93AF93BF93EF93FF93A89A33
:100D7000809166019091670101969093670180933D
:100D80006601809166019091670144975CF08091C3
:100D9000640190916501892B29F0109267011092EE
:100DA000660194DFFF91EF91BF91AF919F918F9179
:100DB0007F916F915F914F913F912F910F900FBE57
:100DC0000F901F9018950F931F93CF93DF93CEE052
:100DD000D1E028E0488168E080E041D20AE011E0FB
:100DE000F801208140E068E080E039D28881F80194
:100DF0002081482F68E033D2F8016081262F488196
:100E000080E02DD240E060E088E591E07CD48091E4
:100E1000000140E06BE0805D22D440E065E18CE5BC
:100E200091E071D48091600140E06FE1805DDF91DD
:100E3000CF911F910F9113C4CF93DF93CDB7DEB73E
:100E4000E0970FB6F894DEBF0FBECDBFF5DE90EA97
:100E50009EA780EE8FA798AB8BA790E49CA78DA749
:100E6000CE01469690937501809374018091100194
:100E700090911101BC01635071097093110160934D
:100E8000100140910C0150910D01435051095093B4
:100E90000D0140930C0177FF03C0BC016250710942
:100EA00075956795162F135057FF02C04F5F5F4F20
:100EB0004A01959487945E0126E1A20EB11C2EE2B0
:100EC000E22EF12CEC0EFD1E03E023E0482D612FF5
:100ED000C5017CD48091740190917501A7D4CC2474
:100EE000C394D12CCC0EDD1ED0927701C092760136
:100EF000612F6A5F4BE2E42EF12CEC0EFD1E23E025
:100F0000482DC60163D480917601909177018ED4EB
:100F10006AD169D18FEF91EEE4E081509040E040DA
:100F2000E1F700C0000081E090E0909365018093BC
:100F30006401EE24E394F12C01E010E065D180918E
:100F4000700190917101892B11F401E010E0809102
:100F5000720190917301892B19F4EE24E394F12C22
:100F60008091700190917101892BF9F001151105A3
:100F7000E1F000917401109175016091020170918E
:100F80000301882777FD8095982FA1D09B01AC01A4
:100F9000F801608171818281938133D0F80160838F
:100FA00071838283938300E010E0809172019091BD
:100FB00073018E219F21892BE1F0E0907401F09064
:100FC00075016091020170910301882777FD80957A
:100FD000982F7DD09B01AC01F701608171818281E6
:100FE00093810ED0F7016083718382839383E12C18
:100FF000F12CC5011BD4C60119D4E5DEF4D09ECF77
:101000005058BB27AA270ED0B4C0A5D030F0AAD024
:1010100020F031F49F3F11F41EF49AC00EF4E095D5
:10102000E7FB90C0E92FB6D080F3BA1762077307C9
:101030008407950718F071F49EF5CEC00EF4E09584
:101040000B2EBA2FA02D0B01B90190010C01CA0182
:10105000A0011124FF27591B99F0593F50F4503E2D
:1010600068F11A16F040A22F232F342F4427585F1F
:10107000F3CF469537952795A795F0405395C9F737
:101080007EF41F16BA0B620B730B840BBAF09150EF
:10109000A1F0FF0FBB1F661F771F881FC2F70EC08E
:1010A000BA0F621F731F841F48F487957795679561
:1010B000B795F7959E3F08F0B3CF9395880F08F04A
:1010C0009927EE0F979587950895E89409C097FBA7
:1010D0003EF490958095709561957F4F8F4F9F4F0F
:1010E0009923A9F0F92F96E9BB279395F695879553
:1010F00077956795B795F111F8CFFAF4BB0F11F416
:1011000060FF1BC06F5F7F4F8F4F9F4F16C08823BC
:1011100011F096E911C0772321F09EE8872F762FF2
:1011200005C0662371F096E8862F70E060E02AF033
:101130009A95660F771F881FDAF7880F969587951F
:1011400097F9089597F99F6780E870E060E0089547
:101150009FEF80EC089500240A94161617061806CF
:101160000906089500240A941216130614060506AB
:101170000895092E0394000C11F4882352F0BB0F3C
:1011800040F4BF2B11F460FF04C06F5F7F4F8F4F9F
:101190009F4F089557FD9058440F551F59F05F3FDA
:1011A00071F04795880F97FB991F61F09F3F79F089
:1011B00087950895121613061406551FF2CF46950B
:1011C000F1DF08C0161617061806991FF1CF86958D
:1011D0007105610508940895E894BB276627772771
:1011E000CB0197F90895CF93DF9360E080E0E4D2DC
:1011F000C8E7D1E0699181E09AD283E0C037D8078F
:10120000C9F7DF91CF910895E8E7F1E0119283E00B
:10121000E037F807D9F70895843500F56033F0F426
:10122000E62FE695E695E695677094E5E99FF0016F
:10123000112490E0E80FF91FE858FE4F81E090E09C
:10124000062E01C0880F0A94EAF7442319F0908112
:10125000982B03C0809590819823908308952F92B6
:101260003F924F925F926F927F928F929F92AF9236
:10127000BF92CF92DF92EF92FF920F931F93CF9383
:10128000DF93CDB7DEB762970FB6F894DEBF0FBE1F
:10129000CDBFA82E962E842EB22E841309C005C071
:1012A00041E0692D8A2DB8DF9394B914C8F7BEC107
:1012B000621309C005C041E0692D8A2DADDFA394FA
:1012C0008A14C8F7B3C1622F70E080E090E0FDDEC1
:1012D0006B017C01692D70E080E090E0F8DE9B01FD
:1012E000AC01C701B6018CDE1B012C01682D70E03A
:1012F00080E090E0EADE6B017C016A2D70E080E026
:1013000090E0E5DE9B01AC01C701B60179DE3B014F
:101310008C01762F272F372D402F512F622D732DC3
:10132000842D952DDBD86B017C0120E030E040E876
:101330005FE37D2D9F2DA81490F570D918160CF43D
:101340004BC120E030E040E85FE36C2D7D2D8E2D19
:101350009F2DE8D918165CF020E030E0A9016C2D33
:101360007D2D8E2D9F2D5AD918160CF417C120E013
:1013700030E0A9016C2D7D2D8E2D9F2DD3D918160F
:101380000CF42DC120E030E040E85FEB6C2D7D2DAA
:101390008E2D9F2D43D918160CF403C120C13ED9C0
:1013A00018160CF421C120E030E040E85FE36C2D1A
:1013B0007D2D8E2D9F2DB6D918165CF020E030E0E3
:1013C000A9016C2D7D2D8E2D9F2D28D918160CF47A
:1013D000EDC020E030E0A9016C2D7D2D8E2D9F2DDC
:1013E000A1D918160CF405C120E030E040E85FEB0D
:1013F0006C2D7D2D8E2D9F2D11D918160CF4DBC070
:10140000A2E0B0E0F3C08D819E810397049720F0A5
:10141000AA24A394B12C03C0AA24AA94BA2C26010E
:10142000370177FA709477F8709420E030E0A901E2
:10143000C701B6011FD987FD05C0CF82D886E986CE
:10144000FA8604C04F82588669867A86E981FA81D5
:10145000FA8BE98B912C812C712C612CC501AA2768
:1014600097FDA095BA2F8D879E87AF87B88B83C0D5
:10147000AB81BC8141E0AB2B19F0602F898902C0A0
:101480006989802FC9DE7F81688599858A85272FA4
:10149000362F492F582FD401F3016B2F782D8F2F22
:1014A000962DAFDD6B877C872C01962E872E782EAC
:1014B000652C20E030E040E05FE3D401F3016B2FC6
:1014C0007A2F8F2F9E2FAAD818160CF044C06D8546
:1014D0007E858F859889FBDD9B01AC01C701B60134
:1014E0000E948C013B014C01E1E0F0E0FE83ED83C2
:1014F00020E030E0A901772D992D90D8181614F02E
:101500001E821D82AA24A394B12C20E030E0A90100
:10151000662D772D882D992DD9D887FD02C0A12C55
:10152000B12C8D819E818A199B09019719F40F5F57
:101530001F4F02C00150110920E030E040E85FE396
:10154000BB85AC856B2F7A2F842D952D59DD962E7A
:10155000872E782E692E89819A818215930530F421
:10156000A989BA891196BA8BA98B05C0E989FA892C
:101570003197FA8BE98B89819A818215930538F42A
:10158000A989BA892A163B0608F072CF4FC0E989AB
:10159000FA89E215F30508F06BCF48C01E821D8260
:1015A0000EC087E090E09E838D8309C0A4E0B0E088
:1015B000BE83AD8304C0E3E0F0E0FE83ED83092D3C
:1015C00010E08A2D90E09A838983282C312CA1E0A9
:1015D000B0E0BC83AB8317CFE1E0F0E00CC086E065
:1015E00090E09E838D8309C0A5E0B0E0BE83AD830B
:1015F00004C0E2E0F0E0FE83ED83222D332D442D84
:10160000552D662D772D802F912F0E946E02C62EAC
:10161000D72EE82EF92E0A2D10E0892D90E09A831E
:1016200089832B2C312C1C821B82EDCE62960FB647
:10163000F894DEBF0FBECDBFDF91CF911F910F9108
:10164000FF90EF90DF90CF90BF90AF909F908F90E2
:101650007F906F905F904F903F902F9008957F9272
:101660008F929F92AF92BF92CF92DF92EF92FF92B2
:101670000F931F93CF93DF93862E742E00E010E01C
:1016800090E0809725E0289F6001299FD00C1124CD
:10169000AA24A394B12C1CC0A5010C2E02C0440F97
:1016A000551F0A94E2F74E215F210C2E02C055957A
:1016B00047950A94E2F76C2F670D892DADDD2196D1
:1016C000C830D10549F70F5F1F4F0530110569F08C
:1016D000C0E0D0E0F801EC0DFD1DE455FF4FE491B2
:1016E000EE2EF12C982C900ED7CFDF91CF911F9139
:1016F0000F91FF90EF90DF90CF90BF90AF909F90B1
:101700008F907F9008950F931F93CF93DF93162FA1
:10171000042FEC0104C0402F612FA1DF1B5F8991D2
:101720008111F9CFDF91CF911F910F91089525B1CC
:1017300030E2839FC00111242F7D282B25B95F98AB
:1017400087E090E070E08F989B01082E02C03595ED
:1017500027950A94E2F720FF02C02E9A01C02E9826
:101760008F9A019780F75F9A0895CF93C82F579A61
:10177000249A259A269A879A2C985F9A2C9A61E245
:1017800080E0D5DF6C2F606880E0D1DF64E080E02E
:10179000CEDF63E180E0CBDF6CE080E0C8DF60E2B9
:1017A00080E0C5DF6CE080E0C2DF60E480E0BFDFA6
:1017B00060E880E0CF91BBCFCF93C82F606480E01A
:1017C000B6DF6C2F606880E0CF91B1CFCF92DF920F
:1017D000EF92FF920F93CF93DF9300D0CDB7DEB798
:1017E0006C0170E080E090E02A8349836EDCF601B2
:1017F00060837183828393834981642F70E080E0EA
:1018000090E063DCF60164837583868397832A8185
:1018100020870187F486E3860F900F90DF91CF91A8
:101820000F91FF90EF90DF90CF9008952F923F920D
:101830004F925F926F927F928F929F92AF92BF92E0
:10184000CF92DF92EF92FF920F931F93CF93DF938C
:1018500000D000D0CDB7DEB79C838B83DC011A9615
:101860008C9181119BC0A6C0B601882777FD809519
:10187000982F2DDCEB81FC812481358146815781B5
:10188000C0DB962E872E782E692E20E030E0A9014D
:10189000D401F3016B2F7A2F8F2F9E2F0E946603A6
:1018A00087FD78C020E030E040E452E4D401F30149
:1018B0006B2F7A2F8F2F9E2F0E943A0387FF7AC0BB
:1018C00020E8A22EB12CE12CF12C56C0AB81BC81BA
:1018D0001B96ED91FC911C97E00FF11FB081B9832D
:1018E000B701882777FD8095982FF1DBEB81FC818C
:1018F000208131814281538184DB1B012C0120E056
:1019000030E0A901732D952D0E943A0387FD24C074
:1019100020E030E048EA52E4622D732D842D952DAD
:101920000E94660387FF18C089818A21A9F0A4015B
:101930009301652F782D832F962D0E946301262F0A
:10194000622D732D842D952D2A830E946301862F8D
:1019500041E02A81622F60DCFFEFEF1AFF0AC70126
:1019600087709927892B31F40F5F1F4F90E8A92EBC
:10197000B12C02C0B594A794AB81BC8118962C9170
:10198000822F90E0E816F9060CF4A0CF277011F032
:101990000F5F1F4FBFEFCB1ADB0A04C0C12CD12C45
:1019A00000E010E0EB81FC81818590E0C816D9064B
:1019B0000CF45ACF0F900F900F900F90DF91CF91B2
:1019C0001F910F91FF90EF90DF90CF90BF90AF905D
:1019D0009F908F907F906F905F904F903F902F904F
:1019E00008952F923F924F925F926F927F928F92C3
:1019F0009F92AF92BF92CF92DF92EF92FF920F939E
:101A00001F93CF93DF93CDB7DEB7CA1BDB0B0FB6A7
:101A1000F894DEBF0FBECDBF09942A883988488864
:101A20005F846E847D848C849B84AA84B984C884FA
:101A3000DF80EE80FD800C811B81AA81B981CE0FF1
:101A4000D11D0FB6F894DEBF0FBECDBFED010895D6
:101A50008F929F92AF92BF92CF92DF92EF92FF92BE
:101A6000CF93DF93EC01688179818A819B81611535
:101A700071058105910521F464E279ED8BE597E02C
:101A80002DE133EF41E050E04DD049015A019B0177
:101A9000AC01A7EAB1E436D06B017C01ACEEB4EF47
:101AA000A50194013BD0C60ED71EE81EF91EF7FE15
:101AB00006C081E0C81AD108E10880E8F80AC882A7
:101AC000D982EA82FB82E894D7F8EE24FF24C6018B
:101AD000DF91CF91FF90EF90DF90CF90BF90AF90CC
:101AE0009F908F900895B4CF82E191E0B1CFA0E0B4
:101AF000B0E08093120190931301A0931401B0936E
:101B0000150108952AD0A59F900DB49F900DA49F14
:101B1000800D911D11240895B7FFF4CFF3DF821BD0
:101B2000930B0895052E97FB16F4009406D057FDED
:101B30000CD01FD007FC09D07EF49095809570954D
:101B400061957F4F8F4F9F4F0895509540953095E9
:101B500021953F4F4F4F5F4F0895A29FB001B39F14
:101B6000C001A39F01D0B29F700D811D1124911D52
:101B70000895A1E21A2EAA1BBB1BFD010DC0AA1FCE
:101B8000BB1FEE1FFF1FA217B307E407F50720F0E6
:101B9000A21BB30BE40BF50B661F771F881F991F61
:101BA0001A9469F760957095809590959B01AC01AA
:0A1BB000BD01CF010895F894FFCFA6
:101BBA00030001000100080008002F002F00530055
:101BCA00530001000000000000000000000047610F
:101BDA006D6520537461727420496E3A20005A6F01
:101BEA006D626965446173682076312E30004C61FC
:101BFA0063686C616E20526F62696E736F6E006EFD
:101C0A0038383435343039004C3A2000533A200001
:00000001FF
