:1000000055C0000070C000006EC000006CC0000051
:100010006AC0000068C0000066C0000064C0000044
:1000200062C0000060C000005EC000005CC0000054
:100030005AC0000058C0000056C0000054C0000064
:1000400052C0000050C000004EC000004CC0000074
:100050004AC0000048C0000046C0000044C0000084
:1000600042C0000040C000003EC000003CC0000094
:100070003AC0000038C0000036C0000034C00000A4
:1000800032C0000030C000002EC000002CC00000B4
:100090002AC0000028C0000026C0000024C00000C4
:1000A00022C0000020C000001EC0000011241FBE9E
:1000B000CFEFDAE0DEBFCDBF14E0A0E0B1E0ECEAC4
:1000C000FDE102C005900D92A233B107D9F716E009
:1000D000A2E3B4E001C01D92AA37B107E1F70E9484
:1000E0001C0A0C94D40E8CCFA0E0B0E0EAE7F0E05C
:1000F0000C94EA0DDC012B01FA019C91923008F47A
:1001000039C1EB018881823008F433C1943069F43D
:10011000843009F02FC111969C911197898198170D
:1001200009F428C1A5E2B3E025C1843009F421C156
:100130008230A9F4923009F01DC19A01AD0188E026
:10014000EA010990AE01E90109929E018150C1F7CF
:10015000E201898111969C918923818308C19230A3
:1001600009F407C112962D903C901397EB018A81F8
:100170009B811496AD90BD90CD90DC901797EC804C
:10018000FD800E811F819101281B390BB90137FFBA
:1001900004C066277727621B730B603271050CF071
:1001A00061C0121613066CF537014801062E04C013
:1001B00096948794779467940A94D2F721E030E07C
:1001C00040E050E004C0220F331F441F551F6A95C2
:1001D000D2F721503040404050402E213F21402353
:1001E0005123211531054105510521F021E030E071
:1001F00040E050E079018A01E628F728082919290A
:100200003CC0232BD1F1260E371E35014601062EA8
:1002100004C096948794779467940A94D2F721E067
:1002200030E040E050E004C0220F331F441F551F50
:100230006A95D2F721503040404050402A213B215E
:100240004C215D21211531054105510521F021E0A9
:1002500030E040E050E059016A01A628B728C828DC
:10026000D9280BC0821593052CF01C01AA24BB24AD
:10027000650103C0EE24FF24870111969C91D201F1
:1002800011968C91981709F445C0992339F0A8016B
:1002900097012A193B094C095D0906C0A601950181
:1002A0002E193F09400B510B57FD08C011823382B4
:1002B000228224833583468357831DC081E0818356
:1002C0003382228288279927DC01821B930BA40B9F
:1002D000B50B84839583A683B7830DC0220F331F8C
:1002E000441F551F2483358346835783828193811E
:1002F0000197938382832481358146815781DA0176
:10030000C9010197A109B1098F5F9F4FAF4FBF434B
:1003100028F30BC0918333822282EA0CFB1C0C1D54
:100320001D1DE482F5820683178383E08083248188
:1003300035814681578157FF1AC0C901AA2797FD09
:10034000A095BA2F81709070A070B07056954795A7
:1003500037952795822B932BA42BB52B84839583DC
:10036000A683B78382819381019693838283DF0181
:1003700001C0D201CD01CDB7DEB7E2E10C94060E8B
:10038000A0E2B0E0E6ECF1E00C94F60D69837A832C
:100390008B839C832D833E834F835887E9E0EE2E29
:1003A000F12CEC0EFD1ECE010196B7018AD48E0110
:1003B0000F5E1F4FCE010596B80183D48A8991E064
:1003C00089278A8BC701B801AE01475E5F4F8CDE7B
:1003D000A3D3A096E6E00C94120EA0E2B0E0E3EF07
:1003E000F1E00C94F60D69837A838B839C832D83D3
:1003F0003E834F835887F9E0EF2EF12CEC0EFD1E63
:10040000CE010196B7015DD48E010F5E1F4FCE0164
:100410000596B80156D4C701B801AE01475E5F4FDB
:1004200063DE7AD3A096E6E00C94120EA0E2B0E070
:10043000ECE1F2E00C94EA0D69837A838B839C8370
:100440002D833E834F835887CE010196BE01675F9F
:100450007F4F37D4CE010596BE016F5E7F4F31D4FA
:100460009985923088F089898230C8F0943019F4E7
:10047000823051F404C0843029F4923081F485E252
:1004800093E0C6C0923049F420E09A858A89981397
:1004900021E02A87CE010996BBC0823049F420E0D2
:1004A0009A858A89981321E02A8BCE014196B0C0A3
:1004B0002D843E844F8458886D887E888F88988CE0
:1004C000EE24FF248701AA24BB24650140E050E00C
:1004D00060E070E0E0E0F0E0C10181709070892B95
:1004E000E9F0E60CF71C081D191D9A01AB012A0D55
:1004F0003B1D4C1D5D1D80E090E0A0E0B0E0E614E7
:10050000F7040805190520F481E090E0A0E0B0E0D0
:10051000BA01A901480F591F6A1F7B1FAA0CBB1CF7
:10052000CC1CDD1C97FE08C081E090E0A0E0B0E0AC
:10053000A82AB92ACA2ADB2A3196E032F10549F005
:10054000660C771C881C991C569447943794279402
:10055000C3CFFA85EA892B893C898B859C85280F36
:10056000391F2E5F3F4F17C0CA0181709070892BD1
:1005700061F016950795F794E79480E090E0A0E08D
:10058000B0E8E82AF92A0A2B1B2B76956795579530
:1005900047952F5F3F4F77FDE7CF0CC0440F551FA6
:1005A000661F771F17FD4160EE0CFF1C001F111F17
:1005B00021503040403090E0590790E0690790E4C6
:1005C000790760F32B8F3C8FDB01CA018F77907026
:1005D000A070B07080349105A105B10561F447FDAC
:1005E0000AC0E114F1040105110529F0405C5F4FD8
:1005F0006F4F7F4F40781A8EFE1711F081E08A8F7F
:100600004D8F5E8F6F8F78A383E0898FCE014996DF
:1006100083D2A096E2E10C94060EA8E1B0E0E3E1FB
:10062000F3E00C94F20D69837A838B839C832D8392
:100630003E834F835887B9E0EB2EF12CEC0EFD1E64
:10064000CE010196B7013DD38E010F5E1F4FCE0143
:100650000596B80136D32985223008F47EC0398941
:10066000323010F4B8017CC08A859A8989278A873C
:10067000243011F0223031F4231709F06EC065E206
:1006800073E06EC0343039F41D861E861F86188ACA
:100690001C861B8604C0323021F484E08987B701B0
:1006A0005FC02B853C858B899C89281B390B3C8737
:1006B0002B87ED84FE840F851889AD88BE88CF888E
:1006C000D88CEA14FB040C051D0540F4EE0CFF1C4D
:1006D000001F111F215030403C872B8720E030E065
:1006E00040E050E080E090E0A0E0B0E460E070E046
:1006F000EA14FB040C051D0540F0282B392B4A2B6E
:100700005B2BEA18FB080C091D09B695A795979570
:100710008795EE0CFF1C001F111F6F5F7F4F6F311D
:10072000710531F7DA01C9018F779070A070B07050
:1007300080349105A105B10561F427FD0AC0E114DB
:10074000F1040105110529F0205C3F4F4F4F5F4F29
:1007500020782D873E874F87588BBE01675F7F4F7C
:10076000CB01DAD16896EAE00C940E0EA8E1B0E075
:10077000ECEBF3E00C94F60D69837A838B839C8316
:100780002D833E834F83588789E0E82EF12CEC0EB1
:10079000FD1ECE010196B70194D28E010F5E1F4F50
:1007A000CE010596B8018DD28985823038F08989CD
:1007B000823020F0C701B801FCD201C08FEF6896EB
:1007C000E6E00C94120EA8E1B0E0E9EEF3E00C9440
:1007D000F60D69837A838B839C832D833E834F83BD
:1007E000588789E0E82EF12CEC0EFD1ECE01019613
:1007F000B70167D28E010F5E1F4FCE010596B8017B
:1008000060D28985823038F08989823020F0C70132
:10081000B801CFD201C08FEF6896E6E00C94120EBB
:10082000A8E1B0E0E6E1F4E00C94F60D69837A8388
:100830008B839C832D833E834F83588789E0E82EEA
:10084000F12CEC0EFD1ECE010196B7013AD28E01BD
:100850000F5E1F4FCE010596B80133D289858230D5
:1008600038F08989823020F0C701B801A2D201C0D6
:1008700081E06896E6E00C94120EA8E1B0E0E3E4B3
:10088000F4E00C94F60D69837A838B839C832D832B
:100890003E834F83588789E0E82EF12CEC0EFD1E35
:1008A000CE010196B7010DD28E010F5E1F4FCE0112
:1008B0000596B80106D28985823038F08989823060
:1008C00020F0C701B80175D201C081E06896E6E06A
:1008D0000C94120EA8E0B0E0E0E7F4E00C94F30D05
:1008E0009B01AC0183E08983DA01C9018827B7FD48
:1008F00083959927AA27BB27B82E211531054105D5
:10090000510519F482E0898339C08823A9F0203089
:1009100080E0380780E0480780E8580729F460E065
:1009200070E080E09FEC2EC0EE24FF248701E21AE5
:10093000F30A040B150B02C079018A018EE1C82E5F
:10094000D12CDC82CB82ED82FE820F831887C80116
:10095000B70193D001971816190684F4082E04C025
:10096000EE0CFF1C001F111F0A94D2F7ED82FE82CD
:100970000F831887C81AD90ADC82CB82BA82CE01CB
:100980000196CAD02896E9E00C940F0EA8E0B0E0DA
:10099000ECECF4E00C94F20D7B018C016115710517
:1009A0008105910519F482E089835FC083E0898322
:1009B0008EE1C82ED12CDC82CB82ED82FE820F83A9
:1009C0001887C801B70159D0FC013197F7FF3BC028
:1009D000222733272E1B3F0B57016801022E04C02C
:1009E000D694C794B794A7940A94D2F740E050E005
:1009F00060E070E081E090E0A0E0B0E004C0880F2B
:100A0000991FAA1FBB1F2A95D2F70197A109B10907
:100A10008E219F21A023B1230097A105B10521F0CC
:100A200041E050E060E070E04A295B296C297D29B3
:100A30004D835E836F8378878EE190E08E1B9F0BE2
:100A40009C838B8312C0309781F00E2E04C0EE0C75
:100A5000FF1C001F111F0A94D2F7ED82FE820F8344
:100A60001887CE1ADF0ADC82CB821A82CE01019669
:100A700053D02896EAE00C940E0EEF92FF920F935B
:100A80001F937B018C0180E0E81680E0F80681E08E
:100A9000080780E0180788F48FEFE816F1040105D5
:100AA000110531F028F088E090E0A0E0B0E017C038
:100AB00080E090E0A0E0B0E012C080E0E81680E0C6
:100AC000F80680E0080781E0180728F088E190E048
:100AD000A0E0B0E004C080E190E0A0E0B0E020E25F
:100AE00030E040E050E0281B390B4A0B5B0B04C0A0
:100AF00016950795F794E7948A95D2F7F701E35D89
:100B0000FC4F8081281B310941095109C9011F91FE
:100B10000F91FF90EF900895DF92EF92FF920F9365
:100B20001F93FC01E480F58006811781D1808081CC
:100B3000823048F480E090E0A0E1B0E0E82AF92AB1
:100B40000A2B1B2BA5C0843009F49FC0823021F4EE
:100B5000EE24FF24870105C0E114F104010511050D
:100B600019F4E0E0F0E096C0628173819FEF623893
:100B700079070CF05BC022E83FEF261B370B2A31C8
:100B800031052CF020E030E040E050E02AC0B80110
:100B9000A701022E04C076956795579547950A944C
:100BA000D2F781E090E0A0E0B0E004C0880F991F88
:100BB000AA1FBB1F2A95D2F70197A109B1098E215F
:100BC0009F21A023B1230097A105B10521F081E069
:100BD00090E0A0E0B0E09A01AB01282B392B4A2B22
:100BE0005B2BDA01C9018F779070A070B0708034F0
:100BF0009105A105B10539F427FF09C0205C3F4FDD
:100C00004F4F5F4F04C0215C3F4F4F4F5F4FE0E0BD
:100C1000F0E02030A0E03A07A0E04A07A0E45A073D
:100C200010F0E1E0F0E079018A0127C06038710539
:100C300064F5FB01E158FF4FD801C7018F77907031
:100C4000A070B07080349105A105B10539F4E7FEBC
:100C50000DC080E490E0A0E0B0E004C08FE390E03D
:100C6000A0E0B0E0E80EF91E0A1F1B1F17FF05C029
:100C700016950795F794E794319687E016950795B2
:100C8000F794E7948A95D1F705C0EE24FF248701F5
:100C9000EFEFF0E06E2F679566276795902F9F77AF
:100CA000D794DD24D7948E2F8695492F462B582F25
:100CB0005D29B701CA011F910F91FF90EF90DF905E
:100CC0000895FC01DB01408151812281622F6F7701
:100CD00070E0221F2227221F9381892F880F822BE9
:100CE000282F30E0991F9927991F11969C931197EF
:100CF00021153105A9F5411551056105710511F45D
:100D000082E037C082E89FEF13969C938E931297F0
:100D10009A01AB0167E0220F331F441F551F6A95EC
:100D2000D1F783E08C930DC0220F331F441F551F52
:100D300012968D919C911397019713969C938E9385
:100D40001297203080E0380780E0480780E4580799
:100D500058F314962D933D934D935C9317970895F4
:100D60002F3F310579F4411551056105710519F4DD
:100D700084E08C93089564FF03C081E08C9312C0DB
:100D80001C9210C02F57304013963C932E9312970D
:100D900083E08C9387E0440F551F661F771F8A9569
:100DA000D1F7706414964D935D936D937C93179770
:100DB00008951F93DC01FB019C91923008F447C019
:100DC0008081823008F443C0943051F411961C9114
:100DD000843099F58181682F70E0611B71093FC0F3
:100DE000843021F0923031F48230B9F1818188234E
:100DF00089F12DC011961C9111978230F1F08181FB
:100E00001817D9F412962D913C91139782819381F2
:100E10008217930794F028173907BCF014968D9128
:100E20009D910D90BC91A02D2481358146815781E3
:100E3000281739074A075B0718F4112341F00AC045
:100E400082179307A407B50740F4112319F061E056
:100E500070E005C06FEF7FEF02C060E070E0CB0193
:100E60001F91089583B1282F30E0217030703093A6
:100E70003504209334048091320490913304821716
:100E8000930719F440E050E00CC0309333042093F2
:100E900032042115310519F442E050E002C041E06E
:100EA00050E03093370420933604CA01089583B18B
:100EB0008695282F30E02170307030933B042093CA
:100EC0003A0480913804909139048217930719F4F9
:100ED00040E050E00CC030933904209338042115D1
:100EE000310519F442E050E002C041E050E0309397
:100EF0003D0420933C04CA010895CF93DF93809171
:100F0000400490914104EC012497DC0114968091F7
:100F1000420490914304BC0164507040049640E048
:100F200050E020E030E0F901EA5BFB4F0190F081F6
:100F3000E02DEC17FD078CF0AE17BF0774F0F90138
:100F4000E259FB4F0190F081E02DE617F7072CF0F6
:100F50008E179F0714F041E050E02E5F3F4F243181
:100F6000310509F7CA01DF91CF910895EF92FF9201
:100F70001F93CF93DF93C6E4D4E08EE6E82E84E09F
:100F8000F82E21C08881810FF701608140E00AD3EB
:100F90008881F70160816C5F810F40E003D3888115
:100FA000F70160816C5F611B810F40E0FBD21F5F26
:100FB000153041F7229682E090E0E80EF91E94E0A9
:100FC000CA35D90711F010E0DDCFDF91CF911F9125
:100FD000FF90EF900895EF92FF921F93CF93DF93CE
:100FE000C6E4D4E09EE6E92E94E0F92E21C0888183
:100FF000810FF701608141E0D5D28881F7016081DE
:101000006C5F810F41E0CED28881F70160816C5F17
:10101000611B810F41E0C6D21F5F153041F7229658
:1010200082E090E0E80EF91E94E0CA35D90711F08D
:1010300010E0DDCFDF91CF911F91FF90EF900895E9
:101040001F9310E060914204610F8091400440E0E2
:10105000A9D28091400460914204610F8F5F40E00B
:10106000A1D28091400460914204610F8D5F40E005
:1010700099D28091400460914204610F8C5F40E0FE
:1010800091D21F5F1530F1F68091400460914204C7
:101090006E5F8E5F40E086D21F9108951F9310E02F
:1010A00060914204610F8091400441E07BD28091C5
:1010B000400460914204610F8F5F41E073D28091E0
:1010C000400460914204610F8D5F41E06BD28091DA
:1010D000400460914204610F8C5F41E063D21F5F66
:1010E0001530F1F680914004609142046E5F8E5F8E
:1010F00041E058D21F910895A3DFD9DE019791F402
:101100008091440490914504019790934504809305
:1011100044048F5F9F4F31F483E090E09093450447
:10112000809344049FDE019779F480914404909168
:10113000450401969093450480934404049721F458
:101140001092450410924404809144049091450407
:10115000009749F480914204909143048A309105AC
:1011600064F1019717C08130910549F480914004E2
:10117000909141048230910504F101971AC08230A8
:10118000910569F480914204909143048A3291055B
:10119000A4F4019690934304809342040EC00397F5
:1011A00061F480914004909141048E3491052CF4B7
:1011B0000196909341048093400470CFCF92DF92C8
:1011C000EF92FF920F931F93CF93DF93CFDE0EE644
:1011D00014E036E4E32E34E0F32ECAE5D4E023E055
:1011E000C22ED12C77D564E170E0CDD4009759F4AC
:1011F000888199810197998388838F5F9F4F79F4C4
:10120000D982C8820CC08130910549F488819981C6
:10121000019699838883049711F419821882288192
:1012200039812115310531F4F801808191818A30AD
:1012300091054CF42130310541F4F7018081918111
:101240008230910514F0019713C02230310531F43A
:10125000F801808191818A3291054CF0233031056B
:1012600049F4F701808191818E3491051CF4019637
:10127000918380830E5F1F4F82E090E0E80EF91E9D
:10128000229694E00238190709F0ACCFA4DEDF9172
:10129000CF911F910F91FF90EF90DF90CF90089525
:1012A000EF92FF920F931F93CF93DF93C6E4D4E0A6
:1012B0000EE614E04AE5E42E44E0F42E0BD56DE48E
:1012C00070E061D401969983888304D56EE170E063
:1012D0005AD40996F80191838083FCD464E070E0CD
:1012E00052D4F7010DC0F6D46DE470E04CD40196F1
:1012F00099838883EFD46EE170E045D40996F801B4
:101300009183808320914004309141044881598128
:10131000C901099748175907B4F0225F3F4F2417B6
:1013200035078CF02091420430914304F80140814C
:101330005181C9010997481759072CF0225F3F4F87
:101340002417350784F622960E5F1F4F82E090E047
:10135000E80EF91E94E0CA35D90709F0AFCFDF9146
:10136000CF911F910F91FF90EF90089580E068E07A
:1013700040E02FE245D180E06FE243E52FE240D12B
:1013800083E568E043E52FE23BC180E068E043E5A8
:1013900028E036D180E091E060E040E07AD38091AF
:1013A0003E0490913F048A3091057CF06AE070E041
:1013B000EAD3862F805D6AE040E013D380913E043B
:1013C00090913F046AE070E0DED3805D6FE040E022
:1013D00008D383E091E066E140E05BD38091430174
:1013E000805D60E240E0FDC2D5D0CFDFBFDF88E2A4
:1013F00090E090934104809340048AE190E09093C0
:10140000430480934204109245041092440448DF40
:1014100045DEE1DD53C3BED087E091E060E040E00F
:1014200038D383E191E060E048E033D38DE191E08F
:1014300060E040E12ED342C3AF92BF92CF92DF92E1
:10144000EF92FF920F931F93CF93DF9384B18C6041
:1014500084B984B18C7F84B98FE362D3EE24FF24F6
:1014600000E010E060E9C62E61E0D62E53E0A52E24
:10147000B12CD1DFC0E0D0E001C02196F3DC892B94
:1014800019F415DD892BC9F3CE0127D483D083E36A
:1014900060E040E0A6D212D388EB9BE0F6013197E2
:1014A000F1F70197D9F782E360E040E09AD206D3E2
:1014B00088EB9BE0F6013197F1F70197D9F781E3CB
:1014C00060E040E08ED2FAD288EB9BE0F6013197E3
:1014D000F1F70197D9F788DF3FC00530110561F4B6
:1014E00080913E0490913F04019690933F04809335
:1014F0003E044BDF00E010E08AE0E816F10431F42E
:101500000F5F1F4F5BDEEE24FF2403C00894E11C35
:10151000F11CF2DDF2DC892BB9F08091430190914E
:101520004401019790934401809343018EE291E03E
:1015300066E148E1AED2C2D280E197E2F60131978E
:10154000F1F70197D9F750DFB9D284EF91E0F601B6
:101550003197F1F70197D9F78091430190914401B8
:10156000181619060CF4B9CF88E391E066E148E15A
:1015700090D2B0924401A092430110923F04109285
:101580003E049CD280E197E2F6013197F1F7019792
:10159000D9F76FCFE2E8F4E0119286E0EA37F80776
:1015A000D9F70895262F269526952695677090E001
:1015B000442391F0E4E52E9FF0011124E80FF91F78
:1015C000EE57FB4F81E090E002C0880F991F6A95AB
:1015D000E2F72081282B12C0E4E52E9FF0011124B0
:1015E000E80FF91FEE57FB4F81E090E002C0880F33
:1015F000991F6A95E2F7809520812823208308951A
:101600002F923F924F925F926F927F928F929F9212
:10161000AF92BF92CF92DF92EF92FF920F931F9300
:10162000DF93CF93CDB7DEB766970FB6F894DEBFE2
:101630000FBECDBFC82ED62E49872A87841759F4EE
:10164000162F05C08C2D612F41E0ACDF1F5F2A856E
:101650002117C0F7ADC13A85631759F4182F05C09B
:10166000812F6D2D41E09EDF1F5F49854117C0F737
:101670009FC15A85652F70E080E090E087D97B019B
:101680008C018D2D90E09C878B87FC01BF01882702
:1016900077FD8095982F1ED99B01AC01C801B70139
:1016A0000E94C0011B012C01F9856F2F70E080E0C2
:1016B00090E06CD97B018C01AC2CBB24B501882750
:1016C00077FD8095982F06D99B01AC01C801B70121
:1016D0000E94C0013B014C01C201B101A401930170
:1016E0000E940D037B018C012985C21608F038C0C9
:1016F00020E030E040E85FE339D8181624F471E0C8
:10170000C72ED12C3FC1C801B70120E030E040E82E
:101710005FE3B3D8181664F0C801B70120E030E0E9
:1017200040E050E023D818161CF4CC24DD2452C02D
:10173000C801B70120E030E040E050E09ED8181624
:101740000CF419C1C801B70120E030E040E85FEBBC
:101750000DD818160CF00FC167E0C62ED12C3AC078
:1017600020E030E040E85FE301D8181624F455E0AB
:10177000C52ED12C07C1C801B70120E030E040E8F8
:101780005FE37BD8181674F0C801B70120E030E0A1
:1017900040E050E00E94B603181624F444E0C42E42
:1017A000D12C18C0C801B70120E030E040E050E083
:1017B00064D818160CF4E3C0C801B70120E030E08B
:1017C00040E85FEB0E94B60318160CF0D8C033E077
:1017D000C32ED12C4B855C855A834983BE82AD8252
:1017E0009985892F90E09C838B8317012801E1E084
:1017F000F0E0F887EF83F7E0CF16D10428F423E078
:10180000C216D10440F404C037E0C316D10429F451
:1018100081E090E002C08FEF9FEFAD80BE800F2E81
:10182000F0E06F2EF0E07F2EF0E08F2EF0E09F2EA4
:10183000F02DA201910150582D873E874F87588B7C
:101840009C01442737FD4095542F298B3A8B4B8BB5
:101850005C8B80C04F815885452B19F08A2D69819A
:1018600002C089816A2D41E09DDEC201B10120E004
:1018700030E040E050E00E94E30388231CF0A20126
:10188000910104C02D853E854F855889C401B3015F
:101890000E94ED013B014C0120E030E040E05FE3BD
:1018A0000E94B60318160CF047C069897A898B89A3
:1018B0009C8910D89B01AC01C201B1010E941602A3
:1018C0007B018C011E8A1D8A20E030E040E050E060
:1018D0000E94B603181624F481E090E09E8B8D8B55
:1018E000CC24DD24C801B70120E030E040E050E026
:1018F0000E94100488231CF421E0C22ED12CED8913
:10190000FE89EC19FD09319739F429813A812F5F5D
:101910003F4F3A83298306C049815A814150504044
:101920005A834983C401B30120E030E040E85FE31B
:101930000E94C0013B014C018B819C81ED81FE81A5
:10194000E817F90720F40894A11CB11C03C00894FF
:10195000A108B1082B813C814D815E81421753075C
:1019600020F42A153B0520F175CF8B819C81A816A8
:10197000B906F0F06FCF96E0C92ED12C03C082E0FB
:10198000C82ED12CC401B301A20191010E940D0304
:101990001B012C01BA82A982EB85FC85FE83ED83B5
:1019A0003A85232F30E03C832B8318861F8223CF78
:1019B00066960FB6F894DEBF0FBECDBFCF91DF9114
:1019C0001F910F91FF90EF90DF90CF90BF90AF905D
:1019D0009F908F907F906F905F904F903F902F904F
:1019E00008958F929F92AF92BF92CF92DF92EF9223
:1019F000FF920F931F93CF93DF93B62EA42E282F21
:101A000030E0205230408901000F111F000F111FDC
:101A1000020F131F0B5B1E4FE1E08E2E912C95E001
:101A2000899F700111248AEA90E0E80EF91E1DC01A
:101A30006A2D6C0FA4010C2E02C0440F551F0A948E
:101A4000E2F74C215D210C2E02C0559547950A9472
:101A5000E2F78B2DA7DD2196C830D10549F70F5F3E
:101A60001F4FB3940E151F0539F0F8018081C82E61
:101A7000DD24C0E0D0E0DCCFDF91CF911F910F914A
:101A8000FF90EF90DF90CF90BF90AF909F908F909E
:101A900008950F931F93CF93DF93EC01162F042F1C
:101AA00005C0612F402F9DDF21961B5F8881882311
:101AB000C1F7DF91CF911F910F910895CF93DF93DD
:101AC00080E060E055D0C2E8D4E081E0699107D0C1
:101AD00086E0CA37D807C9F7DF91CF91089595B14D
:101AE0008295880F807E9F7D982B95B95F9827E01F
:101AF00030E070E08F98CB01022E02C0959587955B
:101B00000A94E2F780FF02C02E9A01C02E988F9AA5
:101B1000215030408FEF2F3F380761F75F9A0895CB
:101B20001F93182F579A249A259A269A879A2C98A9
:101B30005F9A2C9A80E061E2D2DF106880E0612F2A
:101B4000CEDF80E064E0CBDF80E063E1C8DF80E0EF
:101B50006CE0C5DF80E060E2C2DF80E06CE0BFDF08
:101B600080E060E4BCDF80E060E8B9DF1F910895A9
:101B70001F93182F606480E0B2DF106880E0612F4F
:101B8000AEDF1F91089597FB092E07260AD077FD37
:101B900004D00CD006D000201AF4709561957F4FC8
:101BA0000895F6F7909581959F4F0895AA1BBB1B4A
:101BB00051E107C0AA1FBB1FA617B70710F0A61B4D
:101BC000B70B881F991F5A95A9F780959095BC016E
:101BD000CD0108952F923F924F925F926F927F9224
:101BE0008F929F92AF92BF92CF92DF92EF92FF922D
:101BF0000F931F93CF93DF93CDB7DEB7CA1BDB0BD9
:101C00000FB6F894DEBF0FBECDBF09942A8839887D
:101C100048885F846E847D848C849B84AA84B98484
:101C2000C884DF80EE80FD800C811B81AA81B98190
:101C3000CE0FD11D0FB6F894DEBF0FBECDBFED01A4
:101C40000895A0E0B0E0E6E2FEE0CCCFEC01A88091
:101C5000B980CA80DB80A114B104C104D10441F46D
:101C600084E2A82E89EDB82E8BE5C82E87E0D82E09
:101C7000C601B5012DE133EF41E050E058D027EA2D
:101C800031E440E050E034D07B018C01C601B50165
:101C90002DE133EF41E050E04AD0CA01B9012CEE0A
:101CA00034EF4FEF5FEF24D06E0D7F1D801F911F2B
:101CB00097FF04C0615070408040904868837983EA
:101CC0008A839B839B013F77C901CDB7DEB7EAE0EA
:101CD000A5CFB7CF8DE294E0B4CFA0E0B0E0809381
:101CE0002D0490932E04A0932F04B09330040895F4
:101CF000629FD001739FF001829FE00DF11D649FF0
:101D0000E00DF11D929FF00D839FF00D749FF00D7B
:101D1000659FF00D9927729FB00DE11DF91F639F1C
:101D2000B00DE11DF91FBD01CF011124089597FBEE
:101D3000092E05260ED057FD04D014D00AD0001C61
:101D400038F450954095309521953F4F4F4F5F4F58
:101D50000895F6F790958095709561957F4F8F4F18
:101D60009F4F0895A1E21A2EAA1BBB1BFD010DC0B7
:101D7000AA1FBB1FEE1FFF1FA217B307E407F5073B
:101D800020F0A21BB30BE40BF50B661F771F881F17
:101D9000991F1A9469F760957095809590959B01AD
:0C1DA000AC01BD01CF010895F894FFCF05
:101DAC00533A004C3A20005275746820536368759E
:101DBC006C7A00313233343536373839005072652D
:101DCC00737320616E7920627574746F6E00596F35
:101DDC00752064696564210047414D45204F564587
:101DEC005221000300000000000000005F00000012
:101DFC0007000700147F147F14242A7F2A12231350
:101E0C0008646236495522500005030000001C226C
:101E1C0041000041221C0014083E081408083E082A
:101E2C000800503000000808080808006060000036
:101E3C0020100804023E5149453E00427F400042BA
:101E4C00615149462141454B311814127F102745E9
:101E5C004545393C4A494930017109050336494920
:101E6C004936064949291E00363600000056360010
:101E7C0000081422410014141414140041221408F4
:101E8C000201510906324979413E7E1111117E7FC2
:101E9C00494949363E414141227F4141221C7F49FB
:101EAC004949417F090909013E4149497A7F08089E
:101EBC00087F00417F41002040413F017F081422F0
:101ECC00417F404040407F020C027F7F0408107F1E
:101EDC003E4141413E7F090909063E4151215E7F49
:101EEC0009192946464949493101017F01013F4001
:101EFC0040403F1F2040201F3F4038403F631408A4
:101F0C00146307087008076151494543007F41413C
:101F1C000002040810200041417F00040201020469
:101F2C004040404040000102040020545454787F4B
:101F3C00484444383844444420384444487F385456
:101F4C00545418087E0901020C5252523E7F080468
:101F5C00047800447D40002040443D007F1028441C
:101F6C000000417F40007C041804787C080404784D
:101F7C0038444444387C14141408081414187C7C19
:101F8C00080404084854545420043F4440203C4066
:101F9C0040207C1C2040201C3C4030403C442810FD
:101FAC0028440C5050503C4464544C440008364176
:101FBC000000007F000000413608001008081008DF
:101FCC007846414678000000000000000000010245
:101FDC0002030303030404040404040404050505B8
:101FEC000505050505050505050505050506060692
:101FFC000606060606060606060606060606060675
:10200C000606060606060606060606060607070761
:10201C000707070707070707070707070707070744
:10202C000707070707070707070707070707070734
:10203C000707070707070707070707070707070724
:10204C000707070707070707070707070708080811
:10205C0008080808080808080808080808080808F4
:10206C0008080808080808080808080808080808E4
:10207C0008080808080808080808080808080808D4
:10208C0008080808080808080808080808080808C4
:10209C0008080808080808080808080808080808B4
:1020AC0008080808080808080808080808080808A4
:1020BC000808080808080808080808080808080894
:1020CC00080808080808080808080808080100009B
:0220DC00000002
:00000001FF
