:1000000045C1000060C100005EC100005CC100008D
:100010005AC1000058C1000056C1000054C1000080
:1000200052C1000081C400004EC100004CC100005C
:100030004AC1000048C1000046C1000044C10000A0
:1000400042C1000040C100003EC100003CC10000B0
:100050003AC1000038C1000036C100000C94950C74
:1000600032C1000030C100002EC100002CC10000D0
:100070002AC1000028C1000026C1000024C10000E0
:1000800022C1000020C100001EC100001CC10000F0
:100090001AC1000018C1000016C1000014C1000000
:1000A00012C1000010C100000EC1000000000000DD
:1000B0000000005F00000007000700147F147F1499
:1000C000242A7F2A122313086462364955225000DD
:1000D00005030000001C2241000041221C001408FE
:1000E0003E081408083E08080050300000080808C0
:1000F0000808006060000020100804023E514945D5
:100100003E00427F400042615149462141454B310A
:100110001814127F1027454545393C4A494930019A
:10012000710905033649494936064949291E0036F1
:100130003600000056360000081422410014141442
:100140001414004122140802015109063249794170
:100150003E7E1111117E7F494949363E414141227F
:100160007F4141221C7F494949417F090909013EDC
:100170004149497A7F0808087F00417F41002040BB
:10018000413F017F081422417F404040407F020CE4
:10019000027F7F0408107F3E4141413E7F090909EB
:1001A000063E4151215E7F09192946464949493198
:1001B00001017F01013F4040403F1F2040201F3F81
:1001C0004038403F63140814630708700807615102
:1001D000494543007F41410002040810200041418D
:1001E0007F0004020102044040404040000102043C
:1001F0000020545454787F484444383844444420C0
:10020000384444487F3854545418087E0901020C7D
:100210005252523E7F0804047800447D4000204042
:10022000443D007F1028440000417F40007C0418BA
:1002300004787C0804047838444444387C1414144A
:1002400008081414187C7C080404084854545420EA
:10025000043F4440203C4040207C1C2040201C3C6B
:100260004030403C44281028440C5050503C4464DA
:10027000544C44000836410000007F000000413625
:1002800008001008081008784641467811241FBE5F
:10029000CFEFDAE0DEBFCDBF11E0A0E0B1E0E0E7F4
:1002A000F3E302C005900D92A03FB107D9F714E027
:1002B000A0EFB1E001C01D92A633B107E1F70E94A3
:1002C000DB0F0C94B6199CCEA0E2B0E0EAE6F1E0B8
:1002D0000C94CC1869837A838B839C832D833E8313
:1002E0004F835887CE010196BE01675F7F4F61D271
:1002F000CE010596BE016F5E7F4F5BD2998592302D
:1003000088F089898230C8F0943019F4823051F431
:1003100004C0843029F4923081F483EE91E0C6C0A9
:10032000923049F420E09A858A89981321E02A873F
:10033000CE010996BBC0823049F420E09A858A89B3
:10034000981321E02A8BCE014196B0C02D843E84C3
:100350004F8458886D887E888F88988CEE24FF247F
:100360008701AA24BB24650140E050E060E070E012
:10037000E0E0F0E0C10181709070892BE9F0E60CBB
:10038000F71C081D191D9A01AB012A0D3B1D4C1DC0
:100390005D1D80E090E0A0E0B0E0E614F704080501
:1003A000190520F481E090E0A0E0B0E0BA01A901D5
:1003B000480F591F6A1F7B1FAA0CBB1CCC1CDD1CDD
:1003C00097FE08C081E090E0A0E0B0E0A82AB92A3A
:1003D000CA2ADB2A3196E032F10549F0660C771C17
:1003E000881C991C5694479437942794C3CFFA8558
:1003F000EA892B893C898B859C85280F391F2E5FC4
:100400003F4F17C0CA0181709070892B61F016951B
:100410000795F794E79480E090E0A0E0B0E8E82A40
:10042000F92A0A2B1B2B76956795579547952F5FD1
:100430003F4F77FDE7CF0CC0440F551F661F771F56
:1004400017FD4160EE0CFF1C001F111F21503040B2
:10045000403090E0590790E0690790E4790760F335
:100460002B8F3C8FDB01CA018F779070A070B0702A
:1004700080349105A105B10561F447FD0AC0E1147E
:10048000F1040105110529F0405C5F4F6F4F7F4F6C
:1004900040781A8EFE1711F081E08A8F4D8F5E8FA3
:1004A0006F8F78A383E0898FCE014996ADD0A09657
:1004B000E2E10C94E818A8E1B0E0E1E6F2E00C9487
:1004C000D41869837A838B839C832D833E834F83E7
:1004D0005887B9E0EB2EF12CEC0EFD1ECE010196F3
:1004E000B70167D18E010F5E1F4FCE010596B8018F
:1004F00060D12985223008F47EC03989323010F469
:10050000B8017CC08A859A8989278A87243011F0AE
:10051000223031F4231709F06EC063EE71E06EC033
:10052000343039F41D861E861F86188A1C861B8669
:1005300004C0323021F484E08987B7015FC02B8585
:100540003C858B899C89281B390B3C872B87ED8444
:10055000FE840F851889AD88BE88CF88D88CEA14B0
:10056000FB040C051D0540F4EE0CFF1C001F111FC1
:10057000215030403C872B8720E030E040E050E0C5
:1005800080E090E0A0E0B0E460E070E0EA14FB04FA
:100590000C051D0540F0282B392B4A2B5B2BEA1844
:1005A000FB080C091D09B695A79597958795EE0C44
:1005B000FF1C001F111F6F5F7F4F6F31710531F7F7
:1005C000DA01C9018F779070A070B0708034910506
:1005D000A105B10561F427FD0AC0E114F10401058C
:1005E000110529F0205C3F4F4F4F5F4F20782D873A
:1005F0003E874F87588BBE01675F7F4FCB0104D08A
:100600006896EAE00C94F018DF92EF92FF920F9355
:100610001F93FC01E480F58006811781D1808081E1
:10062000823048F480E090E0A0E1B0E0E82AF92AC6
:100630000A2B1B2BA5C0843009F49FC0823021F403
:10064000EE24FF24870105C0E114F1040105110522
:1006500019F4E0E0F0E096C0628173819FEF6238A8
:1006600079070CF05BC022E83FEF261B370B2A31DD
:1006700031052CF020E030E040E050E02AC0B80125
:10068000A701022E04C076956795579547950A9461
:10069000D2F781E090E0A0E0B0E004C0880F991F9D
:1006A000AA1FBB1F2A95D2F70197A109B1098E2174
:1006B0009F21A023B1230097A105B10521F081E07E
:1006C00090E0A0E0B0E09A01AB01282B392B4A2B37
:1006D0005B2BDA01C9018F779070A070B070803405
:1006E0009105A105B10539F427FF09C0205C3F4FF2
:1006F0004F4F5F4F04C0215C3F4F4F4F5F4FE0E0D3
:10070000F0E02030A0E03A07A0E04A07A0E45A0752
:1007100010F0E1E0F0E079018A0127C0603871054E
:1007200064F5FB01E158FF4FD801C7018F77907046
:10073000A070B07080349105A105B10539F4E7FED1
:100740000DC080E490E0A0E0B0E004C08FE390E052
:10075000A0E0B0E0E80EF91E0A1F1B1F17FF05C03E
:1007600016950795F794E794319687E016950795C7
:10077000F794E7948A95D1F705C0EE24FF2487010A
:10078000EFEFF0E06E2F679566276795902F9F77C4
:10079000D794DD24D7948E2F8695492F462B582F3A
:1007A0005D29B701CA011F910F91FF90EF90DF9073
:1007B0000895FC01DB01408151812281622F6F7716
:1007C00070E0221F2227221F9381892F880F822BFE
:1007D000282F30E0991F9927991F11969C93119704
:1007E00021153105A9F5411551056105710511F472
:1007F00082E037C082E89FEF13969C938E93129706
:100800009A01AB0167E0220F331F441F551F6A9501
:10081000D1F783E08C930DC0220F331F441F551F67
:1008200012968D919C911397019713969C938E939A
:100830001297203080E0380780E0480780E45807AE
:1008400058F314962D933D934D935C931797089509
:100850002F3F310579F4411551056105710519F4F2
:1008600084E08C93089564FF03C081E08C9312C0F0
:100870001C9210C02F57304013963C932E93129722
:1008800083E08C9387E0440F551F661F771F8A957E
:10089000D1F7706414964D935D936D937C93179785
:1008A00008951092F3011092F2011092F10110924A
:1008B000F001199B11C084EF91E020E931E0F901CA
:1008C0003197F1F70197D9F7199B06C081E090E0C5
:1008D0009093F3018093F201189B11C084EF91E093
:1008E00020E931E0F9013197F1F70197D9F7189B29
:1008F00006C081E090E09093F1018093F0010895AB
:10090000EBE6F0E08081816080838081826080837B
:10091000E8E6F0E0808181608083E9E6F0E08081B4
:1009200081608083789408951F920F920FB60F9282
:1009300011248F939F931092F3011092F201109261
:10094000F1011092F001199B06C081E090E09093B4
:10095000F3018093F201189B06C081E090E0909330
:10096000F1018093F0019F918F910F900FBE0F9036
:100970001F90189584B58D7F84BD85B5877F85BD13
:1009800085B5856085BD85B58D7F85BDEEE6F0E0DA
:1009900080818160808378940895CF92DF92EF9276
:1009A000FF920F931F9380918A0190918B0162E0D7
:1009B00070E00E94A5187B0185E090E0E80EF91E2A
:1009C000C0902402D09025028091860190918701E9
:1009D00062E070E00E94A518882777FD8095982F27
:1009E0000E940D14F6016083718382839383002734
:1009F000F7FC0095102FC801B7010E940D14F601F5
:100A0000648375838683978381E082871F910F912A
:100A1000FF90EF90DF90CF9008950F931F938C017C
:100A2000DC016D917D918D919C910E94DA13FB0107
:100A3000D80114964D915D916D917C91179780919D
:100A40002202909123028E179F0744F52091AA015C
:100A500080911A0290911B02821B91098E179F07A9
:100A6000ECF0CB01BA010E94DA1380912A02909136
:100A70002B028617970794F430E02091AB01809108
:100A8000200290912102821B9109861797070CF48E
:100A900031E081E03827232F30E002C020E030E051
:100AA000C9011F910F9108956F927F928F929F922B
:100AB000AF92BF92CF92DF92EF92FF920F931F936C
:100AC000CF93DF930091240210912502C801A5DF86
:100AD000892BE9F060902A0270902B0282E090E06E
:100AE000680E791EA0902002B0902102ECEFFFEF7B
:100AF000AE0EBF1E8090220290902302880E991E97
:100B0000C0901A02D0901B02CE0EDF1E14C0A0901F
:100B10008A01B0908B010894A108B108C0908601A9
:100B2000D09087010894C108D1083AE0632E712C57
:100B300022E0822E912C8091920190919301892B39
:100B400021F091E0E92EF12C39C0C0911602D0912C
:100B5000170287EB91E09C878B878091120290911E
:100B60001302892BB9F0F80180819181A281B381B0
:100B700088839983AA83BB836481758186819781E9
:100B800020E030E040E850E40E9472136C837D83E3
:100B90008E839F83B501882777FD8095982F0E94CB
:100BA0000D149B01AC01F8016481758186819781E8
:100BB0000E94BD1418162CF4EE24FF24C0E0D0E0EF
:100BC00004C0EE24FF24C1E0D0E080919201909116
:100BD0009301019709F040C0C0911602D09117020D
:100BE00081EB91E09C878B87809112029091130298
:100BF000892BC1F0F801608171818281938120E0AD
:100C000030E040E850E40E947213688379838A835D
:100C10009B83F80184819581A681B7818C839D8314
:100C2000AE83BF83B601882777FD8095982F0E94F9
:100C30000D149B01AC01F801608171818281938167
:100C40000E94BD1418161CF4EE24FF2403C081E09A
:100C5000E82EF12CC0E0D0E08091920190919301B8
:100C6000029709F040C0C0911602D091170284EBA0
:100C700091E09C878B878091120290911302892BBF
:100C8000B9F0F80180819181A281B3818883998331
:100C9000AA83BB83648175818681978120E030E0DF
:100CA00040E850E40E9471136C837D838E839F83A0
:100CB000B301882777FD8095982F0E940D149B0122
:100CC000AC01F80164817581868197810E94D613F9
:100CD00088232CF4EE24FF24C0E0D0E004C0EE24EE
:100CE000FF24CFEFDFEF8091920190919301039762
:100CF00009F040C0C0911602D09117028EEA91E02F
:100D00009C878B878091120290911302892BC1F0EE
:100D1000F801608171818281938120E030E040E8B8
:100D200050E40E947113688379838A839B83F8015E
:100D300084819581A681B7818C839D83AE83BF8397
:100D4000B401882777FD8095982F0E940D149B0190
:100D5000AC01F80160817181828193810E94D61378
:100D600088231CF4EE24FF2403C0EE24EA94FE2C16
:100D7000C0E0D0E0C80151DE892B09F481C0F80140
:100D800060817181828193810E94DA13F80124814C
:100D90003581468157818091F0019091F101892B35
:100DA00099F08091F2019091F301892B69F0C616B8
:100DB000D70654F484E090E0C80ED91EB601882707
:100DC00077FD8095982F18C08091F0019091F101E6
:100DD000892BD1F08091F2019091F301892BA1F040
:100DE000681579058CF48CEF9FEF880E991EB4017D
:100DF000882777FD8095982F0E940D14F801608355
:100E00007183828393833CC0CA01B9010E94DA13C3
:100E10008091F0019091F101892B99F08091F2017C
:100E20009091F301892B69F06615770554F48CEFE6
:100E30009FEF680E791EB301882777FD8095982F64
:100E400018C08091F0019091F101892BC9F0809137
:100E5000F2019091F301892B99F0A616B70684F45C
:100E600084E090E0A80EB91EB501882777FD809533
:100E7000982F0E940D14F8016483758386839783ED
:100E8000B701882777FD8095982F0E940D149B014C
:100E9000AC01F80160817181828193810E9472139B
:100EA000F8016083718382839383BE01882777FD75
:100EB0008095982F0E940D149B01AC01F80164816C
:100EC0007581868197810E947213F801648375830E
:100ED00086839783DF91CF911F910F91FF90EF90C1
:100EE000DF90CF90BF90AF909F908F907F906F904A
:100EF0000895EF92FF920F931F93CF93DF9380910A
:100F000086019091870162E070E00E94A518162F7B
:100F100080918A0190918B0162E070E00E94A51897
:100F2000062F10920F0210920E020E94C1145CEE66
:100F3000F52EF10E80E091E06F2D402F0E943317C7
:100F40000E944817AEDCC1E0D0E047EEE42EE10E8F
:100F5000102F195042C00E94C1148091F20190914B
:100F6000F301892B11F4C1E0D0E08091F001909160
:100F7000F1018091F2019091F301892B89F0209782
:100F800079F080910E0290910F02019662E070E07C
:100F90000E94A51890930F0280930E02C0E0D0E04B
:100FA00080910E0290910F02892B49F489E091E023
:100FB0006E2D412F0E94331780E091E008C089E038
:100FC00091E06E2D412F0E94331785E191E06F2D46
:100FD000402F0E9433170E9448178091F001909192
:100FE000F101892B09F4B7CFDF91CF911F910F91B8
:100FF000FF90EF90089520912A0280912202622FA3
:1010000040911A020E94FC14209120028091220239
:10101000622F40911A020E94FC1440912202842FF8
:1010200060912A02209120020E94FC1440911A0231
:10103000842F60912A02209120020C94FC140F93BB
:101040001F9380E068E04091880128E00E94FC1432
:1010500080E068E040E020918C010E94FC14409107
:101060008801842F68E020918C010E94FC1420915B
:101070008C0180E0622F409188010E94FC148EE177
:1010800091E060E040E00E9433178091AC01805D08
:101090006BE040E00E94E31682E291E065E140E00F
:1010A0000E9433170091100210911102C8016AE0EA
:1010B00070E00E94A518805D65E240E00E94E316A2
:1010C000C8016AE070E00E94A518862F805D6FE17C
:1010D00040E00E94E3168091920190919301805D1F
:1010E0006EE440E00E94E316809124029091250274
:1010F00094DC805D66E440E00E94E3161F910F914E
:1011000008951F93CF93DF9313E3C0E9D1E00E94CA
:10111000C11486E291E062E046E10E943317812F1C
:101120006BE446E10E94E3160E94481780E197E2D3
:10113000FE013197F1F70197D9F71150103339F7C4
:10114000DF91CF911F9108955E9A84B18C6084B92C
:1011500020E030E002C02F5F3F4F8091F20190917C
:10116000F301892B31F48091F0019091F101892BE9
:1011700091F3C9010E944F191BB80895EF92FF9295
:101180000F931F938C017B010E944C19E01AF10A06
:101190000894E11CF11CB7010E94A5189C01200FC6
:1011A000311FC9011F910F91FF90EF9008958F9209
:1011B0009F92AF92BF92CF92DF92EF92FF920F93E6
:1011C0001F93609186017091870182E090E0D6DFE5
:1011D0007C0160918A0170918B0189E090E0CEDF03
:1011E0005C0180901C0290901D020027F7FC009586
:1011F000102FC801B7010E940D14F40160837183A0
:1012000082839383CC24B7FCC094DC2CC601B50147
:101210000E940D14F401648375838683978381E0B3
:1012200082871F910F91FF90EF90DF90CF90BF903A
:10123000AF909F908F9008958F929F92AF92BF92A0
:10124000CF92DF92EF92FF920F931F9360918601EE
:101250007091870182E090E091DF7C0160918A01CA
:1012600070918B0189E090E089DF5C01809016022B
:10127000909017020027F7FC0095102FC801B701C6
:101280000E940D14F4016083718382839383CC24C4
:10129000B7FCC094DC2CC601B5010E940D14F4010A
:1012A000648375838683978381E082871F910F9182
:1012B000FF90EF90DF90CF90BF90AF909F908F9076
:1012C0000895EF92FF920F931F9386E090E06CE0F9
:1012D00070E054DF8C0186E090E06CE070E04EDF5F
:1012E0007C0160918801709189016451704084E1B2
:1012F00090E044DF9093230280932202800F911F9D
:1013000090931B0280931A0260918C0170918D0161
:10131000645170408DE190E031DF90932B02809317
:101320002A028E0D9F1D909321028093200263DE7E
:101330001F910F91FF90EF9008952F923F924F923F
:101340005F926F927F928F929F92AF92BF92CF9255
:10135000DF92EF92FF920F931F93DF93CF9300D012
:1013600000D000D0CDB7DEB7809186019091870183
:1013700062E070E00E94A5186D837E8380918A01EF
:1013800090918B0162E070E00E94A5181B0185E03E
:1013900090E0280E391EACE2B2E0BA83A9832D0199
:1013A00066247724ED81FE813A97FC83EB8331C07C
:1013B00081E090E06B817C81E1DEA82E60918A0162
:1013C00070918B016150704089E090E0D7DEE82E8B
:1013D000D2018D909D902D01BB24CC24DD24C6012B
:1013E000B5010E940B14F40160837183828393839F
:1013F000FF2400E010E0C801B7010E940B14D401E3
:1014000014966D937D938D939C9317970894611C0C
:10141000711C8091A8019091A90164E070E00E9484
:10142000A5186616770624F2662477244D805E8020
:10143000EAE0F0E04E0E5F1E3EC0609186017091C2
:101440008701C2019BDEA82E60918A0170918B01F9
:101450006150704089E090E091DEE82E8091A80113
:101460009091A90164E070E00E94A518FB01E60DCF
:10147000F71DEE0FFF1FE45DFD4F80809180BB24C0
:10148000CC24DD24C601B5010E940B14D4016D9358
:101490007D938D939C931397FF2400E010E0C80187
:1014A000B7010E940B14F4016483758386839783CC
:1014B0000894611C711C8091A8019091A90164E0BD
:1014C00070E00E94A518661677060CF4B6CF442487
:1014D0005524B6EF6B2EBFEF7B2E620C731C3AC007
:1014E000609186017091870181E090E047DEE82EEF
:1014F00089E090E0B30142DEA82E8091A80190918E
:10150000A90162E070E00E94A518FB01E40DF51D41
:10151000EE0FFF1FE45DFD4F80809180FF2400E00F
:1015200010E0C801B7010E940B14D4016D937D93A4
:101530008D939C931397BB24CC24DD24C601B50165
:101540000E940B14F4016483758386839783089447
:10155000411C511C8091A8019091A90164E070E0A8
:101560000E94A518461657060CF4BACF44245524F9
:10157000EAE06E2E712C620C731C41C060918601F2
:101580007091870181E090E0F9DDE82E60918A0199
:1015900070918B01C301F2DDA82E2091A80130913A
:1015A000A901C901880F991F820F931F64E070E0A1
:1015B0000E94A518FB01E40DF51DEE0FFF1FE45D71
:1015C000FD4F80809180FF2400E010E0C801B7014A
:1015D0000E940B14D4016D937D938D939C9313976C
:1015E000BB24CC24DD24C601B5010E940B14F401F8
:1015F00064837583868397830894411C511C809172
:10160000A8019091A90164E070E00E94A518461617
:1016100057060CF4B3CF04E911E066247724EE24D6
:10162000E3941DC080E090E063E070E0A7DDD801A6
:101630008D939C938091080290910902892B29F443
:10164000A981BA81ED91FC91E2860894611C711C1C
:101650000E5F1F4FE981FA813296FA83E983809108
:10166000A8019091A90168167906E4F226960FB6B2
:10167000F894DEBF0FBECDBFCF91DF911F910F91C8
:10168000FF90EF90DF90CF90BF90AF909F908F90A2
:101690007F906F905F904F903F902F9008952F9282
:1016A0003F924F925F926F927F928F929F92AF92F2
:1016B000BF92CF92DF92EF92FF920F931F93DF932F
:1016C000CF9300D000D0CDB7DEB72CE232E03A8322
:1016D000298364E9662E61E0762E44245524CC24C7
:1016E000DD2422243324FCC081E090E064E670E035
:1016F00045DD863091056CF4F3018081918101977D
:101700009183808397FF12C023E030E031832083F0
:101710000DC08036910554F0F301808191810196CE
:1017200064E070E00E94A51891838083E981FA81CA
:10173000A080B180C50171D9892BF1F0E0902A0217
:10174000F0902B0222E030E0E20EF31E2091200206
:101750003091210224503040809022029090230248
:1017600082E090E0880E991EE0911A02F0911B022F
:101770003497FC83EB8313C020918A0130918B0155
:1017800021503040809186019091870101979C8380
:101790008B835AE0E52EF12C42E0842E912CF3014C
:1017A0000081118101151105C1F4B901882777FD68
:1017B0008095982F0E940D149B01AC01F501648166
:1017C0007581868197810E94BD1418160CF451C052
:1017D0004424552491E0C92ED12C01301105B1F4D7
:1017E0002B813C81B901882777FD8095982F0E9435
:1017F0000D149B01AC01F50160817181828193819F
:101800000E94BD1418160CF474C017C002301105E4
:10181000C9F4B701882777FD8095982FFED79B01E3
:10182000AC01F5016481758186819781BFD787FD01
:1018300020C0CC24CA94DC2C5EC081E0482E512C00
:10184000CC24DD2403301105C1F4B401882777FDD1
:101850008095982FE2D79B01AC01F50160817181E1
:1018600082819381A3D787FD04C044244A94542CD9
:1018700002C044245524CC24DD24B201882777FDFE
:101880008095982FCAD79B01AC01F50160817181C9
:101890008281938127D7F50160837183828393834B
:1018A000E981FA8101911191FA83E983B6018827D0
:1018B00077FD8095982FB1D79B01AC01F801648129
:1018C0007581868197810ED7F8016483758386833D
:1018D00097830894211C311C22E030E0620E731EB5
:1018E0008091A8019091A901281639060CF4FCCE2C
:1018F00005C0CC24DD2444245524BFCF0F900F9085
:101900000F900F90CF91DF911F910F91FF90EF906B
:10191000DF90CF90BF90AF909F908F907F906F900F
:101920005F904F903F902F9008951F920F920FB6A7
:101930000F9211242F933F934F935F936F937F9355
:101940008F939F93AF93BF93EF93FF93A89A809148
:10195000FC019091FD0101969093FD018093FC01A3
:101960008091FC019091FD0105970CF488C0809155
:10197000060290910702892B09F481C01092FD01A3
:101980001092FC018091FE019091FF0101969093CD
:10199000FF018093FE012091FE013091FF018091B3
:1019A000A6019091A7018217930734F58091000258
:1019B0009091010201969093010280930002809120
:1019C000040290910502019690930502809304020F
:1019D00080910A0290910B02892B49F080910202BA
:1019E0009091030201969093030280930202109259
:1019F000FF011092FE0153DE8091000290910102DE
:101A000006976CF010920102109200028091100271
:101A1000909111020196909311028093100280918F
:101A200002029091030220E030E0049714F021E0DC
:101A300030E0809114029091150228233923232B42
:101A400071F0109203021092020210920B02109297
:101A50000A0281E090E090930D0280930C02809145
:101A600004029091050204974CF0E0912602F09157
:101A700027021286109205021092040215D8FF91D7
:101A8000EF91BF91AF919F918F917F916F915F91F6
:101A90004F913F912F910F900FBE0F901F9018956F
:101AA00084B18C6084B9569A8BB18BB9289A80E83E
:101AB00080936100109261008FE30E947A1761D7D2
:101AC0000E9480040E94BA045CD786E391E064E03F
:101AD00040E00E94331786E491E062E049E00E9412
:101AE000331787E591E066E14CE10E9433170E94CD
:101AF00048172ADB0E945104FCD980910E02909174
:101B00000F02019731F484E090E09093A701809355
:101B1000A601F7DA83E090E09093AD018093AC01E9
:101B200010921102109210028091A8019091A901C7
:101B30009093A5018093A40108950F931F93CF93D1
:101B4000DF93C0918601D091870100918A011091A5
:101B50008B0188E893E120E931E0F9013197F1F751
:101B60000197D9F70ED7CE0162E070E00E94A51868
:101B7000262F2151C80162E070E00E94A518462F6F
:101B800080E691E0622F0E9433170E94481788E98F
:101B90009AE320E931E0F9013197F1F70197D9F79C
:101BA0007FDF0E94CD04C9DB8CDB46DB1092130281
:101BB00010921202FCDA1092150210921402109286
:101BC0000B0210920A0210920D0210920C02DF9189
:101BD000CF911F910F9108952F923F924F925F9254
:101BE0006F927F928F929F92AF92BF92CF92DF922D
:101BF000EF92FF920F931F93DF93CF93CDB7DEB792
:101C00002E970FB6F894DEBF0FBECDBF8091860130
:101C10009091870162E070E00E94A5186A87809128
:101C20008A0190918B0162E070E00E94A5186D839B
:101C30000091240210912502D8016D917D918D9122
:101C40009C91BDD56C83F8016481758186819781F3
:101C5000B6D56B830091160210911702D8016D91D1
:101C60007D918D919C91A6D57B01F8016481758150
:101C7000868197819FD55B0100911C0210911D0206
:101C8000D8016D917D918D919C9194D57A836983D2
:101C9000F8012480358046805780ECE2CE2EE2E0C9
:101CA000DE2E882499243C81232F30E03F832E832D
:101CB0005B81452F50E05987488770E9672E71E0B6
:101CC000772E8A8589518A87F6C0D6010D90BC91FE
:101CD000A02DBE87AD8714966D917D918D919C91BD
:101CE00017976DD5162FED85FE85608171818281F4
:101CF000938165D570E0E02FF0E09B012E1B3F0B38
:101D00003C872B872E153F05C4F5CB018E0F9F1FF7
:101D1000E816F90694F5212F30E08091AB01482FA9
:101D200050E0C901841B950B8A159B0534F5240FDF
:101D3000351FA216B3060CF5809112029091130282
:101D4000892BD9F0AD85BE851A968C911A97813072
:101D5000A1F41A961C9280911002909111020196A2
:101D600090931102809310028091A4019091A5019B
:101D700001979093A5018093A4012E813F814B850B
:101D80005C85421753070CF08FC06E0F7F1F26171C
:101D900037070CF089C0612F70E08091AB01282FCC
:101DA00030E0CB01821B930BA885B9858A179B076E
:101DB0000CF07AC0620F731FA617B7070CF074C03F
:101DC000D601ED91FC918285813009F06DC01092B1
:101DD0000702109206028091AC019091AD01181695
:101DE000190674F588EB9BE0F3013197F1F7019741
:101DF000D9F7C7D589E691E060E04D810E9433179D
:101E00000E94481788E99AE3F3013197F1F70197A7
:101E1000D9F78091AC019091AD0101979093AD01FC
:101E20008093AC010E94CD04E1E0F0E0F093090260
:101E3000E093080282DA10920902109208021CC094
:101E400088EB9BE0F3013197F1F70197D9F799D52A
:101E50008BE791E06A854D810E9433170E944817F5
:101E600088E99AE3F3013197F1F70197D9F718DE82
:101E70000E94CD0462DA25DADFD9109213021092A3
:101E8000120295D9109215021092140210920B02B0
:101E900010920A0210920D0210920C0221E030E022
:101EA00030930702209306020894811C911C42E0A3
:101EB00050E0C40ED51E8091A8019091A901009117
:101EC000AA01881699060CF400CF5C81652F70E09A
:101ED000402F50E0C701841B950B86179707ECF441
:101EE000E40EF51E6E157F05C4F48B81E82FF0E03B
:101EF0008091AB01282F30E0C501821B930B8E1718
:101F00009F075CF42A0D3B1DE217F30734F481E0D0
:101F100090E0909313028093120289819A81841B2E
:101F2000950B8617970774F5A981BA814A0F5B1F35
:101F3000641775073CF5C201B1013CD4AB01BB810C
:101F40006B2F70E08091AB01282F30E0CA01821B1B
:101F5000930B86179707B4F4240F351F6217730786
:101F60008CF48091140290911502892B59F481E030
:101F700090E09093150280931402E0911C02F0917E
:101F80001D0212862E960FB6F894DEBF0FBECDBF8F
:101F9000CF91DF911F910F91FF90EF90DF90CF9045
:101FA000BF90AF909F908F907F906F905F904F9079
:101FB0003F902F9008952F923F924F925F926F9291
:101FC0007F928F929F92AF92BF92CF92DF92EF92C9
:101FD000FF920F931F93DF93CF93CDB7DEB7C35913
:101FE000D0400FB6F894DEBF0FBECDBF2DB73EB7C1
:101FF000C557DF4F39832883CB58D04051DDC1D43A
:1020000047D7DE011196E0EEF1E083E001900D92FA
:102010008150E1F7DE011496EDEDF1E083E00190EF
:102020000D928150E1F72091AA0180918601909153
:102030008701821B910990938701809386014091CB
:10204000AB0120918A0130918B01241B310930931F
:102050008B0120938A0162E070E00E94A518C357AB
:10206000DF4F6883CD58D040C90162E070E00E9424
:10207000A5184B0145E050E0840E951E2091A80163
:102080003091A90185E190E0DC012A9FC0012B9FDE
:10209000900D3A9F900D1124EDB7FEB7E81BF90B98
:1020A0000FB6F894FEBF0FBEEDBF6DB67EB60894B6
:1020B000611C711CC357DF4F1881CD58D040BCE262
:1020C000AB2EB2E0BB2ECC24DD24A5E12A2E312C90
:1020D000F4E04F2E512C4C0E5D1E19C0C29CC00165
:1020E000C39C900DD29C900D1124860D971DD50197
:1020F0008D939D935D01612F482D2091AA01009140
:10210000AB0172012AD70894C11CD11C1D5F8091BC
:10211000A8019091A901C816D90604F3CE0107962B
:1021200090931702809316029E01245E3F4F3093D6
:102130001F0220931E0266EF46EF2091AA01009134
:10214000AB01EEEAEE2EE1E0FE2E07D780911E02F3
:1021500090911F0266EF46EF2091AA010091AB011A
:1021600074EBE72E71E0F72EF8D6CE01C19690936E
:102170001D0280931C029E012A5B3F4F309329026F
:102180002093280266EF46EF2091AA010091AB014F
:102190005AEBE52E51E0F52EE0D680912802909181
:1021A000290266EF46EF2091AA010091AB01D5D636
:1021B000CE01855A9F4F909327028093260266EFA7
:1021C00046EF20E100E13DEBE32E31E0F32EC5D6F2
:1021D000E0912602F091270281E082878091260219
:1021E00090912702EAD60E94D70826D8A6D869D8A7
:1021F000CE0180599F4F9093250280932402C357AC
:10220000DF4F6881CD58D040482D2091AA01009120
:10221000AB017E010894E11CF11C9FD68091240241
:1022200090912502CAD61CE2E12E12E0F12E00E0C8
:1022300010E007C0F701819191917F01BED60F5F39
:102240001F4F8091A8019091A9010817190794F3D5
:102250001FD688EE93E020E931E0F9013197F1F7DC
:102260000197D9F781E090E09093070280930602EE
:10227000C757DF4F99838883C958D040C957DF4F6C
:1022800099838883C758D040FEC17BD38091F201E7
:102290009091F301892B41F421E030E0C757DF4FE3
:1022A00039832883C958D0408091F0019091F10181
:1022B000892B41F441E050E0C957DF4F59834883EF
:1022C000C758D0408091F2019091F301892B19F108
:1022D000C757DF4F88819981C958D040892BD9F0E1
:1022E0008091920190919301019790939301809333
:1022F0009201809192019091930197FF06C0A3E013
:10230000B0E0B0939301A0939201C757DF4F1982B9
:102310001882C958D0408091F0019091F101C957BD
:10232000DF4FE881F981C758D0408E239F23892B46
:1023300091F08091920190919301019664E070E098
:1023400004D79093930180939201C957DF4F19826C
:102350001882C758D0408091F0019091F1012091EE
:10236000F2013091F30128233923809114029091D6
:10237000150228233923232B41F1E0911C02F0910F
:102380001D022091240230912502D9014D915D91C9
:102390006D917C911397408351836283738314966C
:1023A0002D913D914D915C91179724833583468300
:1023B0005783B1E0B2871092030210920202E1E06B
:1023C000F0E0F0930B02E0930A0280910C029091EE
:1023D0000D02892B09F4D4C000911C0210911D023A
:1023E000D8016D917D918D919C91E4D15B01F801B3
:1023F0006481758186819781DDD14B012091A8018F
:102400003091A901CB57DF4F39832883C558D0407D
:10241000BCE24B2EB2E05B2E66247724A5014A5025
:102420005040C257DF4F59834883CE58D040C50132
:102430000D96C057DF4F99838883C059D040D4018F
:102440001A97CE56DF4FB983A883C259D040ADE06A
:102450002A2E312C280C391C53C0F2010081118125
:10246000D8011496CD90DD90ED90FC9017976D916A
:102470007D918D919C91A3D170E0C257DF4FE8818F
:10248000F981CE58D040E617F7079CF5C057DF4FCB
:1024900028813981C059D0406217730754F5C701AC
:1024A000B6018DD170E0CE56DF4F48815981C259B7
:1024B000D04046175707ECF462157305D4F4D801E1
:1024C0001A968C911A978130A1F41A961C928091D9
:1024D00010029091110201969093110280931002C4
:1024E0008091A4019091A50101979093A5018093FB
:1024F000A4010894611C711CE2E0F0E04E0E5F1E26
:10250000CB57DF4F28813981C558D04062167306FA
:102510000CF4A3CF00912602109127024DEF5FEF3C
:10252000A40EB51EB501882777FD8095982F75D12B
:10253000D8016D937D938D939C931397EDEFFFEFEF
:102540008E0E9F1EB401882777FD8095982F65D148
:10255000D80114966D937D938D939C931797E1E02A
:102560001A96EC9310920502109204021092150232
:102570001092140210920D0210920C020E94D708C1
:10258000809124029091250218D580911C0290918F
:102590001D0213D580911602909117020ED58091DD
:1025A000120290911302E0911E02F0911F02892BFA
:1025B00089F020E030E044E352E420833183428319
:1025C000538380E090E0A0E0B0E084839583A6830D
:1025D000B7830CC020E030E040E251EC208331832F
:1025E000428353832483358346835783CF01E5D4C5
:1025F0008091140290911502E0912802F091290235
:10260000892BC1F080E090E0A4E3B2E48083918361
:10261000A283B38320E030E040EA50E42483358392
:102620004683578331E032878091280290912902B6
:10263000C4D401C012868091260290912702BDD495
:10264000FCE2EF2EF2E0FF2E00E010E007C0D70121
:102650008D919D917D01B1D40F5F1F4F8091A80195
:102660009091A9010817190794F30E94FB070E9493
:102670001F080ED4B1DA8091A4019091A50118161B
:1026800019060CF05ADA8091060290910702892B04
:1026900009F0FBCD80E090E0C557DF4FE881F9817C
:1026A000CB58D0400FB6F894FEBF0FBEEDBFCD564D
:1026B000DF4F0FB6F894DEBF0FBECDBFCF91DF91D5
:1026C0001F910F91FF90EF90DF90CF90BF90AF9050
:1026D0009F908F907F906F905F904F903F902F9042
:1026E00008955058BB27AA270ED00DC1FED030F058
:1026F00003D120F031F49F3F11F41EF4F3C00EF427
:10270000E095E7FBE9C0E92F0FD180F3BA17620724
:1027100073078407950718F071F49EF527C10EF42E
:10272000E0950B2EBA2FA02D0B01B90190010C01E1
:10273000CA01A0011124FF27591B99F0593F50F4F9
:10274000503E68F11A16F040A22F232F342F442751
:10275000585FF3CF469537952795A795F040539549
:10276000C9F77EF41F16BA0B620B730B840BBAF019
:102770009150A1F0FF0FBB1F661F771F881FC2F784
:102780000EC0BA0F621F731F841F48F48795779598
:102790006795B795F7959E3F08F0B3CF9395880F4F
:1027A00008F09927EE0F97958795089571D008F452
:1027B00081E0089504D06894B111D9C00895BCD0C7
:1027C00088F09F5790F0B92F9927B751A0F0D1F01A
:1027D000660F771F881F991F1AF0BA95C9F712C0A4
:1027E000B13081F0C3D0B1E00895C0C0672F782F19
:1027F0008827B85F39F0B93FCCF386957795679510
:10280000B395D9F73EF490958095709561957F4F7B
:102810008F4F9F4F0895E89409C097FB3EF4909521
:102820008095709561957F4F8F4F9F4F9923A9F0A9
:10283000F92F96E9BB279395F69587957795679538
:10284000B795F111F8CFFAF4BB0F11F460FF1BC07C
:102850006F5F7F4F8F4F9F4F16C0882311F096E90F
:1028600011C0772321F09EE8872F762F05C06623BD
:1028700071F096E8862F70E060E02AF09A95660F76
:10288000771F881FDAF7880F9695879597F908952F
:10289000990F0008550FAA0BE0E8FEEF1616170671
:1028A000E807F907C0F012161306E407F50798F0D9
:1028B000621B730B840B950B39F40A2661F0232BF2
:1028C000242B252B21F408950A2609F4A140A6956E
:1028D0008FEF811D811D089597F99F6780E870E053
:1028E00060E008959FEF80EC089500240A94161686
:1028F000170618060906089500240A9412161306EE
:10290000140605060895092E0394000C11F488237B
:1029100052F0BB0F40F4BF2B11F460FF04C06F5F97
:102920007F4F8F4F9F4F089557FD9058440F551F6D
:1029300059F05F3F71F04795880F97FB991F61F041
:102940009F3F79F087950895121613061406551FB8
:10295000F2CF4695F1DF08C0161617061806991F24
:10296000F1CF86957105610508940895E894BB2719
:1029700066277727CB0197F908958ADF08F48FEF50
:102980000895EEE3F2E0119284E0E633F807D9F718
:102990000895843580F5603370F5262F26952695A9
:1029A0002695677090E0442399F0E4E52E9FF001AE
:1029B0001124E80FF91FE25CFD4F81E090E002C0B6
:1029C000880F991F6A95E2F72081282B20830895AC
:1029D000E4E52E9FF0011124E80FF91FE25CFD4FA2
:1029E00081E090E002C0880F991F6A95E2F7809518
:1029F00020812823208308952F923F924F925F9247
:102A00006F927F928F929F92AF92BF92CF92DF92FE
:102A1000EF92FF920F931F93DF93CF93CDB7DEB763
:102A200066970FB6F894DEBF0FBECDBFC82ED62E68
:102A300049872A87841759F4162F05C08C2D612FDA
:102A400041E0A7DF1F5F2A852117C0F7A3C13A85A0
:102A5000631759F4182F05C0812F6D2D41E099DFC0
:102A60001F5F49854117C0F795C15A85652F70E0F2
:102A700080E090E0D0DE7B018C018D2D90E09C8782
:102A80008B87FC01BF01882777FD8095982FC5DED5
:102A90009B01AC01C801B70124DE1B012C01F985A3
:102AA0006F2F70E080E090E0B6DE7B018C01AC2CF3
:102AB000BB24B501882777FD8095982FAEDE9B015A
:102AC000AC01C801B7010DDE3B014C01C201B101EF
:102AD000A40193010E945B027B018C012985C2162F
:102AE00008F038C020E030E040E85FE346DF181629
:102AF00024F471E0C72ED12C37C1C801B70120E002
:102B000030E040E85FE352DE181664F0C801B70118
:102B100020E030E040E050E030DF18161CF4CC2418
:102B2000DD2450C0C801B70120E030E040E050E0B3
:102B30003DDE18160CF411C1C801B70120E030E0E9
:102B400040E85FEB1ADF18160CF007C167E0C62EED
:102B5000D12C38C020E030E040E85FE30EDF1816EB
:102B600024F455E0C52ED12CFFC0C801B70120E0E8
:102B700030E040E85FE31ADE18166CF0C801B701D8
:102B800020E030E040E050E0F8DE181624F444E0A5
:102B9000C42ED12C17C0C801B70120E030E040E0BE
:102BA00050E004DE18160CF4DCC0C801B70120E0C8
:102BB00030E040E85FEBE1DE18160CF0D2C033E005
:102BC000C32ED12C4B855C855A834983BE82AD824E
:102BD0009985892F90E09C838B8317012801E1E080
:102BE000F0E0F887EF83F7E0CF16D10428F423E074
:102BF000C216D10440F404C037E0C316D10429F44E
:102C000081E090E002C08FEF9FEFAD80BE800F2E7D
:102C1000F0E06F2EF0E07F2EF0E08F2EF0E09F2EA0
:102C2000F02DA201910150582D873E874F87588B78
:102C30009C01442737FD4095542F298B3A8B4B8BB1
:102C40005C8B7AC04F815885452B19F08A2D69819C
:102C500002C089816A2D41E09CDEC201B10120E001
:102C600030E040E050E089DE88231CF0A2019101B1
:102C700004C02D853E854F855889C401B30132DDDE
:102C80003B014C0120E030E040E05FE376DE1816C7
:102C90000CF044C069897A898B899C89BEDD9B01CF
:102CA000AC01C201B1010E9464017B018C011E8A4A
:102CB0001D8A20E030E040E050E05FDE181624F48A
:102CC00081E090E09E8B8D8BCC24DD24C801B70180
:102CD00020E030E040E050E069DD88231CF421E092
:102CE000C22ED12CED89FE89EC19FD09319739F4FA
:102CF00029813A812F5F3F4F3A83298306C049815A
:102D00005A81415050405A834983C401B30120E0A5
:102D100030E040E85FE3E5DC3B014C018B819C81C6
:102D2000ED81FE81E817F90720F40894A11CB11C7D
:102D300003C00894A108B1082B813C814D815E81BC
:102D40004217530720F42A153B0520F17BCF8B81D6
:102D50009C81A816B906F0F075CF96E0C92ED12C4B
:102D600003C082E0C82ED12CC401B301A20191019D
:102D70000E945B021B012C01BA82A982EB85FC85B3
:102D8000FE83ED833A85232F30E03C832B83188626
:102D90001F8229CF66960FB6F894DEBF0FBECDBF57
:102DA000CF91DF911F910F91FF90EF90DF90CF9027
:102DB000BF90AF909F908F907F906F905F904F905B
:102DC0003F902F9008958F929F92AF92BF92CF9293
:102DD000DF92EF92FF920F931F93CF93DF93D62E44
:102DE000C42E95E0899FC00111248C01045F1F4F00
:102DF000F1E08F2E912CE1E1AE2EE0E0BE2EA80E88
:102E0000B91E1DC06C2D6C0FA4010C2E02C0440F06
:102E1000551F0A94E2F74E215F210C2E02C05595F2
:102E200047950A94E2F78D2DB4DD2196C830D1057F
:102E300049F70F5F1F4FD3940A151B0539F0C0E007
:102E4000D0E0F8018491E82EFF24DCCFDF91CF9110
:102E50001F910F91FF90EF90DF90CF90BF90AF90B8
:102E60009F908F9008950F931F93CF93DF93EC0162
:102E7000162F042F05C0612F402FA5DF21961B5F61
:102E800088818823C1F7DF91CF911F910F91089519
:102E9000CF93DF9380E060E055D0CEE3D2E081E0D5
:102EA000699107D084E0C633D807C9F7DF91CF9185
:102EB000089595B18295880F807E9F7D982B95B956
:102EC0005F9827E030E070E08F98CB01022E02C0BF
:102ED000959587950A94E2F780FF02C02E9A01C06B
:102EE0002E988F9A215030408FEF2F3F380761F78F
:102EF0005F9A08951F93182F579A249A259A269A15
:102F0000879A2C985F9A2C9A80E061E2D2DF106851
:102F100080E0612FCEDF80E064E0CBDF80E063E122
:102F2000C8DF80E06CE0C5DF80E060E2C2DF80E007
:102F30006CE0BFDF80E060E4BCDF80E060E8B9DF28
:102F40001F9108951F93182F606480E0B2DF10680E
:102F500080E0612FAEDF1F9108958F929F92AF9214
:102F6000BF92CF92DF92EF92FF920F931F934C018B
:102F7000A42E122F70E080E090E04DDCF40160831D
:102F8000718382839383BB24CC24DD24C601B501E5
:102F900042DCF401648375838683978310870187FD
:102FA000F486E3861F910F91FF90EF90DF90CF9012
:102FB000BF90AF909F908F9008952F923F924F9225
:102FC0005F927F928F929F92AF92BF92CF92DF9249
:102FD000EF92FF920F931F93DF93CF9300D000D017
:102FE000CDB7DEB72C01DC011A968C91882309F449
:102FF00096C0222433241A82198287C0E981FA817B
:10300000BF01882777FD8095982F07DCD2011496A1
:103010002D913D914D915C91179764DB5B016C01A3
:1030200020E030E040E050E0C1DB87FD68C0C60131
:10303000B50120E030E040E452E49FDC87FF6FC040
:103040001C821B8245C0D2011B96ED91FC911C97FE
:10305000E20DF31D7080EB81FC81BF01882777FDB5
:103060008095982FDADBD2012D913D914D915C91A5
:1030700039DB7B018C0120E030E040E050E07DDC7A
:103080008823CCF0C801B70120E030E048EA52E4E0
:103090008DDB882384F4782071F0C801B7018FDBC1
:1030A0007B018C01C601B5018ADB9B01AC018E2D31
:1030B000622F41E06EDCEB81FC813196FC83EB8377
:1030C000CF0187709070892B39F40894211C311C32
:1030D00090E8892E912C02C095948794D20118967D
:1030E0008C9190E0EB81FC81E817F9070CF4ABCFF1
:1030F00087709070892B19F00894211C311C29814C
:103100003A812F5F3F4F3A832983D20119968C91E0
:1031100090E0E981FA81E817F9070CF46FCF0F907E
:103120000F900F900F90CF91DF911F910F91FF9013
:10313000EF90DF90CF90BF90AF909F908F907F9057
:103140005F904F903F902F90089597FB092E072690
:103150000AD077FD04D00CD006D000201AF4709568
:1031600061957F4F0895F6F7909581959F4F08954B
:10317000AA1BBB1B51E107C0AA1FBB1FA617B7079D
:1031800010F0A61BB70B881F991F5A95A9F78095B9
:103190009095BC01CD0108952F923F924F925F927E
:1031A0006F927F928F929F92AF92BF92CF92DF9257
:1031B000EF92FF920F931F93CF93DF93CDB7DEB7BC
:1031C000CA1BDB0B0FB6F894DEBF0FBECDBF099450
:1031D0002A88398848885F846E847D848C849B84A7
:1031E000AA84B984C884DF80EE80FD800C811B81B5
:1031F000AA81B981CE0FD11D0FB6F894DEBF0FBEE4
:10320000CDBFED010895A0E0B0E0E8E0F9E1CCCF5A
:10321000EC01A880B980CA80DB80A114B104C1048C
:10322000D10441F484E2A82E89EDB82E8BE5C82E96
:1032300087E0D82EC601B5012DE133EF41E050E023
:1032400058D027EA31E440E050E034D07B018C01D3
:10325000C601B5012DE133EF41E050E04AD0CA018B
:10326000B9012CEE34EF4FEF5FEF24D06E0D7F1DD0
:10327000801F911F97FF04C06150704080409048AC
:10328000688379838A839B839B013F77C901CDB78C
:10329000DEB7EAE0A5CFB7CF8BEE91E0B4CFA0E0E8
:1032A000B0E08093EB019093EC01A093ED01B0931B
:1032B000EE010895629FD001739FF001829FE00D9F
:1032C000F11D649FE00DF11D929FF00D839FF00DA5
:1032D000749FF00D659FF00D9927729FB00DE11D51
:1032E000F91F639FB00DE11DF91FBD01CF0111242E
:1032F000089597FB092E05260ED057FD04D014D053
:103300000AD0001C38F450954095309521953F4FD8
:103310004F4F5F4F0895F6F79095809570956195A2
:103320007F4F8F4F9F4F0895A1E21A2EAA1BBB1B00
:10333000FD010DC0AA1FBB1FEE1FFF1FA217B30781
:10334000E407F50720F0A21BB30BE40BF50B661F97
:10335000771F881F991F1A9469F76095709580955B
:1033600090959B01AC01BD01CF010895F894FFCF6A
:103370005374616E64617264004469666669637562
:103380006C74793A00416476616E636564004C3A0E
:103390002000533A200047616D65205374617274B8
:1033A00020496E3A20005A6F6D6269654461736806
:1033B0002076312E30004C6163686C616E20526F54
:1033C00062696E736F6E006E383834353430390090
:1033D000596F752057494E2100546F7563686564B5
:1033E0002041205A6F6D626965210047616D65203B
:1033F0004F5645522100530053002F002F00080064
:1034000008000100010000000000000000000000B2
:10341000000000000800090008000303030020E08A
:103420002080E0804040E0E0404040A040C1836117
:1034300086318C318C19980DB007E0FFFFFFFF0734
:10344000E00DB01998318C318C6186C183E040E089
:10345000A0E0A0000000000000000001000000004B
:00000001FF
