:1000000045C1000060C100005EC100005CC100008D
:100010005AC1000058C1000056C1000054C1000080
:1000200052C1000081C400004EC100004CC100005C
:100030004AC1000048C1000046C1000044C10000A0
:1000400042C1000040C100003EC100003CC10000B0
:100050003AC1000038C1000036C100000C94890B81
:1000600032C1000030C100002EC100002CC10000D0
:100070002AC1000028C1000026C1000024C10000E0
:1000800022C1000020C100001EC100001CC10000F0
:100090001AC1000018C1000016C1000014C1000000
:1000A00012C1000010C100000EC1000000000000DD
:1000B0000000005F00000007000700147F147F1499
:1000C000242A7F2A122313086462364955225000DD
:1000D00005030000001C2241000041221C001408FE
:1000E0003E081408083E08080050300000080808C0
:1000F0000808006060000020100804023E514945D5
:100100003E00427F400042615149462141454B310A
:100110001814127F1027454545393C4A494930019A
:10012000710905033649494936064949291E0036F1
:100130003600000056360000081422410014141442
:100140001414004122140802015109063249794170
:100150003E7E1111117E7F494949363E414141227F
:100160007F4141221C7F494949417F090909013EDC
:100170004149497A7F0808087F00417F41002040BB
:10018000413F017F081422417F404040407F020CE4
:10019000027F7F0408107F3E4141413E7F090909EB
:1001A000063E4151215E7F09192946464949493198
:1001B00001017F01013F4040403F1F2040201F3F81
:1001C0004038403F63140814630708700807615102
:1001D000494543007F41410002040810200041418D
:1001E0007F0004020102044040404040000102043C
:1001F0000020545454787F484444383844444420C0
:10020000384444487F3854545418087E0901020C7D
:100210005252523E7F0804047800447D4000204042
:10022000443D007F1028440000417F40007C0418BA
:1002300004787C0804047838444444387C1414144A
:1002400008081414187C7C080404084854545420EA
:10025000043F4440203C4040207C1C2040201C3C6B
:100260004030403C44281028440C5050503C4464DA
:10027000544C44000836410000007F000000413625
:1002800008001008081008784641467811241FBE5F
:10029000CFEFDAE0DEBFCDBF11E0A0E0B1E0EEE4E9
:1002A000FAE202C005900D92A03AB107D9F713E027
:1002B000A0EAB1E001C01D92A03DB107E1F70E94A4
:1002C0004C0D0C9425159CCEA0E2B0E0EAE6F1E0DE
:1002D0000C943B1469837A838B839C832D833E83A8
:1002E0004F835887CE010196BE01675F7F4F61D271
:1002F000CE010596BE016F5E7F4F5BD2998592302D
:1003000088F089898230C8F0943019F4823051F431
:1003100004C0843029F4923081F483E991E0C6C0AE
:10032000923049F420E09A858A89981321E02A873F
:10033000CE010996BBC0823049F420E09A858A89B3
:10034000981321E02A8BCE014196B0C02D843E84C3
:100350004F8458886D887E888F88988CEE24FF247F
:100360008701AA24BB24650140E050E060E070E012
:10037000E0E0F0E0C10181709070892BE9F0E60CBB
:10038000F71C081D191D9A01AB012A0D3B1D4C1DC0
:100390005D1D80E090E0A0E0B0E0E614F704080501
:1003A000190520F481E090E0A0E0B0E0BA01A901D5
:1003B000480F591F6A1F7B1FAA0CBB1CCC1CDD1CDD
:1003C00097FE08C081E090E0A0E0B0E0A82AB92A3A
:1003D000CA2ADB2A3196E032F10549F0660C771C17
:1003E000881C991C5694479437942794C3CFFA8558
:1003F000EA892B893C898B859C85280F391F2E5FC4
:100400003F4F17C0CA0181709070892B61F016951B
:100410000795F794E79480E090E0A0E0B0E8E82A40
:10042000F92A0A2B1B2B76956795579547952F5FD1
:100430003F4F77FDE7CF0CC0440F551F661F771F56
:1004400017FD4160EE0CFF1C001F111F21503040B2
:10045000403090E0590790E0690790E4790760F335
:100460002B8F3C8FDB01CA018F779070A070B0702A
:1004700080349105A105B10561F447FD0AC0E1147E
:10048000F1040105110529F0405C5F4F6F4F7F4F6C
:1004900040781A8EFE1711F081E08A8F4D8F5E8FA3
:1004A0006F8F78A383E0898FCE014996ADD0A09657
:1004B000E2E10C945714A8E1B0E0E1E6F2E00C941C
:1004C000431469837A838B839C832D833E834F837C
:1004D0005887B9E0EB2EF12CEC0EFD1ECE010196F3
:1004E000B70167D18E010F5E1F4FCE010596B8018F
:1004F00060D12985223008F47EC03989323010F469
:10050000B8017CC08A859A8989278A87243011F0AE
:10051000223031F4231709F06EC063E971E06EC038
:10052000343039F41D861E861F86188A1C861B8669
:1005300004C0323021F484E08987B7015FC02B8585
:100540003C858B899C89281B390B3C872B87ED8444
:10055000FE840F851889AD88BE88CF88D88CEA14B0
:10056000FB040C051D0540F4EE0CFF1C001F111FC1
:10057000215030403C872B8720E030E040E050E0C5
:1005800080E090E0A0E0B0E460E070E0EA14FB04FA
:100590000C051D0540F0282B392B4A2B5B2BEA1844
:1005A000FB080C091D09B695A79597958795EE0C44
:1005B000FF1C001F111F6F5F7F4F6F31710531F7F7
:1005C000DA01C9018F779070A070B0708034910506
:1005D000A105B10561F427FD0AC0E114F10401058C
:1005E000110529F0205C3F4F4F4F5F4F20782D873A
:1005F0003E874F87588BBE01675F7F4FCB0104D08A
:100600006896EAE00C945F14DF92EF92FF920F93EA
:100610001F93FC01E480F58006811781D1808081E1
:10062000823048F480E090E0A0E1B0E0E82AF92AC6
:100630000A2B1B2BA5C0843009F49FC0823021F403
:10064000EE24FF24870105C0E114F1040105110522
:1006500019F4E0E0F0E096C0628173819FEF6238A8
:1006600079070CF05BC022E83FEF261B370B2A31DD
:1006700031052CF020E030E040E050E02AC0B80125
:10068000A701022E04C076956795579547950A9461
:10069000D2F781E090E0A0E0B0E004C0880F991F9D
:1006A000AA1FBB1F2A95D2F70197A109B1098E2174
:1006B0009F21A023B1230097A105B10521F081E07E
:1006C00090E0A0E0B0E09A01AB01282B392B4A2B37
:1006D0005B2BDA01C9018F779070A070B070803405
:1006E0009105A105B10539F427FF09C0205C3F4FF2
:1006F0004F4F5F4F04C0215C3F4F4F4F5F4FE0E0D3
:10070000F0E02030A0E03A07A0E04A07A0E45A0752
:1007100010F0E1E0F0E079018A0127C0603871054E
:1007200064F5FB01E158FF4FD801C7018F77907046
:10073000A070B07080349105A105B10539F4E7FED1
:100740000DC080E490E0A0E0B0E004C08FE390E052
:10075000A0E0B0E0E80EF91E0A1F1B1F17FF05C03E
:1007600016950795F794E794319687E016950795C7
:10077000F794E7948A95D1F705C0EE24FF2487010A
:10078000EFEFF0E06E2F679566276795902F9F77C4
:10079000D794DD24D7948E2F8695492F462B582F3A
:1007A0005D29B701CA011F910F91FF90EF90DF9073
:1007B0000895FC01DB01408151812281622F6F7716
:1007C00070E0221F2227221F9381892F880F822BFE
:1007D000282F30E0991F9927991F11969C93119704
:1007E00021153105A9F5411551056105710511F472
:1007F00082E037C082E89FEF13969C938E93129706
:100800009A01AB0167E0220F331F441F551F6A9501
:10081000D1F783E08C930DC0220F331F441F551F67
:1008200012968D919C911397019713969C938E939A
:100830001297203080E0380780E0480780E45807AE
:1008400058F314962D933D934D935C931797089509
:100850002F3F310579F4411551056105710519F4F2
:1008600084E08C93089564FF03C081E08C9312C0F0
:100870001C9210C02F57304013963C932E93129722
:1008800083E08C9387E0440F551F661F771F8A957E
:10089000D1F7706414964D935D936D937C93179785
:1008A00008951092A3011092A2011092A10110923A
:1008B000A001199B11C084EF91E020E931E0F9011A
:1008C0003197F1F70197D9F7199B06C081E090E0C5
:1008D0009093A3018093A201189B11C084EF91E033
:1008E00020E931E0F9013197F1F70197D9F7189B29
:1008F00006C081E090E09093A1018093A00108954B
:10090000EBE6F0E08081816080838081826080837B
:10091000E8E6F0E0808181608083E9E6F0E08081B4
:1009200081608083789408951F920F920FB60F9282
:1009300011248F939F931092A3011092A201109201
:10094000A1011092A001199B06C081E090E0909354
:10095000A3018093A201189B06C081E090E09093D0
:10096000A1018093A0019F918F910F900FBE0F90D6
:100970001F90189584B58D7F84BD85B5877F85BD13
:1009800085B5856085BD85B58D7F85BDEEE6F0E0DA
:1009900080818160808378940895CF92DF92EF9276
:1009A000FF920F931F93809163019091640162E025
:1009B00070E00E9414147B0185E090E0E80EF91EBF
:1009C000C090C201D090C30180915F0190916001FD
:1009D00062E070E00E941414882777FD8095982FBC
:1009E0000E947C0FF60160837183828393830027CA
:1009F000F7FC0095102FC801B7010E947C0FF6018B
:100A000064837583868397831F910F91FF90EF9086
:100A1000DF90CF9008950F931F938C01DC016D91AF
:100A20007D918D919C910E94490FFB01D8011496F4
:100A30004D915D916D917C9117978091C00190913E
:100A4000C1018E179F0744F520917D018091BA0165
:100A50009091BB01821B91098E179F07ECF0CB018F
:100A6000BA010E94490F8091C4019091C501861777
:100A7000970794F430E020917E018091BE0190911F
:100A8000BF01821B9109861797070CF431E081E0C2
:100A90003827232F30E002C020E030E0C9011F9149
:100AA0000F9108956F927F928F929F92AF92BF9213
:100AB000CF92DF92EF92FF920F931F93CF93DF932A
:100AC0000091C2011091C301C801A5DF892BE9F093
:100AD0006090C4017090C50182E090E0680E791EBC
:100AE000A090BE01B090BF01ECEFFFEFAE0EBF1EB5
:100AF0008090C0019090C101880E991EC090BA01EB
:100B0000D090BB01CE0EDF1E14C0A0906301B09048
:100B100064010894A108B108C0905F01D090600101
:100B20000894C108D1083AE0632E712C22E0822E8D
:100B3000912C80916B0190916C01892B21F091E0B7
:100B4000E92EF12C39C0C091B601D091B7018AE8E5
:100B500091E09C878B878091B4019091B501892B9E
:100B6000B9F0F80180819181A281B3818883998352
:100B7000AA83BB83648175818681978120E030E000
:100B800040E850E40E94E10E6C837D838E839F8356
:100B9000B501882777FD8095982F0E947C0F9B01D7
:100BA000AC01F80164817581868197810E942C10C7
:100BB00018162CF4EE24FF24C0E0D0E004C0EE248C
:100BC000FF24C1E0D0E080916B0190916C0101970E
:100BD00009F040C0C091B601D091B70184E891E01E
:100BE0009C878B878091B4019091B501892BC1F0CE
:100BF000F801608171818281938120E030E040E8DA
:100C000050E40E94E10E688379838A839B83F80114
:100C100084819581A681B7818C839D83AE83BF83B8
:100C2000B601882777FD8095982F0E947C0F9B0145
:100C3000AC01F80160817181828193810E942C1046
:100C400018161CF4EE24FF2403C081E0E82EF12CDA
:100C5000C0E0D0E080916B0190916C01029709F0A7
:100C600040C0C091B601D091B70187E891E09C8760
:100C70008B878091B4019091B501892BB9F0F8016F
:100C800080819181A281B38188839983AA83BB8368
:100C9000648175818681978120E030E040E850E4EE
:100CA0000E94E00E6C837D838E839F83B30188272F
:100CB00077FD8095982F0E947C0F9B01AC01F80175
:100CC00064817581868197810E94450F88232CF469
:100CD000EE24FF24C0E0D0E004C0EE24FF24CFEFD8
:100CE000DFEF80916B0190916C01039709F040C098
:100CF000C091B601D091B70181E891E09C878B87C4
:100D00008091B4019091B501892BC1F0F801608107
:100D100071818281938120E030E040E850E40E94BC
:100D2000E00E688379838A839B83F80184819581AF
:100D3000A681B7818C839D83AE83BF83B40188274E
:100D400077FD8095982F0E947C0F9B01AC01F801E4
:100D500060817181828193810E94450F88231CF4F8
:100D6000EE24FF2403C0EE24EA94FE2CC0E0D0E081
:100D7000C80151DE892B09F481C0F80160817181BD
:100D8000828193810E94490FF80124813581468137
:100D900057818091A0019091A101892B99F08091B8
:100DA000A2019091A301892B69F0C616D70654F4CD
:100DB00084E090E0C80ED91EB601882777FD8095A3
:100DC000982F18C08091A0019091A101892BD1F09A
:100DD0008091A2019091A301892BA1F0681579055A
:100DE0008CF48CEF9FEF880E991EB401882777FD55
:100DF0008095982F0E947C0FF80160837183828315
:100E000093833CC0CA01B9010E94490F8091A0019F
:100E10009091A101892B99F08091A2019091A30159
:100E2000892B69F06615770554F48CEF9FEF680EF7
:100E3000791EB301882777FD8095982F18C080917F
:100E4000A0019091A101892BC9F08091A2019091FC
:100E5000A301892B99F0A616B70684F484E090E0EC
:100E6000A80EB91EB501882777FD8095982F0E949E
:100E70007C0FF8016483758386839783B701882785
:100E800077FD8095982F0E947C0F9B01AC01F801A3
:100E9000608171818281938194D7F801608371832D
:100EA00082839383BE01882777FD8095982F0E94C7
:100EB0007C0F9B01AC01F80164817581868197816B
:100EC00080D7F8016483758386839783DF91CF9100
:100ED0001F910F91FF90EF90DF90CF90BF90AF9058
:100EE0009F908F907F906F9008952091C401809182
:100EF000C001622F4091BA010E946B102091BE0187
:100F00008091C001622F4091BA010E946B10409104
:100F1000C001842F6091C4012091BE010E946B101A
:100F20004091BA01842F6091C4012091BE010C94BC
:100F30006B1080E068E04091610128E00E946B1036
:100F400080E068E040E0209165010E946B104091D4
:100F50006101842F68E0209165010E946B1020914F
:100F6000650180E0622F409161010E946B1080E07A
:100F700091E060E040E00E94A21280917F01805DDC
:100F80006BE040E00E94521284E091E065E140E0B5
:100F90000E94A2128091B201805D6FE140E00E9448
:100FA000521280916B0190916C01805D6EE440E083
:100FB0000E9452128091C2019091C3012CDD805D8C
:100FC0006CE340E00C9452121F93CF93DF9313E332
:100FD000C0E9D1E00E94301088E091E062E046E193
:100FE0000E94A212812F6BE446E10E9452120E94DD
:100FF000B71280E197E2FE013197F1F70197D9F737
:101000001150103339F7DF91CF911F9108955E9AF7
:1010100084B18C6084B920E030E002C02F5F3F4F84
:101020008091A2019091A301892B31F48091A001BC
:101030009091A101892B91F3C9010E94BE141BB8A4
:101040000895EF92FF920F931F938C017B010E94F2
:10105000BB14E01AF10A0894E11CF11CB7010E94CC
:1010600014149C01200F311FC9011F910F91FF9093
:10107000EF9008958F929F92AF92BF92CF92DF929E
:10108000EF92FF920F931F9360915F017091600147
:1010900082E090E0D6DF7C01609163017091640191
:1010A00089E090E0CEDF5C018090B6019090B701BE
:1010B0000027F7FC0095102FC801B7011DD7F401D8
:1010C0006083718382839383CC24B7FCC094DC2C2F
:1010D000C601B50111D7F4016483758386839783B4
:1010E0001F910F91FF90EF90DF90CF90BF90AF9046
:1010F0009F908F900895EF92FF920F931F9386E039
:1011000090E06CE070E09DDF8C0186E090E06CE0A8
:1011100070E097DF7C016091610170916201645120
:10112000704084E190E08DDF9093C1018093C00115
:10113000800F911F9093BB018093BA01609165016C
:1011400070916601645170408DE190E07ADF909378
:10115000C5018093C4018E0D9F1D9093BF018093A4
:10116000BE01C3DE1F910F91FF90EF9008952F9263
:101170003F924F925F926F927F928F929F92AF9227
:10118000BF92CF92DF92EF92FF920F931F93CF9374
:10119000DF9380915F019091600162E070E00E94B6
:1011A00014144B01809163019091640162E070E03E
:1011B0000E9414141B0156EF452E5FEF552E480C6C
:1011C000591C81E090E0B2013CDFA82E60916301E0
:1011D000709164016150704089E090E032DFE82E48
:1011E0006090C6017090C701BB24CC24DD24C601E9
:1011F000B50180D6F3016083718382839383FF24DA
:1012000000E010E0C801B70175D6F301648375836F
:101210008683978381E090E0B20113DFA82E60916E
:101220006301709164016150704089E090E009DFD2
:10123000E82E6090C8017090C901BB24CC24DD2445
:10124000C601B50157D6F30160837183828393830E
:10125000FF2400E010E0C801B7014CD6F30164831D
:101260007583868397838AE090E0880E991E60914B
:101270005F0170916001C401E4DEA82E60916301FA
:10128000709164016150704089E090E0DADEE82EF0
:101290006090CA017090CB01BB24CC24DD24C60130
:1012A000B50128D6F3016083718382839383FF2481
:1012B00000E010E0C801B7011DD6F3016483758317
:1012C0008683978360915F0170916001C401B9DEEC
:1012D000A82E60916301709164016150704089E0B3
:1012E00090E0AFDEE82E8090CC019090CD01BB2441
:1012F000CC24DD24C601B501FDD5F40160837183E2
:1013000082839383FF2400E010E0C801B701F2D587
:10131000F401648375838683978360915F01709184
:10132000600181E090E08DDEE82E4BEF642E4FEF00
:10133000742E620C731C89E090E0B30182DEA82E4B
:101340008090CE019090CF01FF2400E010E0C80112
:10135000B701D0D5F4016083718382839383BB246A
:10136000CC24DD24C601B501C5D5F40164837583A1
:101370008683978360915F017091600181E090E0C6
:1013800060DEE82E89E090E0B3015BDEA82E80905D
:10139000D0019090D101FF2400E010E0C801B70116
:1013A000A9D5F4016083718382839383BB24CC2409
:1013B000DD24C601B5019ED5F4016483758386835F
:1013C000978360915F017091600181E090E039DE68
:1013D000A82E8FE090E0280E391E60916301709175
:1013E0006401C1012EDEE82E8090D2019090D301DD
:1013F000BB24CC24DD24C601B5017CD5F401608377
:10140000718382839383FF2400E010E0C801B70159
:1014100071D5F401648375838683978360915F013E
:101420007091600181E090E00CDEE82E6091630134
:1014300070916401C10105DEA82E8090D4019090C6
:10144000D501FF2400E010E0C801B70153D5F40135
:101450006083718382839383BB24CC24DD24C60103
:10146000B50148D5F4016483758386839783C0E012
:10147000D0E011E080E090E063E070E0E2DDFE01AA
:10148000E359FE4F91838083FE01EA53FE4F0190A2
:10149000F081E02D12872296C031D10559F7DF91F6
:1014A000CF911F910F91FF90EF90DF90CF90BF9061
:1014B000AF909F908F907F906F905F904F903F90F4
:1014C0002F9008952F923F924F925F926F927F924A
:1014D0008F929F92AF92BF92CF92DF92EF92FF9244
:1014E0000F931F93CF93DF93A6EC2A2EA1E03A2E01
:1014F000FDE66F2EF1E07F2E44245524CC24DD241C
:1015000081E090E064E670E09CDD863091055CF45B
:10151000F3018081918101979183808397FF10C0AF
:1015200083E090E00BC08036910554F0F301808198
:101530009181019664E070E00E941414918380838D
:10154000F101A080B180C50166DA892BD1F000914C
:10155000C4011091C5010E5F1F4F2091BE01309153
:10156000BF01245030408090C0019090C10182E0C2
:1015700090E0880E991EC091BA01D091BB012497CA
:1015800010C0209163013091640121503040C0911E
:101590005F01D09160012197E2E08E2E912C0AE04C
:1015A00010E0F301E080F180E114F104B1F4B9013D
:1015B000882777FD8095982F9FD49B01AC01F5017A
:1015C000648175818681978147D518160CF450C0C7
:1015D0004424552471E0C72ED12CF1E0EF16F1041C
:1015E00091F4BE01882777FD8095982F85D49B01C3
:1015F000AC01F50160817181828193812DD518162E
:101600000CF46FC018C0F2E0EF16F104C9F4B80191
:10161000882777FD8095982F6FD49B01AC01F50149
:10162000648175818681978130D487FD21C0CC2467
:10163000CA94DC2C58C061E0462E512CCC24DD2409
:10164000F3E0EF16F104C1F4B401882777FD80952B
:10165000982F52D49B01AC01F50160817181828188
:10166000938113D487FD04C044244A94542C02C0AF
:1016700044245524CC24DD24B201882777FD8095AD
:10168000982F3AD49B01AC01F50160817181828170
:10169000938197D3F5016083718382839383F101F2
:1016A000019111911F01B601882777FD8095982F30
:1016B00023D49B01AC01F8016481758186819781F7
:1016C00080D3F801648375838683978382E090E0FA
:1016D000680E791E96ED291691E0390609F010CFB3
:1016E00005C0CC24DD2444245524C6CFDF91CF91FE
:1016F0001F910F91FF90EF90DF90CF90BF90AF9030
:101700009F908F907F906F905F904F903F902F9021
:1017100008951F920F920FB60F9211242F933F93AB
:101720004F935F936F937F938F939F93AF93BF93E9
:10173000EF93FF93A89A8091AC019091AD0101962F
:101740009093AD018093AC018091AC019091AD017B
:101750000597FCF08091B0019091B101892BC9F0FF
:101760001092AD011092AC018091AE019091AF0149
:1017700001969093AF018093AE018091AE0190915C
:10178000AF010A972CF01092AF011092AE019ADED1
:1017900089D9FF91EF91BF91AF919F918F917F91E7
:1017A0006F915F914F913F912F910F900FBE0F90CE
:1017B0001F90189584B18C6084B9569A8BB18BB9FF
:1017C000289AE1E6F0E080E8808310828FE301D779
:1017D00047D496D8CFD844D488E191E064E040E083
:1017E000B1D688E291E062E049E0ACD689E391E0CD
:1017F00066E14CE1A7D6BBD60ADC53D8E5DB83E033
:1018000090E09093800180937F0108952F923F9202
:101810004F925F926F927F928F929F92AF92BF9200
:10182000CF92DF92EF92FF920F931F93CF93DF93AC
:1018300080915F019091600162E070E0F5D7662EC3
:10184000809163019091640162E070E0EDD7262EF3
:10185000C090C201D090C301D6016D917D918D9150
:101860009C911CD37B018C01F6016481758186817A
:10187000978114D3362EC090B601D090B701D6010F
:101880006D917D918D919C9104D35B01F6016481F2
:10189000758186819781FDD26B0106EC11E0FF24F2
:1018A000432C5524B0E98B2EB1E09B2EF7EE6F0E42
:1018B000D801CD91DC916C817D818E819F81EED2AA
:1018C000762E688179818A819B81E8D270E080914F
:1018D0007D01E82FF0E0DB01AE1BBF0BAA15BB05B5
:1018E00054F5CB018E0F9F1FA816B90624F5272D9E
:1018F00030E080917E01482F50E0C901841B950B98
:101900008C159D05C4F4240F351FC216D3069CF414
:101910008091B4019091B501892B69F08A8581305D
:1019200051F41A868091B2019091B301019690937F
:10193000B3018093B201AE15BF050CF06DC06E0F00
:101940007F1FE616F7060CF067C0672D70E08091E8
:101950007E01282F30E0CB01821B930B8415950567
:101960000CF05AC0620F731F461657060CF054C095
:10197000D801ED91FC918285813009F04DC0109223
:10198000B1011092B00180917F01909180011816F1
:10199000190614F588EB9BE0F4013197F1F70197F4
:1019A000D9F75ED382E491E060E0422DCBD5DFD55C
:1019B00088E99AE3F4013197F1F70197D9F780911B
:1019C0007F019091800101979093800180937F0126
:1019D0000E94CD04CCDB1AC088EB9BE0F401319768
:1019E000F1F70197D9F73CD384E591E0662D422DBC
:1019F000A9D5BDD588E99AE3F4013197F1F70197AC
:101A0000D9F7D8DE0E94CD04B2DB75DBE1E0F0E06F
:101A1000F093B101E093B0010E5F1F4FF1E0063D7E
:101A20001F0709F045CF80917D01282F30E0C501C7
:101A3000821B930B8E159F05E4F42A0D3B1DE216C5
:101A4000F306BCF4632D70E080917E01282F30E016
:101A5000C601821B930B861797075CF42C0D3D1D66
:101A60006217730734F481E090E09093B50180939E
:101A7000B401DF91CF911F910F91FF90EF90DF9014
:101A8000CF90BF90AF909F908F907F906F905F901E
:101A90004F903F902F9008952F923F924F925F92D8
:101AA0006F927F928F929F92AF92BF92CF92DF926E
:101AB000EF92FF920F931F93DF93CF93CDB7DEB7D3
:101AC000CD5ED0400FB6F894DEBF0FBECDBF72DE44
:101AD000C7D24DD5DE011196E0E9F1E083E0019037
:101AE0000D928150E1F7DE011496EDE8F1E083E01C
:101AF00001900D928150E1F780917D0120915F016D
:101B000030916001281B31093093600120935F01FF
:101B100040917E018091630190916401841B910941
:101B2000909364018093630162E070E07DD64B0185
:101B300085E090E0880E991EA6E4CA2ED12CCC0E2A
:101B4000DD1EC90162E070E06FD6562EF6ECAF2EB6
:101B5000F1E0BF2E162FE4E06E2E712C6C0E7D1E70
:101B6000F501C082D182C601612F482D20917D01EF
:101B700000917E01730160D582E090E0A80EB91E4D
:101B8000E5E1F0E0CE0EDF1E1D5FF6EDAF16F1E0F1
:101B9000BF0631F7CE0107969093B7018093B60147
:101BA0009E01245E3F4F3093BD012093BC0166EF40
:101BB00046EF20917D0100917E0171E8E72E71E0F2
:101BC000F72E3AD58091BC019091BD0166EF46EFAA
:101BD00020917D0100917E0157E8E52E51E0F52E20
:101BE0002BD548DAC4DA87DACE01C1969093C301C7
:101BF0008093C201652D482D20917D0100917E01C9
:101C00007E010894E11CF11C17D58091C2019091CE
:101C1000C30142D540EFE42E4FEFF42EEA0CFB1C3B
:101C2000F701819191917F0137D5F6EDEF16F1E043
:101C3000FF06B1F79CD488EE93E020E931E0F9018A
:101C40003197F1F70197D9F781E090E09093B101D6
:101C50008093B00101E010E031E0C32ED12C23E0ED
:101C6000222E312C0F2EF0E04F2EF0E05F2EF0E20E
:101C70006F2EF2E47F2EF02D0F2EF0E08F2EF0E08D
:101C80009F2EF0E0AF2EF0E0BF2EF02D76C0E8D111
:101C90008091A2019091A301892B11F401E010E041
:101CA0008091A0019091A101892B19F491E0C92E96
:101CB000D12C8091A2019091A301892BC1F0011533
:101CC0001105A9F080916B0190916C01019790939F
:101CD0006C0180936B0180916B0190916C0197FF77
:101CE00004C030926C0120926B0100E010E0809102
:101CF000A0019091A1018C219D21892B71F08091EF
:101D00006B0190916C01019664E070E08DD5909329
:101D10006C0180936B01CC24DD248091C2019091F1
:101D2000C301BAD48091B6019091B701B5D4809126
:101D3000B4019091B501892B71F0E091BC01F09153
:101D4000BD01408251826282738284829582A68222
:101D5000B782CF01A1D486ECE82E81E0F82EF701FE
:101D6000819191917F0198D4F6EDEF16F1E0FF0695
:101D7000B1F7BBD8DED8FBD349DD8091B00190919B
:101D8000B101892B09F083CF80E090E0C351DF4F90
:101D90000FB6F894DEBF0FBECDBFCF91DF911F917C
:101DA0000F91FF90EF90DF90CF90BF90AF909F90FA
:101DB0008F907F906F905F904F903F902F900895FD
:101DC0005058BB27AA270ED00DC1FED030F003D14A
:101DD00020F031F49F3F11F41EF4F3C00EF4E095AF
:101DE000E7FBE9C0E92F0FD180F3BA176207730749
:101DF0008407950718F071F49EF527C10EF4E0955D
:101E00000B2EBA2FA02D0B01B90190010C01CA01B4
:101E1000A0011124FF27591B99F0593F50F4503E5F
:101E200068F11A16F040A22F232F342F4427585F51
:101E3000F3CF469537952795A795F0405395C9F769
:101E40007EF41F16BA0B620B730B840BBAF0915021
:101E5000A1F0FF0FBB1F661F771F881FC2F70EC0C0
:101E6000BA0F621F731F841F48F487957795679593
:101E7000B795F7959E3F08F0B3CF9395880F08F07C
:101E80009927EE0F97958795089571D008F481E012
:101E9000089504D06894B111D9C00895BCD088F0D9
:101EA0009F5790F0B92F9927B751A0F0D1F0660F46
:101EB000771F881F991F1AF0BA95C9F712C0B13061
:101EC00081F0C3D0B1E00895C0C0672F782F882774
:101ED000B85F39F0B93FCCF3869577956795B395A0
:101EE000D9F73EF490958095709561957F4F8F4F0F
:101EF0009F4F0895E89409C097FB3EF49095809514
:101F0000709561957F4F8F4F9F4F9923A9F0F92FBF
:101F100096E9BB279395F695879577956795B7953D
:101F2000F111F8CFFAF4BB0F11F460FF1BC06F5F23
:101F30007F4F8F4F9F4F16C0882311F096E911C035
:101F4000772321F09EE8872F762F05C0662371F056
:101F500096E8862F70E060E02AF09A95660F771F6A
:101F6000881FDAF7880F9695879597F90895990F46
:101F70000008550FAA0BE0E8FEEF16161706E80753
:101F8000F907C0F012161306E407F50798F0621B74
:101F9000730B840B950B39F40A2661F0232B242B49
:101FA000252B21F408950A2609F4A140A6958FEF68
:101FB000811D811D089597F99F6780E870E060E0BA
:101FC00008959FEF80EC089500240A9416161706D2
:101FD00018060906089500240A941216130614061A
:101FE00005060895092E0394000C11F4882352F07D
:101FF000BB0F40F4BF2B11F460FF04C06F5F7F4F35
:102000008F4F9F4F089557FD9058440F551F59F01B
:102010005F3F71F04795880F97FB991F61F09F3FD5
:1020200079F087950895121613061406551FF2CFFE
:102030004695F1DF08C0161617061806991FF1CF4E
:1020400086957105610508940895E894BB27662775
:102050007727CB0197F908958ADF08F48FEF089569
:10206000E8EDF1E0119283E0E03DF807D9F708953B
:10207000843580F5603370F5262F269526952695B4
:10208000677090E0442399F0E4E52E9FF00111245D
:10209000E80FF91FE852FE4F81E090E002C0880F80
:1020A000991F6A95E2F72081282B20830895E4E5A3
:1020B0002E9FF0011124E80FF91FE852FE4F81E036
:1020C00090E002C0880F991F6A95E2F78095208101
:1020D0002823208308952F923F924F925F926F9210
:1020E0007F928F929F92AF92BF92CF92DF92EF92A8
:1020F000FF920F931F93DF93CF93CDB7DEB7669711
:102100000FB6F894DEBF0FBECDBFC82ED62E4987BE
:102110002A87841759F4162F05C08C2D612F41E0B2
:10212000A7DF1F5F2A852117C0F7A3C13A85631770
:1021300059F4182F05C0812F6D2D41E099DF1F5FE5
:1021400049854117C0F795C15A85652F70E080E039
:1021500090E0D0DE7B018C018D2D90E09C878B87F9
:10216000FC01BF01882777FD8095982FC5DE9B0174
:10217000AC01C801B70124DE1B012C01F9856F2FCA
:1021800070E080E090E0B6DE7B018C01AC2CBB24DB
:10219000B501882777FD8095982FAEDE9B01AC01B5
:1021A000C801B7010DDE3B014C01C201B101A40120
:1021B00093010E945B027B018C012985C21608F005
:1021C00038C020E030E040E85FE346DF181624F432
:1021D00071E0C72ED12C37C1C801B70120E030E033
:1021E00040E85FE352DE181664F0C801B70120E052
:1021F00030E040E050E030DF18161CF4CC24DD2441
:1022000050C0C801B70120E030E040E050E03DDEC2
:1022100018160CF411C1C801B70120E030E040E805
:102220005FEB1ADF18160CF007C167E0C62ED12C41
:1022300038C020E030E040E85FE30EDF181624F4F9
:1022400055E0C52ED12CFFC0C801B70120E030E019
:1022500040E85FE31ADE18166CF0C801B70120E011
:1022600030E040E050E0F8DE181624F444E0C42EDC
:10227000D12C17C0C801B70120E030E040E050E0A9
:1022800004DE18160CF4DCC0C801B70120E030E011
:1022900040E85FEBE1DE18160CF0D2C033E0C32E4D
:1022A000D12C4B855C855A834983BE82AD8299854A
:1022B000892F90E09C838B8317012801E1E0F0E0F7
:1022C000F887EF83F7E0CF16D10428F423E0C21695
:1022D000D10440F404C037E0C316D10429F481E0EE
:1022E00090E002C08FEF9FEFAD80BE800F2EF0E038
:1022F0006F2EF0E07F2EF0E08F2EF0E09F2EF02D7D
:10230000A201910150582D873E874F87588B9C0121
:10231000442737FD4095542F298B3A8B4B8B5C8B90
:102320007AC04F815885452B19F08A2D698102C0EA
:1023300089816A2D41E09CDEC201B10120E030E0DC
:1023400040E050E089DE88231CF0A201910104C026
:102350002D853E854F855889C401B30132DD3B018F
:102360004C0120E030E040E05FE376DE18160CF030
:1023700044C069897A898B899C89BEDD9B01AC0147
:10238000C201B1010E9464017B018C011E8A1D8A79
:1023900020E030E040E050E05FDE181624F481E0F9
:1023A00090E09E8B8D8BCC24DD24C801B70120E00A
:1023B00030E040E050E069DD88231CF421E0C22ECB
:1023C000D12CED89FE89EC19FD09319739F4298169
:1023D0003A812F5F3F4F3A83298306C049815A8152
:1023E000415050405A834983C401B30120E030E09A
:1023F00040E85FE3E5DC3B014C018B819C81ED8192
:10240000FE81E817F90720F40894A11CB11C03C051
:102410000894A108B1082B813C814D815E8142174F
:10242000530720F42A153B0520F17BCF8B819C813B
:10243000A816B906F0F075CF96E0C92ED12C03C0CE
:1024400082E0C82ED12CC401B301A20191010E94E7
:102450005B021B012C01BA82A982EB85FC85FE83FD
:10246000ED833A85232F30E03C832B8318861F822F
:1024700029CF66960FB6F894DEBF0FBECDBFCF91C1
:10248000DF911F910F91FF90EF90DF90CF90BF9061
:10249000AF909F908F907F906F905F904F903F9004
:1024A0002F9008958F929F92AF92BF92CF92DF921A
:1024B000EF92FF920F931F93CF93DF93D62EC42EEC
:1024C00095E0899FC00111248C01045F1F4FF1E04A
:1024D0008F2E912CE1E1AE2EE0E0BE2EA80EB91EAB
:1024E0001DC06C2D6C0FA4010C2E02C0440F551F93
:1024F0000A94E2F74E215F210C2E02C055954795B4
:102500000A94E2F78D2DB4DD2196C830D10549F744
:102510000F5F1F4FD3940A151B0539F0C0E0D0E0C0
:10252000F8018491E82EFF24DCCFDF91CF911F9139
:102530000F91FF90EF90DF90CF90BF90AF909F9062
:102540008F9008950F931F93CF93DF93EC01162F75
:10255000042F05C0612F402FA5DF21961B5F8881C6
:102560008823C1F7DF91CF911F910F910895CF93E9
:10257000DF9380E060E055D0C8EDD1E081E0699163
:1025800007D083E0C03DD807C9F7DF91CF91089508
:1025900095B18295880F807E9F7D982B95B95F9825
:1025A00027E030E070E08F98CB01022E02C09595B5
:1025B00087950A94E2F780FF02C02E9A01C02E98F8
:1025C0008F9A215030408FEF2F3F380761F75F9A85
:1025D00008951F93182F579A249A259A269A879A16
:1025E0002C985F9A2C9A80E061E2D2DF106880E03C
:1025F000612FCEDF80E064E0CBDF80E063E1C8DF05
:1026000080E06CE0C5DF80E060E2C2DF80E06CE08B
:10261000BFDF80E060E4BCDF80E060E8B9DF1F91ED
:1026200008951F93182F606480E0B2DF106880E087
:10263000612FAEDF1F9108958F929F92AF92BF924C
:10264000CF92DF92EF92FF920F931F934C01A42E33
:10265000122F70E080E090E04DDCF4016083718324
:1026600082839383BB24CC24DD24C601B50142DCE4
:10267000F401648375838683978310870187F486CA
:10268000E3861F910F91FF90EF90DF90CF90BF9066
:10269000AF909F908F9008952F923F924F925F92AC
:1026A0007F928F929F92AF92BF92CF92DF92EF92E2
:1026B000FF920F931F93DF93CF9300D000D0CDB73D
:1026C000DEB72C01DC011A968C91882309F496C0A0
:1026D000222433241A82198287C0E981FA81BF013A
:1026E000882777FD8095982F07DCD20114962D91CD
:1026F0003D914D915C91179764DB5B016C0120E08B
:1027000030E040E050E0C1DB87FD68C0C601B501A4
:1027100020E030E040E452E49FDC87FF6FC01C8281
:102720001B8245C0D2011B96ED91FC911C97E20DD6
:10273000F31D7080EB81FC81BF01882777FD8095B8
:10274000982FDADBD2012D913D914D915C9139DBCF
:102750007B018C0120E030E040E050E07DDC88230C
:10276000CCF0C801B70120E030E048EA52E48DDB4C
:10277000882384F4782071F0C801B7018FDB7B01D6
:102780008C01C601B5018ADB9B01AC018E2D622F45
:1027900041E06EDCEB81FC813196FC83EB83CF0161
:1027A00087709070892B39F40894211C311C90E8B3
:1027B000892E912C02C095948794D20118968C9101
:1027C00090E0EB81FC81E817F9070CF4ABCF877040
:1027D0009070892B19F00894211C311C29813A81B1
:1027E0002F5F3F4F3A832983D20119968C9190E055
:1027F000E981FA81E817F9070CF46FCF0F900F9079
:102800000F900F90CF91DF911F910F91FF90EF905C
:10281000DF90CF90BF90AF909F908F907F905F9010
:102820004F903F902F90089597FB092E07260AD0CE
:1028300077FD04D00CD006D000201AF47095619575
:102840007F4F0895F6F7909581959F4F0895AA1BA5
:10285000BB1B51E107C0AA1FBB1FA617B70710F08B
:10286000A61BB70B881F991F5A95A9F780959095BD
:10287000BC01CD0108952F923F924F925F926F92CB
:102880007F928F929F92AF92BF92CF92DF92EF9200
:10289000FF920F931F93CF93DF93CDB7DEB7CA1B81
:1028A000DB0B0FB6F894DEBF0FBECDBF09942A88AC
:1028B000398848885F846E847D848C849B84AA8454
:1028C000B984C884DF80EE80FD800C811B81AA81E1
:1028D000B981CE0FD11D0FB6F894DEBF0FBECDBFAC
:1028E000ED010895A0E0B0E0E7E7F4E1CCCFEC0122
:1028F000A880B980CA80DB80A114B104C104D104CE
:1029000041F484E2A82E89EDB82E8BE5C82E87E02D
:10291000D82EC601B5012DE133EF41E050E058D08B
:1029200027EA31E440E050E034D07B018C01C6015D
:10293000B5012DE133EF41E050E04AD0CA01B901C1
:102940002CEE34EF4FEF5FEF24D06E0D7F1D801F14
:10295000911F97FF04C06150704080409048688389
:1029600079838A839B839B013F77C901CDB7DEB70B
:10297000EAE0A5CFB7CF8BE991E0B4CFA0E0B0E01B
:1029800080939B0190939C01A0939D01B0939E0125
:102990000895629FD001739FF001829FE00DF11DA9
:1029A000649FE00DF11D929FF00D839FF00D749FC9
:1029B000F00D659FF00D9927729FB00DE11DF91F75
:1029C000639FB00DE11DF91FBD01CF0111240895D2
:1029D00097FB092E05260ED057FD04D014D00AD03F
:1029E000001C38F450954095309521953F4F4F4F3E
:1029F0005F4F0895F6F790958095709561957F4F9C
:102A00008F4F9F4F0895A1E21A2EAA1BBB1BFD01F9
:102A10000DC0AA1FBB1FEE1FFF1FA217B307E407BD
:102A2000F50720F0A21BB30BE40BF50B661F771F15
:102A3000881F991F1A9469F76095709580959095F5
:0E2A40009B01AC01BD01CF010895F894FFCFBA
:102A4E004C3A2000533A200047616D652053746163
:102A5E00727420496E3A20005A6F6D626965446146
:102A6E0073682076312E30004C6163686C616E2085
:102A7E00526F62696E736F6E006E38383435343053
:102A8E003900546F75636865642041205A6F6D621A
:102A9E006965210047616D65204F564552210053EF
:102AAE000053002F002F0008000800010001000055
:102ABE0000000000000000000000000000030303FF
:102ACE000020E02080E0804040E0E04040E040E038
:102ADE00A0E0A000000000000000000100000000C7
:00000001FF
