:1000000045C1000060C100005EC100005CC100008D
:100010005AC1000058C1000056C1000054C1000080
:1000200052C1000081C400004EC100004CC100005C
:100030004AC1000048C1000046C1000044C10000A0
:1000400042C1000040C100003EC100003CC10000B0
:100050003AC1000038C1000036C100000C944309C9
:1000600032C1000030C100002EC100002CC10000D0
:100070002AC1000028C1000026C1000024C10000E0
:1000800022C1000020C100001EC100001CC10000F0
:100090001AC1000018C1000016C1000014C1000000
:1000A00012C1000010C100000EC1000000000000DD
:1000B0000000005F00000007000700147F147F1499
:1000C000242A7F2A122313086462364955225000DD
:1000D00005030000001C2241000041221C001408FE
:1000E0003E081408083E08080050300000080808C0
:1000F0000808006060000020100804023E514945D5
:100100003E00427F400042615149462141454B310A
:100110001814127F1027454545393C4A494930019A
:10012000710905033649494936064949291E0036F1
:100130003600000056360000081422410014141442
:100140001414004122140802015109063249794170
:100150003E7E1111117E7F494949363E414141227F
:100160007F4141221C7F494949417F090909013EDC
:100170004149497A7F0808087F00417F41002040BB
:10018000413F017F081422417F404040407F020CE4
:10019000027F7F0408107F3E4141413E7F090909EB
:1001A000063E4151215E7F09192946464949493198
:1001B00001017F01013F4040403F1F2040201F3F81
:1001C0004038403F63140814630708700807615102
:1001D000494543007F41410002040810200041418D
:1001E0007F0004020102044040404040000102043C
:1001F0000020545454787F484444383844444420C0
:10020000384444487F3854545418087E0901020C7D
:100210005252523E7F0804047800447D4000204042
:10022000443D007F1028440000417F40007C0418BA
:1002300004787C0804047838444444387C1414144A
:1002400008081414187C7C080404084854545420EA
:10025000043F4440203C4040207C1C2040201C3C6B
:100260004030403C44281028440C5050503C4464DA
:10027000544C44000836410000007F000000413625
:1002800008001008081008784641467811241FBE5F
:10029000CFEFDAE0DEBFCDBF11E0A0E0B1E0EAE4ED
:1002A000F2E202C005900D92A439B107D9F713E02C
:1002B000A4E9B1E001C01D92A83BB107E1F70E949B
:1002C000C1090C9423119CCEA0E2B0E0EAE6F1E073
:1002D0000C94391069837A838B839C832D833E83AE
:1002E0004F835887CE010196BE01675F7F4F61D271
:1002F000CE010596BE016F5E7F4F5BD2998592302D
:1003000088F089898230C8F0943019F4823051F431
:1003100004C0843029F4923081F487E891E0C6C0AB
:10032000923049F420E09A858A89981321E02A873F
:10033000CE010996BBC0823049F420E09A858A89B3
:10034000981321E02A8BCE014196B0C02D843E84C3
:100350004F8458886D887E888F88988CEE24FF247F
:100360008701AA24BB24650140E050E060E070E012
:10037000E0E0F0E0C10181709070892BE9F0E60CBB
:10038000F71C081D191D9A01AB012A0D3B1D4C1DC0
:100390005D1D80E090E0A0E0B0E0E614F704080501
:1003A000190520F481E090E0A0E0B0E0BA01A901D5
:1003B000480F591F6A1F7B1FAA0CBB1CCC1CDD1CDD
:1003C00097FE08C081E090E0A0E0B0E0A82AB92A3A
:1003D000CA2ADB2A3196E032F10549F0660C771C17
:1003E000881C991C5694479437942794C3CFFA8558
:1003F000EA892B893C898B859C85280F391F2E5FC4
:100400003F4F17C0CA0181709070892B61F016951B
:100410000795F794E79480E090E0A0E0B0E8E82A40
:10042000F92A0A2B1B2B76956795579547952F5FD1
:100430003F4F77FDE7CF0CC0440F551F661F771F56
:1004400017FD4160EE0CFF1C001F111F21503040B2
:10045000403090E0590790E0690790E4790760F335
:100460002B8F3C8FDB01CA018F779070A070B0702A
:1004700080349105A105B10561F447FD0AC0E1147E
:10048000F1040105110529F0405C5F4F6F4F7F4F6C
:1004900040781A8EFE1711F081E08A8F4D8F5E8FA3
:1004A0006F8F78A383E0898FCE014996ADD0A09657
:1004B000E2E10C945510A8E1B0E0E1E6F2E00C9422
:1004C000411069837A838B839C832D833E834F8382
:1004D0005887B9E0EB2EF12CEC0EFD1ECE010196F3
:1004E000B70167D18E010F5E1F4FCE010596B8018F
:1004F00060D12985223008F47EC03989323010F469
:10050000B8017CC08A859A8989278A87243011F0AE
:10051000223031F4231709F06EC067E871E06EC035
:10052000343039F41D861E861F86188A1C861B8669
:1005300004C0323021F484E08987B7015FC02B8585
:100540003C858B899C89281B390B3C872B87ED8444
:10055000FE840F851889AD88BE88CF88D88CEA14B0
:10056000FB040C051D0540F4EE0CFF1C001F111FC1
:10057000215030403C872B8720E030E040E050E0C5
:1005800080E090E0A0E0B0E460E070E0EA14FB04FA
:100590000C051D0540F0282B392B4A2B5B2BEA1844
:1005A000FB080C091D09B695A79597958795EE0C44
:1005B000FF1C001F111F6F5F7F4F6F31710531F7F7
:1005C000DA01C9018F779070A070B0708034910506
:1005D000A105B10561F427FD0AC0E114F10401058C
:1005E000110529F0205C3F4F4F4F5F4F20782D873A
:1005F0003E874F87588BBE01675F7F4FCB0104D08A
:100600006896EAE00C945D10DF92EF92FF920F93F0
:100610001F93FC01E480F58006811781D1808081E1
:10062000823048F480E090E0A0E1B0E0E82AF92AC6
:100630000A2B1B2BA5C0843009F49FC0823021F403
:10064000EE24FF24870105C0E114F1040105110522
:1006500019F4E0E0F0E096C0628173819FEF6238A8
:1006600079070CF05BC022E83FEF261B370B2A31DD
:1006700031052CF020E030E040E050E02AC0B80125
:10068000A701022E04C076956795579547950A9461
:10069000D2F781E090E0A0E0B0E004C0880F991F9D
:1006A000AA1FBB1F2A95D2F70197A109B1098E2174
:1006B0009F21A023B1230097A105B10521F081E07E
:1006C00090E0A0E0B0E09A01AB01282B392B4A2B37
:1006D0005B2BDA01C9018F779070A070B070803405
:1006E0009105A105B10539F427FF09C0205C3F4FF2
:1006F0004F4F5F4F04C0215C3F4F4F4F5F4FE0E0D3
:10070000F0E02030A0E03A07A0E04A07A0E45A0752
:1007100010F0E1E0F0E079018A0127C0603871054E
:1007200064F5FB01E158FF4FD801C7018F77907046
:10073000A070B07080349105A105B10539F4E7FED1
:100740000DC080E490E0A0E0B0E004C08FE390E052
:10075000A0E0B0E0E80EF91E0A1F1B1F17FF05C03E
:1007600016950795F794E794319687E016950795C7
:10077000F794E7948A95D1F705C0EE24FF2487010A
:10078000EFEFF0E06E2F679566276795902F9F77C4
:10079000D794DD24D7948E2F8695492F462B582F3A
:1007A0005D29B701CA011F910F91FF90EF90DF9073
:1007B0000895FC01DB01408151812281622F6F7716
:1007C00070E0221F2227221F9381892F880F822BFE
:1007D000282F30E0991F9927991F11969C93119704
:1007E00021153105A9F5411551056105710511F472
:1007F00082E037C082E89FEF13969C938E93129706
:100800009A01AB0167E0220F331F441F551F6A9501
:10081000D1F783E08C930DC0220F331F441F551F67
:1008200012968D919C911397019713969C938E939A
:100830001297203080E0380780E0480780E45807AE
:1008400058F314962D933D934D935C931797089509
:100850002F3F310579F4411551056105710519F4F2
:1008600084E08C93089564FF03C081E08C9312C0F0
:100870001C9210C02F57304013963C932E93129722
:1008800083E08C9387E0440F551F661F771F8A957E
:10089000D1F7706414964D935D936D937C93179785
:1008A000089510929701109296011092950110925E
:1008B0009401199B11C084EF91E020E931E0F90126
:1008C0003197F1F70197D9F7199B06C081E090E0C5
:1008D0009093970180939601189B11C084EF91E04B
:1008E00020E931E0F9013197F1F70197D9F7189B29
:1008F00006C081E090E09093950180939401089563
:10090000EBE6F0E08081816080838081826080837B
:10091000E8E6F0E0808181608083E9E6F0E08081B4
:1009200081608083789408951F920F920FB60F9282
:1009300011248F939F931092970110929601109219
:10094000950110929401199B06C081E090E090936C
:10095000970180939601189B06C081E090E09093E8
:100960009501809394019F918F910F900FBE0F90EE
:100970001F90189584B58D7F84BD85B5877F85BD13
:1009800085B5856085BD85B58D7F85BDEEE6F0E0DA
:10099000808181608083789408950F931F93CF9313
:1009A000DF9380916B0190916C01892B19F021E00C
:1009B00030E01BC00091AA011091AB01609163016E
:1009C0007091640161507040882777FD8095982F61
:1009D00091D69B01AC01F801648175818681978174
:1009E00039D718162CF420E030E0C0E0D0E004C085
:1009F00020E030E0C1E0D0E080916B0190916C018B
:100A0000019701F50091AA011091AB0160915F017E
:100A10007091600161507040882777FD8095982F14
:100A200069D69B01AC01F80160817181828193815B
:100A300011D718161CF420E030E002C021E030E0AD
:100A4000C0E0D0E080916B0190916C010297C1F4FD
:100A5000E091AA01F091AB01648175818681978153
:100A600020E030E040E251E413D688232CF420E06B
:100A700030E0C0E0D0E004C020E030E0CFEFDFEFB6
:100A800080916B0190916C010397B1F4E091AA0100
:100A9000F091AB01608171818281938120E030E02F
:100AA00040E050E4F5D588231CF420E030E002C09B
:100AB0002FEF3FEFC0E0D0E00091AA011091AB0111
:100AC000B901882777FD8095982F14D69B01AC013A
:100AD000F801608171818281938176D5F80160830C
:100AE000718382839383BE01882777FD8095982F39
:100AF00001D69B01AC01F8016481758186819781E3
:100B000063D5F8016483758386839783DF91CF91E2
:100B10001F910F9108952F923F924F925F926F9283
:100B20007F928F929F92AF92BF92CF92DF92EF927D
:100B3000FF920F931F93CF93DF93C090AA01D090A1
:100B4000AB01F6016081718182819381A5D57B0122
:100B50008C01F60164817581868197819DD52091F4
:100B60007D01622E772420917E01822E992440906F
:100B70007F0150908001CCEAD1E0AE2CBB24C62E80
:100B8000DD2481E0282E312CE881F981E480F58094
:100B90000681178160817181828193817DD570E0AA
:100BA000CB01861997098A159B0524F5660D771DDB
:100BB000A616B706FCF4C801B7016ED570E0CB01EC
:100BC000881999098C159D05ACF4680D791DC61618
:100BD000D70684F41092A5011092A40114141504F0
:100BE0002CF43092BD012092BC0104C03092A901C6
:100BF0002092A8012296F1E0CC3BDF0729F6DF9195
:100C0000CF911F910F91FF90EF90DF90CF90BF9009
:100C1000AF909F908F907F906F905F904F903F909C
:100C20002F90089580E068E04091610128E051D65E
:100C300080E068E040E0209165014BD64091610181
:100C4000842F68E02091650144D62091650180E001
:100C5000622F409161013DD680E091E060E040E08C
:100C60000E94A00E80917F01805D6BE040E00E94B9
:100C7000500E84E091E065E140E00E94A00E80917A
:100C8000A601805D6FE140E00E94500E80916B01F3
:100C900090916C01805D66E440E00C94500E1F93CF
:100CA000CF93DF9313E3C0E9D1E0D8D588E091E09A
:100CB00062E046E10E94A00E812F6BE446E1F0D78E
:100CC0000E94B50E80E197E2FE013197F1F701979E
:100CD000D9F71150103349F7DF91CF911F91089543
:100CE0005E9A84B18C6084B920E030E002C02F5F4E
:100CF0003F4F8091960190919701892B31F480911B
:100D0000940190919501892B91F3C9010E94BC1027
:100D10001BB80895EF92FF920F931F938C017B01F4
:100D20000E94B910E01AF10A0894E11CF11CB70105
:100D30000E9412109C01200F311FC9011F910F91B9
:100D4000FF90EF9008952F923F924F925F926F9293
:100D50007F928F929F92AF92BF92CF92DF92EF924B
:100D6000FF920F931F93CF93DF9380915F01909138
:100D7000600162E070E00E9412104B0180916301FB
:100D80009091640162E070E00E9412101B0126EF56
:100D9000422E2FEF522E480C591C81E090E0B201F8
:100DA000B9DFA82E609163017091640161507040B9
:100DB00089E090E0AFDFE82E6090AC017090AD016B
:100DC000BB24CC24DD24C601B50192D4F301608399
:100DD000718382839383FF2400E010E0C801B70190
:100DE00087D4F301648375838683978381E090E0E1
:100DF000B20190DFA82E609163017091640161508F
:100E0000704089E090E086DFE82E6090AE0170903F
:100E1000AF01BB24CC24DD24C601B50169D4F301A4
:100E20006083718382839383FF2400E010E0C80114
:100E3000B7015ED4F30164837583868397838AE068
:100E400090E0880E991E60915F0170916001C4016D
:100E500061DFA82E60916301709164016150704060
:100E600089E090E057DFE82E6090B0017090B1010A
:100E7000BB24CC24DD24C601B5013AD4F301608340
:100E8000718382839383FF2400E010E0C801B701DF
:100E90002FD4F301648375838683978360915F0108
:100EA00070916001C40136DFA82E609163017091DA
:100EB00064016150704089E090E02CDFE82E809062
:100EC000B2019090B301BB24CC24DD24C601B5014E
:100ED0000FD4F4016083718382839383FF2400E045
:100EE00010E0C801B70104D4F401648375838683DC
:100EF000978360915F017091600181E090E00ADF6B
:100F0000E82E9BEF692E9FEF792E620C731C89E00F
:100F100090E0B301FFDEA82E8090B4019090B5015F
:100F2000FF2400E010E0C801B701E2D3F4016083C0
:100F3000718382839383BB24CC24DD24C601B50155
:100F4000D7D3F401648375838683978360915F01AF
:100F50007091600181E090E0DDDEE82E89E090E0B4
:100F6000B301D8DEA82E8090B6019090B701FF247F
:100F700000E010E0C801B701BBD3F40160837183C6
:100F800082839383BB24CC24DD24C601B501B0D376
:100F9000F401648375838683978360915F01709108
:100FA000600181E090E0B6DEA82E8FE090E0280E90
:100FB000391E6091630170916401C101ABDEE82EBE
:100FC0008090B8019090B901BB24CC24DD24C601E7
:100FD000B5018ED3F4016083718382839383FF24F0
:100FE00000E010E0C801B70183D3F4016483758386
:100FF0008683978360915F017091600181E090E04A
:1010000089DEE82E6091630170916401C10182DE86
:10101000A82E8090BA019090BB01FF2400E010E060
:10102000C801B70165D3F401608371838283938320
:10103000BB24CC24DD24C601B5015AD3F40164835A
:10104000758386839783CDE6D1E080E090E063E00E
:1010500070E060DE89939993F1E0CD37DF07A9F75F
:10106000DF91CF911F910F91FF90EF90DF90CF9084
:10107000BF90AF909F908F907F906F905F904F90B8
:101080003F902F9008956F927F928F929F92AF9290
:10109000BF92CF92DF92EF92FF920F931F93CF9365
:1010A000DF936CEAA62E61E0B62E5DE6C52E51E018
:1010B000D52E88249924C0E0D0E043E0642E712C22
:1010C00081E090E064E670E025DE863091056CF406
:1010D000D6018D919C911197019711969C938E93B7
:1010E00097FF0FC06D927C920CC0803691054CF03A
:1010F000F60180819181019664E070E093D791833D
:101100008083D601ED90FC90E114F104F9F4F5012F
:1011100000811181609163017091640161507040A0
:10112000882777FD8095982FE5D29B01AC01D801E7
:1011300014966D917D918D919C9117978BD3181674
:101140000CF452C088249924C1E0D0E0B1E0EB1641
:10115000F104D1F4F5010081118160915F0170917A
:10116000600161507040882777FD8095982FC2D22A
:101170009B01AC01D8016D917D918D919C916AD3B9
:1011800018160CF46CC015C0B2E0EB16F104B1F403
:10119000D501ED91FC91648175818681978120E074
:1011A00030E040E251E474D287FD1EC0CFEFDFEFA4
:1011B00058C031E0832E912CC0E0D0E0B3E0EB16B4
:1011C000F104B1F4D501ED91FC91608171818281CE
:1011D000938120E030E040E050E45AD287FD04C023
:1011E00088248A94982C02C088249924C0E0D0E0F6
:1011F000F501019111915F01B401882777FD809578
:10120000982F78D29B01AC01D8016D917D918D9181
:101210009C91DAD1F8016083718382839383BE014C
:10122000882777FD8095982F65D29B01AC01D80166
:1012300014966D917D918D919C911797C5D1F80170
:10124000648375838683978382E090E0C80ED91EFD
:101250009CEBA91691E0B90609F032CF05C0C0E0B9
:10126000D0E088249924C4CFDF91CF911F910F91B2
:10127000FF90EF90DF90CF90BF90AF909F908F90B6
:101280007F906F9008951F920F920FB60F921124C6
:101290002F933F934F935F936F937F938F939F937E
:1012A000AF93BF93EF93FF93A89A8091A001909181
:1012B000A10101969093A1018093A0018091A001CA
:1012C0009091A101059704F18091A4019091A5014D
:1012D000892BD1F01092A1011092A0018091A2015E
:1012E0009091A30101969093A3018093A201809114
:1012F000A2019091A3010A972CF01092A3011092E1
:10130000A201C1DE4ADB07DCFF91EF91BF91AF91F3
:101310009F918F917F916F915F914F913F912F910D
:101320000F900FBE0F901F90189584B18C6084B9F8
:10133000569A8BB18BB9289AE1E6F0E080E8808379
:1013400010828FE344D58AD2DBDA14DB87D28AE2BB
:1013500091E064E040E0F4D48AE391E062E049E0A7
:10136000EFD48BE491E066E14CE1EAD4FED4B8DC42
:1013700098DA95DC83E090E09093800180937F0180
:1013800008954F925F927F928F929F92AF92BF92F9
:10139000CF92DF92EF92FF920F931F93DF93CF9341
:1013A000CDB7DEB7C35CD0400FB6F894DEBF0FBE3A
:1013B000CDBFBBDF53D2D9D4DE011196E4E8F1E012
:1013C00083E001900D928150E1F7DE011496E1E88F
:1013D000F1E083E001900D928150E1F780917D0171
:1013E00020915F0130916001281B31093093600129
:1013F00020935F0140917E0180916301909164018F
:10140000841B9109909364018093630162E070E012
:1014100009D64B0185E090E0880E991E9CE1C92E0B
:10142000D12CCC0EDD1EC90162E070E0FBD5762E1A
:101430008CEAA82E81E0B82E162F04E0402E512C05
:101440004C0E5D1EF501C082D182C601612F482D70
:1014500020917D0100917E017201ECD482E090E048
:10146000A80EB91EE5E1F0E0CE0EDF1E1D5FFCEB1D
:10147000AF16F1E0BF0631F766DCCE010796909318
:10148000AB018093AA01672D482D20917D01009129
:101490007E017E010894E11CF11CCCD48091AA014C
:1014A0009091AB01F7D4B0EFEB2EBFEFFB2EEA0C1F
:1014B000FB1CF701819191917F01ECD4FCEBEF16BD
:1014C000F1E0FF06B1F751D488EE93E020E931E076
:1014D000F9013197F1F70197D9F781E090E0909306
:1014E000A5018093A40101E010E0A1E0CA2ED12C57
:1014F000F3E0AF2EB12C5BC0B1D1809196019091F9
:101500009701892B11F401E010E0809194019091F2
:101510009501892B19F4E1E0CE2ED12C8091960112
:1015200090919701892BC1F001151105A9F08091C7
:101530006B0190916C01019790936C0180936B010A
:1015400080916B0190916C0197FF04C0B0926C0187
:10155000A0926B0100E010E08091940190919501C0
:101560008C219D21892B71F080916B0190916C01F0
:10157000019664E070E056D590936C0180936B0106
:10158000CC24DD248091AA019091AB0183D47CEA24
:10159000E72E71E0F72EF701819191917F017AD4C6
:1015A000FCEBEF16F1E0FF06B1F73CDBDED38091F8
:1015B000A4019091A501892B09F09ECF1092A5015D
:1015C0001092A401F4CF5058BB27AA270ED008C10F
:1015D000F9D030F0FED020F031F49F3F11F41EF42A
:1015E000EEC00EF4E095E7FBE4C0E92F0AD180F3EA
:1015F000BA17620773078407950718F071F49EF510
:1016000022C10EF4E0950B2EBA2FA02D0B01B901CB
:1016100090010C01CA01A0011124FF27591B99F068
:10162000593F50F4503E68F11A16F040A22F232F74
:10163000342F4427585FF3CF469537952795A795C4
:10164000F0405395C9F77EF41F16BA0B620B730B6B
:10165000840BBAF09150A1F0FF0FBB1F661F771FDC
:10166000881FC2F70EC0BA0F621F731F841F48F491
:10167000879577956795B795F7959E3F08F0B3CF17
:101680009395880F08F09927EE0F97958795089501
:101690006CD008F481E00895BCD088F09F5790F09A
:1016A000B92F9927B751A0F0D1F0660F771F881F87
:1016B000991F1AF0BA95C9F712C0B13081F0C3D0A2
:1016C000B1E00895C0C0672F782F8827B85F39F040
:1016D000B93FCCF3869577956795B395D9F73EF4E6
:1016E00090958095709561957F4F8F4F9F4F08958E
:1016F000E89409C097FB3EF49095809570956195AC
:101700007F4F8F4F9F4F9923A9F0F92F96E9BB2761
:101710009395F695879577956795B795F111F8CFDD
:10172000FAF4BB0F11F460FF1BC06F5F7F4F8F4F48
:101730009F4F16C0882311F096E911C0772321F03E
:101740009EE8872F762F05C0662371F096E8862FD6
:1017500070E060E02AF09A95660F771F881FDAF72D
:10176000880F9695879597F90895990F0008550F5A
:10177000AA0BE0E8FEEF16161706E807F907C0F017
:1017800012161306E407F50798F0621B730B840B1F
:10179000950B39F40A2661F0232B242B252B21F4F9
:1017A00008950A2609F4A140A6958FEF811D811D99
:1017B000089597F99F6780E870E060E008959FEFD3
:1017C00080EC089500240A941616170618060906D8
:1017D000089500240A9412161306140605060895A7
:1017E000092E0394000C11F4882352F0BB0F40F42F
:1017F000BF2B11F460FF04C06F5F7F4F8F4F9F4F6F
:10180000089557FD9058440F551F59F05F3F71F0F0
:101810004795880F97FB991F61F09F3F79F0879557
:101820000895121613061406551FF2CF4695F1DFE0
:1018300008C0161617061806991FF1CF8695710570
:10184000610508940895E894BB2766277727CB01A4
:1018500097F908958ADF08F48FEF0895E0ECF1E03E
:10186000119283E0E83BF807D9F70895843580F5B5
:10187000603370F5262F269526952695677090E0A3
:10188000442399F0E4E52E9FF0011124E80FF91F9D
:10189000E054FE4F81E090E002C0880F991F6A95E6
:1018A000E2F72081282B20830895E4E52E9FF001A4
:1018B0001124E80FF91FE054FE4F81E090E002C0D0
:1018C000880F991F6A95E2F780952081282320834D
:1018D00008952F923F924F925F926F927F928F92D4
:1018E0009F92AF92BF92CF92DF92EF92FF920F93AF
:1018F0001F93DF93CF93CDB7DEB766970FB6F894FB
:10190000DEBF0FBECDBFC82ED62E49872A878417CB
:1019100059F4162F05C08C2D612F41E0A7DF1F5F02
:101920002A852117C0F7A3C13A85631759F4182FE8
:1019300005C0812F6D2D41E099DF1F5F498541175B
:10194000C0F795C15A85652F70E080E090E0D0DE49
:101950007B018C018D2D90E09C878B87FC01BF0162
:10196000882777FD8095982FC5DE9B01AC01C801C3
:10197000B70129DE1B012C01F9856F2F70E080E093
:1019800090E0B6DE7B018C01AC2CBB24B50188272E
:1019900077FD8095982FAEDE9B01AC01C801B701A1
:1019A00012DE3B014C01C201B101A40193010E946E
:1019B0005B027B018C012985C21608F038C020E04B
:1019C00030E040E85FE346DF181624F471E0C72EEC
:1019D000D12C37C1C801B70120E030E040E85FE317
:1019E00057DE181664F0C801B70120E030E040E08F
:1019F00050E030DF18161CF4CC24DD2450C0C801A0
:101A0000B70120E030E040E050E042DE18160CF470
:101A100011C1C801B70120E030E040E85FEB1ADFF8
:101A200018160CF007C167E0C62ED12C38C020E094
:101A300030E040E85FE30EDF181624F455E0C52ED1
:101A4000D12CFFC0C801B70120E030E040E85FE3DF
:101A50001FDE18166CF0C801B70120E030E040E04E
:101A600050E0F8DE181624F444E0C42ED12C17C040
:101A7000C801B70120E030E040E050E009DE181670
:101A80000CF4DCC0C801B70120E030E040E85FEBB7
:101A9000E1DE18160CF0D2C033E0C32ED12C4B85FA
:101AA0005C855A834983BE82AD829985892F90E0F7
:101AB0009C838B8317012801E1E0F0E0F887EF8336
:101AC000F7E0CF16D10428F423E0C216D10440F485
:101AD00004C037E0C316D10429F481E090E002C0CD
:101AE0008FEF9FEFAD80BE800F2EF0E06F2EF0E005
:101AF0007F2EF0E08F2EF0E09F2EF02DA2019101BD
:101B000050582D873E874F87588B9C01442737FDBF
:101B10004095542F298B3A8B4B8B5C8B7AC04F812D
:101B20005885452B19F08A2D698102C089816A2D5B
:101B300041E09CDEC201B10120E030E040E050E035
:101B400089DE88231CF0A201910104C02D853E8509
:101B50004F855889C401B30137DD3B014C0120E0BA
:101B600030E040E05FE376DE18160CF044C069898F
:101B70007A898B899C89BEDD9B01AC01C201B101D0
:101B80000E9464017B018C011E8A1D8A20E030E0E6
:101B900040E050E05FDE181624F481E090E09E8B78
:101BA0008D8BCC24DD24C801B70120E030E040E07B
:101BB00050E06EDD88231CF421E0C22ED12CED898B
:101BC000FE89EC19FD09319739F429813A812F5F9B
:101BD0003F4F3A83298306C049815A814150504082
:101BE0005A834983C401B30120E030E040E85FE359
:101BF000EADC3B014C018B819C81ED81FE81E81781
:101C0000F90720F40894A11CB11C03C00894A10892
:101C1000B1082B813C814D815E814217530720F42E
:101C20002A153B0520F17BCF8B819C81A816B90634
:101C3000F0F075CF96E0C92ED12C03C082E0C82EFB
:101C4000D12CC401B301A20191010E945B021B01CE
:101C50002C01BA82A982EB85FC85FE83ED833A854F
:101C6000232F30E03C832B8318861F8229CF669672
:101C70000FB6F894DEBF0FBECDBFCF91DF911F919D
:101C80000F91FF90EF90DF90CF90BF90AF909F901B
:101C90008F907F906F905F904F903F902F9008951E
:101CA0008F929F92AF92BF92CF92DF92EF92FF926C
:101CB0000F931F93CF93DF93D62EC42E95E0899F69
:101CC000C00111248C01045F1F4FF1E08F2E912C75
:101CD000E1E1AE2EE0E0BE2EA80EB91E1DC06C2DB7
:101CE0006C0FA4010C2E02C0440F551F0A94E2F79A
:101CF0004E215F210C2E02C0559547950A94E2F7BC
:101D00008D2DB4DD2196C830D10549F70F5F1F4FE7
:101D1000D3940A151B0539F0C0E0D0E0F801849196
:101D2000E82EFF24DCCFDF91CF911F910F91FF9020
:101D3000EF90DF90CF90BF90AF909F908F900895DD
:101D40000F931F93CF93DF93EC01162F042F05C041
:101D5000612F402FA5DF21961B5F88818823C1F763
:101D6000DF91CF911F910F910895CF93DF9380E082
:101D700060E055D0C0ECD1E081E0699107D083E00C
:101D8000C83BD807C9F7DF91CF91089595B18295E7
:101D9000880F807E9F7D982B95B95F9827E030E073
:101DA00070E08F98CB01022E02C0959587950A941A
:101DB000E2F780FF02C02E9A01C02E988F9A215020
:101DC00030408FEF2F3F380761F75F9A08951F93D8
:101DD000182F579A249A259A269A879A2C985F9AB0
:101DE0002C9A80E061E2D2DF106880E0612FCEDFC4
:101DF00080E064E0CBDF80E063E1C8DF80E06CE09E
:101E0000C5DF80E060E2C2DF80E06CE0BFDF80E041
:101E100060E4BCDF80E060E8B9DF1F9108951F93A4
:101E2000182F606480E0B2DF106880E0612FAEDFC1
:101E30001F9108958F929F92AF92BF92CF92DF929F
:101E4000EF92FF920F931F934C01A42E122F70E07C
:101E500080E090E04DDCF4016083718382839383A2
:101E6000BB24CC24DD24C601B50142DCF40164832B
:101E700075838683978310870187F486E3861F9195
:101E80000F91FF90EF90DF90CF90BF90AF909F9019
:101E90008F9008952F923F924F925F927F928F92F0
:101EA0009F92AF92BF92CF92DF92EF92FF920F93E9
:101EB0001F93DF93CF9300D000D0CDB7DEB72C01B6
:101EC000DC011A968C91882309F496C022243324CD
:101ED0001A82198287C0E981FA81BF01882777FDBC
:101EE0008095982F07DCD20114962D913D914D914C
:101EF0005C91179769DB5B016C0120E030E040E00A
:101F000050E0C6DB87FD68C0C601B50120E030E0C7
:101F100040E452E49FDC87FF6FC01C821B8245C0F7
:101F2000D2011B96ED91FC911C97E20DF31D708080
:101F3000EB81FC81BF01882777FD8095982FDADB44
:101F4000D2012D913D914D915C913EDB7B018C0145
:101F500020E030E040E050E07DDC8823CCF0C80198
:101F6000B70120E030E048EA52E492DB882384F4B1
:101F7000782071F0C801B7018FDB7B018C01C601AD
:101F8000B5018ADB9B01AC018E2D622F41E06EDC36
:101F9000EB81FC813196FC83EB83CF0187709070DD
:101FA000892B39F40894211C311C90E8892E912C3E
:101FB00002C095948794D20118968C9190E0EB81A1
:101FC000FC81E817F9070CF4ABCF87709070892B70
:101FD00019F00894211C311C29813A812F5F3F4F51
:101FE0003A832983D20119968C9190E0E981FA8194
:101FF000E817F9070CF46FCF0F900F900F900F9028
:10200000CF91DF911F910F91FF90EF90DF90CF90D4
:10201000BF90AF909F908F907F905F904F903F9038
:102020002F90089597FB092E07260AD077FD04D03C
:102030000CD006D000201AF4709561957F4F08955A
:10204000F6F7909581959F4F0895AA1BBB1B51E110
:1020500007C0AA1FBB1FA617B70710F0A61BB70B18
:10206000881F991F5A95A9F780959095BC01CD01BD
:1020700008952F923F924F925F926F927F928F922C
:102080009F92AF92BF92CF92DF92EF92FF920F9307
:102090001F93CF93DF93CDB7DEB7CA1BDB0B0FB611
:1020A000F894DEBF0FBECDBF09942A8839884888CE
:1020B0005F846E847D848C849B84AA84B984C88464
:1020C000DF80EE80FD800C811B81AA81B981CE0F5B
:1020D000D11D0FB6F894DEBF0FBECDBFED01089540
:1020E000A0E0B0E0E5E7F0E1CCCFEC01A880B9805A
:1020F000CA80DB80A114B104C104D10441F484E29C
:10210000A82E89EDB82E8BE5C82E87E0D82EC60103
:10211000B5012DE133EF41E050E058D027EA31E43A
:1021200040E050E034D07B018C01C601B5012DE1C7
:1021300033EF41E050E04AD0CA01B9012CEE34EF50
:102140004FEF5FEF24D06E0D7F1D801F911F97FF13
:1021500004C06150704080409048688379838A83CE
:102160009B839B013F77C901CDB7DEB7EAE0A5CFDE
:10217000B7CF8FE891E0B4CFA0E0B0E080938F01BB
:1021800090939001A0939101B09392010895629F62
:10219000D001739FF001829FE00DF11D649FE00D5F
:1021A000F11D929FF00D839FF00D749FF00D659FC0
:1021B000F00D9927729FB00DE11DF91F639FB00DBF
:1021C000E11DF91FBD01CF011124089597FB092ED0
:1021D00005260ED057FD04D014D00AD0001C38F4C8
:1021E00050954095309521953F4F4F4F5F4F089543
:1021F000F6F790958095709561957F4F8F4F9F4F23
:102200000895A1E21A2EAA1BBB1BFD010DC0AA1F37
:10221000BB1FEE1FFF1FA217B307E407F50720F04F
:10222000A21BB30BE40BF50B661F771F881F991FCA
:102230001A9469F760957095809590959B01AC0113
:0A224000BD01CF010895F894FFCF0F
:10224A004C3A2000533A200047616D65205374616F
:10225A00727420496E3A2000546F75636865642071
:10226A0041205A6F6D62696521005A6F6D62696516
:10227A00446173682076312E30004C6163686C616A
:10228A006E20526F62696E736F6E006E3838343525
:10229A003430390047616D65204F5645522100534D
:1022AA000053002F002F0008000800010001000061
:1022BA00000000000000000000000000000303030B
:1022CA0000E040E0A0E0A0000000000000000001E3
:0422DA000000000000
:00000001FF
