:1000000045C1000060C100005EC100005CC100008D
:100010005AC1000058C1000056C1000054C1000080
:1000200052C1000081C400004EC100004CC100005C
:100030004AC1000048C1000046C1000044C10000A0
:1000400042C1000040C100003EC100003CC10000B0
:100050003AC1000038C1000036C100000C94C50A46
:1000600032C1000030C100002EC100002CC10000D0
:100070002AC1000028C1000026C1000024C10000E0
:1000800022C1000020C100001EC100001CC10000F0
:100090001AC1000018C1000016C1000014C1000000
:1000A00012C1000010C100000EC1000000000000DD
:1000B0000000005F00000007000700147F147F1499
:1000C000242A7F2A122313086462364955225000DD
:1000D00005030000001C2241000041221C001408FE
:1000E0003E081408083E08080050300000080808C0
:1000F0000808006060000020100804023E514945D5
:100100003E00427F400042615149462141454B310A
:100110001814127F1027454545393C4A494930019A
:10012000710905033649494936064949291E0036F1
:100130003600000056360000081422410014141442
:100140001414004122140802015109063249794170
:100150003E7E1111117E7F494949363E414141227F
:100160007F4141221C7F494949417F090909013EDC
:100170004149497A7F0808087F00417F41002040BB
:10018000413F017F081422417F404040407F020CE4
:10019000027F7F0408107F3E4141413E7F090909EB
:1001A000063E4151215E7F09192946464949493198
:1001B00001017F01013F4040403F1F2040201F3F81
:1001C0004038403F63140814630708700807615102
:1001D000494543007F41410002040810200041418D
:1001E0007F0004020102044040404040000102043C
:1001F0000020545454787F484444383844444420C0
:10020000384444487F3854545418087E0901020C7D
:100210005252523E7F0804047800447D4000204042
:10022000443D007F1028440000417F40007C0418BA
:1002300004787C0804047838444444387C1414144A
:1002400008081414187C7C080404084854545420EA
:10025000043F4440203C4040207C1C2040201C3C6B
:100260004030403C44281028440C5050503C4464DA
:10027000544C44000836410000007F000000413625
:1002800008001008081008784641467811241FBE5F
:10029000CFEFDAE0DEBFCDBF11E0A0E0B1E0E2E9F0
:1002A000F7E202C005900D92A639B107D9F713E025
:1002B000A6E9B1E001C01D92A63CB107E1F70E949A
:1002C000150C0C94C7139CCEA0E2B0E0EAE6F1E076
:1002D0000C94DD1269837A838B839C832D833E8308
:1002E0004F835887CE010196BE01675F7F4F61D271
:1002F000CE010596BE016F5E7F4F5BD2998592302D
:1003000088F089898230C8F0943019F4823051F431
:1003100004C0843029F4923081F48AE891E0C6C0A8
:10032000923049F420E09A858A89981321E02A873F
:10033000CE010996BBC0823049F420E09A858A89B3
:10034000981321E02A8BCE014196B0C02D843E84C3
:100350004F8458886D887E888F88988CEE24FF247F
:100360008701AA24BB24650140E050E060E070E012
:10037000E0E0F0E0C10181709070892BE9F0E60CBB
:10038000F71C081D191D9A01AB012A0D3B1D4C1DC0
:100390005D1D80E090E0A0E0B0E0E614F704080501
:1003A000190520F481E090E0A0E0B0E0BA01A901D5
:1003B000480F591F6A1F7B1FAA0CBB1CCC1CDD1CDD
:1003C00097FE08C081E090E0A0E0B0E0A82AB92A3A
:1003D000CA2ADB2A3196E032F10549F0660C771C17
:1003E000881C991C5694479437942794C3CFFA8558
:1003F000EA892B893C898B859C85280F391F2E5FC4
:100400003F4F17C0CA0181709070892B61F016951B
:100410000795F794E79480E090E0A0E0B0E8E82A40
:10042000F92A0A2B1B2B76956795579547952F5FD1
:100430003F4F77FDE7CF0CC0440F551F661F771F56
:1004400017FD4160EE0CFF1C001F111F21503040B2
:10045000403090E0590790E0690790E4790760F335
:100460002B8F3C8FDB01CA018F779070A070B0702A
:1004700080349105A105B10561F447FD0AC0E1147E
:10048000F1040105110529F0405C5F4F6F4F7F4F6C
:1004900040781A8EFE1711F081E08A8F4D8F5E8FA3
:1004A0006F8F78A383E0898FCE014996ADD0A09657
:1004B000E2E10C94F912A8E1B0E0E1E6F2E00C947C
:1004C000E51269837A838B839C832D833E834F83DC
:1004D0005887B9E0EB2EF12CEC0EFD1ECE010196F3
:1004E000B70167D18E010F5E1F4FCE010596B8018F
:1004F00060D12985223008F47EC03989323010F469
:10050000B8017CC08A859A8989278A87243011F0AE
:10051000223031F4231709F06EC06AE871E06EC032
:10052000343039F41D861E861F86188A1C861B8669
:1005300004C0323021F484E08987B7015FC02B8585
:100540003C858B899C89281B390B3C872B87ED8444
:10055000FE840F851889AD88BE88CF88D88CEA14B0
:10056000FB040C051D0540F4EE0CFF1C001F111FC1
:10057000215030403C872B8720E030E040E050E0C5
:1005800080E090E0A0E0B0E460E070E0EA14FB04FA
:100590000C051D0540F0282B392B4A2B5B2BEA1844
:1005A000FB080C091D09B695A79597958795EE0C44
:1005B000FF1C001F111F6F5F7F4F6F31710531F7F7
:1005C000DA01C9018F779070A070B0708034910506
:1005D000A105B10561F427FD0AC0E114F10401058C
:1005E000110529F0205C3F4F4F4F5F4F20782D873A
:1005F0003E874F87588BBE01675F7F4FCB0104D08A
:100600006896EAE00C940113DF92EF92FF920F9349
:100610001F93FC01E480F58006811781D1808081E1
:10062000823048F480E090E0A0E1B0E0E82AF92AC6
:100630000A2B1B2BA5C0843009F49FC0823021F403
:10064000EE24FF24870105C0E114F1040105110522
:1006500019F4E0E0F0E096C0628173819FEF6238A8
:1006600079070CF05BC022E83FEF261B370B2A31DD
:1006700031052CF020E030E040E050E02AC0B80125
:10068000A701022E04C076956795579547950A9461
:10069000D2F781E090E0A0E0B0E004C0880F991F9D
:1006A000AA1FBB1F2A95D2F70197A109B1098E2174
:1006B0009F21A023B1230097A105B10521F081E07E
:1006C00090E0A0E0B0E09A01AB01282B392B4A2B37
:1006D0005B2BDA01C9018F779070A070B070803405
:1006E0009105A105B10539F427FF09C0205C3F4FF2
:1006F0004F4F5F4F04C0215C3F4F4F4F5F4FE0E0D3
:10070000F0E02030A0E03A07A0E04A07A0E45A0752
:1007100010F0E1E0F0E079018A0127C0603871054E
:1007200064F5FB01E158FF4FD801C7018F77907046
:10073000A070B07080349105A105B10539F4E7FED1
:100740000DC080E490E0A0E0B0E004C08FE390E052
:10075000A0E0B0E0E80EF91E0A1F1B1F17FF05C03E
:1007600016950795F794E794319687E016950795C7
:10077000F794E7948A95D1F705C0EE24FF2487010A
:10078000EFEFF0E06E2F679566276795902F9F77C4
:10079000D794DD24D7948E2F8695492F462B582F3A
:1007A0005D29B701CA011F910F91FF90EF90DF9073
:1007B0000895FC01DB01408151812281622F6F7716
:1007C00070E0221F2227221F9381892F880F822BFE
:1007D000282F30E0991F9927991F11969C93119704
:1007E00021153105A9F5411551056105710511F472
:1007F00082E037C082E89FEF13969C938E93129706
:100800009A01AB0167E0220F331F441F551F6A9501
:10081000D1F783E08C930DC0220F331F441F551F67
:1008200012968D919C911397019713969C938E939A
:100830001297203080E0380780E0480780E45807AE
:1008400058F314962D933D934D935C931797089509
:100850002F3F310579F4411551056105710519F4F2
:1008600084E08C93089564FF03C081E08C9312C0F0
:100870001C9210C02F57304013963C932E93129722
:1008800083E08C9387E0440F551F661F771F8A957E
:10089000D1F7706414964D935D936D937C93179785
:1008A0000895109299011092980110929701109258
:1008B0009601199B11C084EF91E020E931E0F90124
:1008C0003197F1F70197D9F7199B06C081E090E0C5
:1008D0009093990180939801189B11C084EF91E047
:1008E00020E931E0F9013197F1F70197D9F7189B29
:1008F00006C081E090E0909397018093960108955F
:10090000EBE6F0E08081816080838081826080837B
:10091000E8E6F0E0808181608083E9E6F0E08081B4
:1009200081608083789408951F920F920FB60F9282
:1009300011248F939F931092990110929801109215
:10094000970110929601199B06C081E090E0909368
:10095000990180939801189B06C081E090E09093E4
:100960009701809396019F918F910F900FBE0F90EA
:100970001F90189584B58D7F84BD85B5877F85BD13
:1009800085B5856085BD85B58D7F85BDEEE6F0E0DA
:1009900080818160808378940895CF92DF92EF9276
:1009A000FF920F931F93809163019091640162E025
:1009B00070E00E94B6127B0185E090E0E80EF91E1F
:1009C000C090B601D090B70180915F019091600115
:1009D00062E070E00E94B612882777FD8095982F1C
:1009E0000E941E0EF6016083718382839383002729
:1009F000F7FC0095102FC801B7010E941E0EF601EA
:100A000064837583868397831F910F91FF90EF9086
:100A1000DF90CF9008950F931F938C01DC016D91AF
:100A20007D918D919C910E94EB0DFB01D801149654
:100A30004D915D916D917C9117978091B40190914A
:100A4000B5018E179F0744F520917D018091AE017D
:100A50009091AF01821B91098E179F07ECF0CB019B
:100A6000BA010E94EB0D8091B8019091B9018617EF
:100A7000970794F430E020917E018091B20190912B
:100A8000B301821B9109861797070CF431E081E0CE
:100A90003827232F30E002C020E030E0C9011F9149
:100AA0000F9108956F927F928F929F92AF92BF9213
:100AB000CF92DF92EF92FF920F931F93CF93DF932A
:100AC000C091B601D091B701CE01A5DF892BF9F015
:100AD0006090B8017090B90182E090E0680E791ED4
:100AE0008090B2019090B3018CEF9FEF880E991E19
:100AF000A090B401B090B50182E090E0A80EB91EBC
:100B00000091AE011091AF010450104013C08090CD
:100B100063019090640108948108910800915F013D
:100B200010916001015010404AE0642E712C32E0B7
:100B3000A32EB12C80916B0190916C01892B21F037
:100B400021E0C22ED12C13C0B401882777FD8095F7
:100B5000982F0E941E0E9B01AC016C817D818E81BD
:100B60009F810E94CE0E18162CF4CC24DD24EE2496
:100B7000FF2405C0CC24DD2491E0E92EF12C8091E6
:100B80006B0190916C010197C9F4B801882777FD3A
:100B90008095982F0E941E0E9B01AC01688179817F
:100BA0008A819B810E94CE0E18161CF4CC24DD2471
:100BB00003C081E0C82ED12CEE24FF2480916B016C
:100BC00090916C010297D1F4B301882777FD80954D
:100BD000982F0E941E0E9B01AC016C817D818E813D
:100BE0009F81F5D788232CF4CC24DD24EE24FF2428
:100BF00005C0CC24DD24EE24EA94FE2C80916B0108
:100C000090916C010397C1F4B501882777FD809519
:100C1000982F0E941E0E9B01AC01688179818A8108
:100C20009B81D5D788231CF4CC24DD2403C0CC249D
:100C3000CA94DC2CEE24FF24688179818A819B810F
:100C4000CAD72C813D814E815F8180919601909120
:100C50009701892B89F08091980190919901892BB6
:100C600059F00617170744F40C5F1F4FB801882787
:100C700077FD8095982F18C08091960190919701EB
:100C8000892BC1F08091980190919901892B91F065
:100C90006A157B057CF48CEF9FEFA80EB91EB50199
:100CA000882777FD8095982FC9D7688379838A83B1
:100CB0009B8339C0CA01B9018ED78091960190916A
:100CC0009701892B99F08091980190919901892B36
:100CD00069F06615770554F48CEF9FEF680E791E66
:100CE000B301882777FD8095982F18C080919601D1
:100CF00090919701892BB9F0809198019091990179
:100D0000892B89F08616970674F484E090E0880EAB
:100D1000991EB401882777FD8095982F8FD76C8313
:100D20007D838E839F83B601882777FD8095982FDA
:100D300085D79B01AC01688179818A819B81E3D64B
:100D4000688379838A839B83B701882777FD8095A1
:100D5000982F74D79B01AC016C817D818E819F811E
:100D6000D2D66C837D838E839F83DF91CF911F9139
:100D70000F91FF90EF90DF90CF90BF90AF909F903A
:100D80008F907F906F9008952091B8018091B40169
:100D9000622F4091AE010E940D0F2091B20180910F
:100DA000B401622F4091AE010E940D0F4091B40139
:100DB000842F6091B8012091B2010E940D0F4091E3
:100DC000AE01842F6091B8012091B2010C940D0FF7
:100DD00080E068E04091610128E00E940D0F80E012
:100DE00068E040E0209165010E940D0F4091610193
:100DF000842F68E0209165010E940D0F209165010C
:100E000080E0622F409161010E940D0F80E091E02F
:100E100060E040E00E94441180917F01805D6BE0C2
:100E200040E00E94F41084E091E065E140E00E941F
:100E300044118091A801805D6FE140E00E94F410B0
:100E400080916B0190916C01805D6EE440E00E94A6
:100E5000F4108091B6019091B701DDDD805D6CE307
:100E600040E00C94F4101F93CF93DF9313E3C0E999
:100E7000D1E098D788E091E062E046E10E94441119
:100E8000812F6BE446E10E94F4100E94591180E129
:100E900097E2FE013197F1F70197D9F7115010331E
:100EA00041F7DF91CF911F9108955E9A84B18C60D4
:100EB00084B920E030E002C02F5F3F4F809198015D
:100EC00090919901892B31F480919601909197012D
:100ED000892B91F3C9010E9460131BB80895EF920A
:100EE000FF920F931F938C017B010E945D13E01A08
:100EF000F10A0894E11CF11CB7010E94B6129C0192
:100F0000200F311FC9011F910F91FF90EF9008959D
:100F10008F929F92AF92BF92CF92DF92EF92FF9209
:100F20000F931F9360915F017091600182E090E0E8
:100F3000D6DF7C01609163017091640189E090E0EB
:100F4000CEDF5C018090AA019090AB010027F7FCF6
:100F50000095102FC801B70171D6F4016083718329
:100F600082839383CC24B7FCC094DC2CC601B501EA
:100F700065D6F40164837583868397831F910F91EF
:100F8000FF90EF90DF90CF90BF90AF909F908F90A9
:100F90000895EF92FF920F931F9386E090E06CE02C
:100FA00070E09DDF8C0186E090E06CE070E097DF00
:100FB0007C0160916101709162016451704084E133
:100FC00090E08DDF9093B5018093B401800F911F65
:100FD0009093AF018093AE016091650170916601BD
:100FE000645170408DE190E07ADF9093B901809375
:100FF000B8018E0D9F1D9093B3018093B201C4DEA2
:101000001F910F91FF90EF9008952F923F924F9272
:101010005F926F927F928F929F92AF92BF92CF9288
:10102000DF92EF92FF920F931F93CF93DF93809104
:101030005F019091600162E070E00E94B6124B0186
:10104000809163019091640162E070E00E94B612A9
:101050001B0166EF462E6FEF562E480C591C81E09F
:1010600090E0B2013CDFA82E6091630170916401B1
:101070006150704089E090E032DFE82E6090BA0164
:101080007090BB01BB24CC24DD24C601B501D4D5AE
:10109000F3016083718382839383FF2400E010E077
:1010A000C801B701C9D5F30164837583868397832B
:1010B00081E090E0B20113DFA82E6091630170918E
:1010C00064016150704089E090E009DFE82E609093
:1010D000BC017090BD01BB24CC24DD24C601B50148
:1010E000ABD5F3016083718382839383FF2400E097
:1010F00010E0C801B701A0D5F3016483758386832E
:1011000097838AE090E0880E991E60915F0170914C
:101110006001C401E4DEA82E609163017091640156
:101120006150704089E090E0DADEE82E6090BE0108
:101130007090BF01BB24CC24DD24C601B5017CD551
:10114000F3016083718382839383FF2400E010E0C6
:10115000C801B70171D5F3016483758386839783D2
:1011600060915F0170916001C401B9DEA82E6091A9
:101170006301709164016150704089E090E0AFDEDE
:10118000E82E8090C0019090C101BB24CC24DD24C6
:10119000C601B50151D5F4016083718382839383C5
:1011A000FF2400E010E0C801B70146D5F4016483D4
:1011B00075838683978360915F017091600181E000
:1011C00090E08DDEE82E5BEF652E5FEF752E620CF2
:1011D000731C89E090E0B30182DEA82E8090C201EA
:1011E0009090C301FF2400E010E0C801B70124D5AE
:1011F000F4016083718382839383BB24CC24DD2438
:10120000C601B50119D5F40164837583868397837C
:1012100060915F017091600181E090E060DEE82EF6
:1012200089E090E0B3015BDEA82E8090C40190902D
:10123000C501FF2400E010E0C801B701FDD4F401AE
:101240006083718382839383BB24CC24DD24C60115
:10125000B501F2D4F401648375838683978360912A
:101260005F017091600181E090E039DEA82E8FE08F
:1012700090E0280E391E6091630170916401C101F4
:101280002EDEE82E8090C6019090C701BB24CC24AE
:10129000DD24C601B501D0D4F4016083718382835B
:1012A0009383FF2400E010E0C801B701C5D4F40126
:1012B000648375838683978360915F017091600179
:1012C00081E090E00CDEE82E609163017091640192
:1012D000C10105DEA82E8090C8019090C901FF24AD
:1012E00000E010E0C801B701A7D4F4016083718366
:1012F00082839383BB24CC24DD24C601B5019CD416
:10130000F4016483758386839783CDE6D1E080E022
:1013100090E063E070E0E3DD89939993F1E0CD37ED
:10132000DF07A9F7DF91CF911F910F91FF90EF9009
:10133000DF90CF90BF90AF909F908F907F906F90F5
:101340005F904F903F902F9008952F923F924F9231
:101350005F926F927F928F929F92AF92BF92CF9245
:10136000DF92EF92FF920F931F93CF93DF931AEBCD
:10137000212E11E0312EBDE66B2EB1E07B2ECC2468
:10138000DD244424552481E090E064E670E0A7DD8C
:10139000863091055CF4F3018081918101979183FE
:1013A000808397FF10C083E090E00BC080369105EA
:1013B00054F0F30180819181019664E070E00E9415
:1013C000B61291838083F101A080B180C50123DB37
:1013D000892BD1F0E090B801F090B90182E090E063
:1013E000E80EF91E2091B2013091B3012450304033
:1013F0008090B4019090B501880E991EC091AE0105
:10140000D091AF01249711C0209163013091640104
:1014100021503040C0915F01D09160012197AAE036
:10142000EA2EF12CF2E08F2E912CF3010081118134
:1014300001151105B1F4B901882777FD8095982F22
:10144000FDD39B01AC01F501648175818681978193
:10145000A5D418160CF44EC0E1E0CE2ED12C4424B5
:1014600055240130110589F4BE01882777FD809548
:10147000982FE4D39B01AC01F501608171818281D9
:1014800093818CD41816B4F117C002301105C9F439
:10149000B701882777FD8095982FD0D39B01AC01A9
:1014A000F501648175818681978191D387FD22C082
:1014B000CC24CA94DC2C20C0CC24DD2471E0472E3F
:1014C000512C03301105D1F4B401882777FD8095A4
:1014D000982FB4D39B01AC01F501608171818281A9
:1014E000938175D387FD06C0CC24DD2444244A941F
:1014F000542C04C0CC24DD2444245524B201882774
:1015000077FD8095982F9AD39B01AC01F5016081FE
:10151000718182819381F7D2F50160837183828327
:101520009383F101019111911F01B601882777FD85
:101530008095982F83D39B01AC01F801648175815C
:1015400086819781E0D2F8016483758386839783CF
:1015500082E090E0680E791E9AEC291691E0390637
:1015600009F011CFDF91CF911F910F91FF90EF9074
:10157000DF90CF90BF90AF909F908F907F906F90B3
:101580005F904F903F902F9008951F920F920FB64B
:101590000F9211242F933F934F935F936F937F93F9
:1015A0008F939F93AF93BF93EF93FF93A89A8091EC
:1015B000A2019091A30101969093A3018093A201AF
:1015C0008091A2019091A3010597FCF08091A60162
:1015D0009091A701892BC9F01092A3011092A2014A
:1015E0008091A4019091A50101969093A50180930B
:1015F000A4018091A4019091A5010A972CF010926A
:10160000A5011092A401A1DE4DDAFF91EF91BF91E7
:10161000AF919F918F917F916F915F914F913F918A
:101620002F910F900FBE0F901F90189584B18C6072
:1016300084B9569A8BB18BB9289AE1E6F0E080E83C
:10164000808310828FE367D6ADD35AD993D9AAD3BA
:1016500088E191E064E040E017D688E291E062E042
:1016600049E012D689E391E066E14CE10DD621D63E
:101670001CDC17D9F8DB83E090E090938001809325
:101680007F0108954F925F926F927F928F929F9207
:10169000AF92BF92CF92DF92EF92FF920F931F9380
:1016A000CF93DF9380915F019091600162E070E0E1
:1016B0005DD7B62E809163019091640162E070E085
:1016C00055D7A62E0091B6011091B701F80160819F
:1016D00071818281938184D26B017C01F8016481E4
:1016E0007581868197817CD2CAEBD1E06C2C7724FE
:1016F000862E992481E0482E512C00E9C02E01E06D
:10170000D02EF7EEBF0EE881F981E480F5800681E6
:101710001781608171818281938162D270E08091B2
:101720007D01282F30E0CB01821B930B8615970596
:101730000CF064C0620F731F661677060CF05EC073
:10174000C801B7014DD270E080917E01282F30E0B2
:10175000CB01821B930B881599050CF04FC0620FCB
:10176000731F861697060CF049C01092A7011092BD
:10177000A60180917F0190918001181619060CF541
:1017800088EB9BE0F6013197F1F70197D9F70AD37F
:1017900082E491E060E04A2D77D58BD588E99AE321
:1017A000F6013197F1F70197D9F780917F01909178
:1017B000800101979093800180937F01EED825DC12
:1017C00019C088EB9BE0F6013197F1F70197D9F743
:1017D000E9D284E591E06B2D4A2D56D56AD588E98A
:1017E0009AE3F6013197F1F70197D9F71FDFD5D8C2
:1017F0000CDCCFDB5092A7014092A601229681E03B
:10180000CA3CD80709F07FCFDF91CF911F910F918C
:10181000FF90EF90DF90CF90BF90AF909F908F9010
:101820007F906F905F904F9008955F926F927F923C
:101830008F929F92AF92BF92CF92DF92EF92FF92E0
:101840000F931F93DF93CF93CDB7DEB7C05FD04028
:101850000FB6F894DEBF0FBECDBFE8DEA3D229D508
:10186000DE011196E7E8F1E083E001900D928150EE
:10187000E1F7DE011496E4E8F1E083E001900D92D7
:101880008150E1F7DE011796E1E8F1E083E0019095
:101890000D928150E1F780917D0120915F0130919F
:1018A0006001281B31093093600120935F01409152
:1018B0007E018091630190916401841B9109909352
:1018C00064018093630162E070E050D64B0185E0D3
:1018D00090E0880E991EF9E4CF2ED12CCC0EDD1E9F
:1018E000C90162E070E042D6562EEAEBAE2EE1E08E
:1018F000BE2E162F74E0672E712C6C0E7D1EF50126
:10190000C082D182C601612F482D20917D010091B6
:101910007E01730133D582E090E0A80EB91EE5E1A7
:10192000F0E0CE0EDF1E1D5FFAECAF16F1E0BF0651
:1019300031F7CE010A969093AB018093AA019E01E4
:10194000215E3F4F3093B1012093B00167E0C62E76
:10195000D12CCC0EDD1E66EF46EF20917D0100916B
:101960007E0176010BD58091B0019091B10166EFB7
:1019700046EF20917D0100917E0100D5C9DA45DB5B
:1019800008DBCE01C4969093B7018093B601652D14
:10199000482D20917D0100917E017E010894E11C7B
:1019A000F11CECD48091B6019091B70117D550EF9E
:1019B000E52E5FEFF52EEA0CFB1CF701819191916A
:1019C0007F010CD5FAECEF16F1E0FF06B1F771D408
:1019D00088EE93E020E931E0F9013197F1F70197C2
:1019E000D9F781E090E09093A7018093A60101E0F0
:1019F00010E041E0C42ED12C33E0A32EB12C62C004
:101A0000D1D18091980190919901892B11F401E035
:101A100010E08091960190919701892B19F421E0B3
:101A2000C22ED12C8091980190919901892BC1F0FF
:101A300001151105A9F080916B0190916C0101973E
:101A400090936C0180936B0180916B0190916C017C
:101A500097FF04C0B0926C01A0926B0100E010E00F
:101A600080919601909197018C219D21892B71F095
:101A700080916B0190916C01019664E070E076D5E5
:101A800090936C0180936B01CC24DD248091B6018E
:101A90009091B701A3D48091AA019091AB019ED4FB
:101AA0009AEBE92E91E0F92EF701819191917F0156
:101AB00095D4FAECEF16F1E0FF06B1F765D988D9B5
:101AC000F8D3E0DD8091A6019091A701892B09F060
:101AD00097CF80E090E0C051DF4F0FB6F894DEBFA3
:101AE0000FBECDBFCF91DF911F910F91FF90EF906F
:101AF000DF90CF90BF90AF909F908F907F906F902E
:101B00005F9008955058BB27AA270ED00DC1FED074
:101B100030F003D120F031F49F3F11F41EF4F3C0F4
:101B20000EF4E095E7FBE9C0E92F0FD180F3BA1777
:101B3000620773078407950718F071F49EF527C1B3
:101B40000EF4E0950B2EBA2FA02D0B01B9019001D8
:101B50000C01CA01A0011124FF27591B99F0593F1C
:101B600050F4503E68F11A16F040A22F232F342F64
:101B70004427585FF3CF469537952795A795F040B2
:101B80005395C9F77EF41F16BA0B620B730B840BC7
:101B9000BAF09150A1F0FF0FBB1F661F771F881F7F
:101BA000C2F70EC0BA0F621F731F841F48F48795D7
:101BB00077956795B795F7959E3F08F0B3CF9395C6
:101BC000880F08F09927EE0F97958795089571D0A3
:101BD00008F481E0089504D06894B111D9C0089543
:101BE000BCD088F09F5790F0B92F9927B751A0F03B
:101BF000D1F0660F771F881F991F1AF0BA95C9F7A1
:101C000012C0B13081F0C3D0B1E00895C0C0672FD9
:101C1000782F8827B85F39F0B93FCCF38695779550
:101C20006795B395D9F73EF4909580957095619539
:101C30007F4F8F4F9F4F0895E89409C097FB3EF464
:101C400090958095709561957F4F8F4F9F4F992309
:101C5000A9F0F92F96E9BB279395F6958795779587
:101C60006795B795F111F8CFFAF4BB0F11F460FF47
:101C70001BC06F5F7F4F8F4F9F4F16C0882311F09F
:101C800096E911C0772321F09EE8872F762F05C0B3
:101C9000662371F096E8862F70E060E02AF09A954E
:101CA000660F771F881FDAF7880F9695879597F943
:101CB0000895990F0008550FAA0BE0E8FEEF1616DD
:101CC0001706E807F907C0F012161306E407F50730
:101CD00098F0621B730B840B950B39F40A2661F0A4
:101CE000232B242B252B21F408950A2609F4A14047
:101CF000A6958FEF811D811D089597F99F6780E854
:101D000070E060E008959FEF80EC089500240A944D
:101D10001616170618060906089500240A941216C6
:101D20001306140605060895092E0394000C11F4F9
:101D3000882352F0BB0F40F4BF2B11F460FF04C0A6
:101D40006F5F7F4F8F4F9F4F089557FD9058440FFF
:101D5000551F59F05F3F71F04795880F97FB991F0A
:101D600061F09F3F79F087950895121613061406C7
:101D7000551FF2CF4695F1DF08C016161706180654
:101D8000991FF1CF86957105610508940895E8942F
:101D9000BB2766277727CB0197F908958ADF08F4D8
:101DA0008FEF0895EEECF1E0119283E0E63CF80746
:101DB000D9F70895843580F5603370F5262F269580
:101DC00026952695677090E0442399F0E4E52E9FD0
:101DD000F0011124E80FF91FE253FE4F81E090E07B
:101DE00002C0880F991F6A95E2F72081282B208373
:101DF0000895E4E52E9FF0011124E80FF91FE25346
:101E0000FE4F81E090E002C0880F991F6A95E2F7CB
:101E1000809520812823208308952F923F924F920E
:101E20005F926F927F928F929F92AF92BF92CF926A
:101E3000DF92EF92FF920F931F93DF93CF93CDB773
:101E4000DEB766970FB6F894DEBF0FBECDBFC82EC3
:101E5000D62E49872A87841759F4162F05C08C2D52
:101E6000612F41E0A7DF1F5F2A852117C0F7A3C1BB
:101E70003A85631759F4182F05C0812F6D2D41E065
:101E800099DF1F5F49854117C0F795C15A85652FB6
:101E900070E080E090E0D0DE7B018C018D2D90E041
:101EA0009C878B87FC01BF01882777FD8095982F41
:101EB000C5DE9B01AC01C801B70124DE1B012C016A
:101EC000F9856F2F70E080E090E0B6DE7B018C0139
:101ED000AC2CBB24B501882777FD8095982FAEDE0A
:101EE0009B01AC01C801B7010DDE3B014C01C201F1
:101EF000B101A40193010E945B027B018C01298541
:101F0000C21608F038C020E030E040E85FE346DF6A
:101F1000181624F471E0C72ED12C37C1C801B701BF
:101F200020E030E040E85FE352DE181664F0C801BC
:101F3000B70120E030E040E050E030DF18161CF43C
:101F4000CC24DD2450C0C801B70120E030E040E0DF
:101F500050E03DDE18160CF411C1C801B70120E0B5
:101F600030E040E85FEB1ADF18160CF007C167E0BD
:101F7000C62ED12C38C020E030E040E85FE30EDF11
:101F8000181624F455E0C52ED12CFFC0C801B701A6
:101F900020E030E040E85FE31ADE18166CF0C8017C
:101FA000B70120E030E040E050E0F8DE181624F4FD
:101FB00044E0C42ED12C17C0C801B70120E030E0A6
:101FC00040E050E004DE18160CF4DCC0C801B70194
:101FD00020E030E040E85FEBE1DE18160CF0D2C004
:101FE00033E0C32ED12C4B855C855A834983BE8256
:101FF000AD829985892F90E09C838B8317012801FE
:10200000E1E0F0E0F887EF83F7E0CF16D10428F4A1
:1020100023E0C216D10440F404C037E0C316D10453
:1020200029F481E090E002C08FEF9FEFAD80BE8089
:102030000F2EF0E06F2EF0E07F2EF0E08F2EF0E01C
:102040009F2EF02DA201910150582D873E874F877A
:10205000588B9C01442737FD4095542F298B3A8B90
:102060004B8B5C8B7AC04F815885452B19F08A2D9C
:10207000698102C089816A2D41E09CDEC201B10103
:1020800020E030E040E050E089DE88231CF0A2012F
:10209000910104C02D853E854F855889C401B30147
:1020A00032DD3B014C0120E030E040E05FE376DED2
:1020B00018160CF044C069897A898B899C89BEDD29
:1020C0009B01AC01C201B1010E9464017B018C0142
:1020D0001E8A1D8A20E030E040E050E05FDE1816E6
:1020E00024F481E090E09E8B8D8BCC24DD24C8010C
:1020F000B70120E030E040E050E069DD88231CF4C7
:1021000021E0C22ED12CED89FE89EC19FD09319711
:1021100039F429813A812F5F3F4F3A83298306C0E2
:1021200049815A81415050405A834983C401B301C7
:1021300020E030E040E85FE3E5DC3B014C018B81CF
:102140009C81ED81FE81E817F90720F40894A11C19
:10215000B11C03C00894A108B1082B813C814D81BA
:102160005E814217530720F42A153B0520F17BCFEF
:102170008B819C81A816B906F0F075CF96E0C92E28
:10218000D12C03C082E0C82ED12CC401B301A2011E
:1021900091010E945B021B012C01BA82A982EB858E
:1021A000FC85FE83ED833A85232F30E03C832B832F
:1021B00018861F8229CF66960FB6F894DEBF0FBE31
:1021C000CDBFCF91DF911F910F91FF90EF90DF90E6
:1021D000CF90BF90AF909F908F907F906F905F90C7
:1021E0004F903F902F9008958F929F92AF92BF9201
:1021F000CF92DF92EF92FF920F931F93CF93DF93D3
:10220000D62EC42E95E0899FC00111248C01045F55
:102210001F4FF1E08F2E912CE1E1AE2EE0E0BE2EBB
:10222000A80EB91E1DC06C2D6C0FA4010C2E02C08F
:10223000440F551F0A94E2F74E215F210C2E02C075
:10224000559547950A94E2F78D2DB4DD2196C83057
:10225000D10549F70F5F1F4FD3940A151B0539F0BD
:10226000C0E0D0E0F8018491E82EFF24DCCFDF91BC
:10227000CF911F910F91FF90EF90DF90CF90BF9083
:10228000AF909F908F9008950F931F93CF93DF93FC
:10229000EC01162F042F05C0612F402FA5DF2196DA
:1022A0001B5F88818823C1F7DF91CF911F910F9128
:1022B0000895CF93DF9380E060E055D0CEECD1E07D
:1022C00081E0699107D083E0C63CD807C9F7DF9168
:1022D000CF91089595B18295880F807E9F7D982B30
:1022E00095B95F9827E030E070E08F98CB01022E1F
:1022F00002C0959587950A94E2F780FF02C02E9A56
:1023000001C02E988F9A215030408FEF2F3F380711
:1023100061F75F9A08951F93182F579A249A259A68
:10232000269A879A2C985F9A2C9A80E061E2D2DFF5
:10233000106880E0612FCEDF80E064E0CBDF80E0DA
:1023400063E1C8DF80E06CE0C5DF80E060E2C2DF0F
:1023500080E06CE0BFDF80E060E4BCDF80E060E84C
:10236000B9DF1F9108951F93182F606480E0B2DFDA
:10237000106880E0612FAEDF1F9108958F929F92C9
:10238000AF92BF92CF92DF92EF92FF920F931F9383
:102390004C01A42E122F70E080E090E04DDCF4019F
:1023A0006083718382839383BB24CC24DD24C601A4
:1023B000B50142DCF40164837583868397831087BB
:1023C0000187F486E3861F910F91FF90EF90DF90D5
:1023D000CF90BF90AF909F908F9008952F923F9293
:1023E0004F925F927F928F929F92AF92BF92CF92C5
:1023F000DF92EF92FF920F931F93DF93CF9300D062
:1024000000D0CDB7DEB72C01DC011A968C91882361
:1024100009F496C0222433241A82198287C0E981E4
:10242000FA81BF01882777FD8095982F07DCD201BC
:1024300014962D913D914D915C91179764DB5B0152
:102440006C0120E030E040E050E0C1DB87FD68C077
:10245000C601B50120E030E040E452E49FDC87FF94
:102460006FC01C821B8245C0D2011B96ED91FC916E
:102470001C97E20DF31D7080EB81FC81BF01882762
:1024800077FD8095982FDADBD2012D913D914D910A
:102490005C9139DB7B018C0120E030E040E050E0D2
:1024A0007DDC8823CCF0C801B70120E030E048EAA9
:1024B00052E48DDB882384F4782071F0C801B701E1
:1024C0008FDB7B018C01C601B5018ADB9B01AC016E
:1024D0008E2D622F41E06EDCEB81FC813196FC8316
:1024E000EB83CF0187709070892B39F40894211CFD
:1024F000311C90E8892E912C02C095948794D201CA
:1025000018968C9190E0EB81FC81E817F9070CF4A8
:10251000ABCF87709070892B19F00894211C311C67
:1025200029813A812F5F3F4F3A832983D20119963F
:102530008C9190E0E981FA81E817F9070CF46FCFEC
:102540000F900F900F900F90CF91DF911F910F91EF
:10255000FF90EF90DF90CF90BF90AF909F908F90C3
:102560007F905F904F903F902F90089597FB092E9A
:1025700007260AD077FD04D00CD006D000201AF42C
:10258000709561957F4F0895F6F7909581959F4FCF
:102590000895AA1BBB1B51E107C0AA1FBB1FA617AA
:1025A000B70710F0A61BB70B881F991F5A95A9F7FC
:1025B00080959095BC01CD0108952F923F924F9246
:1025C0005F926F927F928F929F92AF92BF92CF92C3
:1025D000DF92EF92FF920F931F93CF93DF93CDB7CC
:1025E000DEB7CA1BDB0B0FB6F894DEBF0FBECDBF44
:1025F00009942A88398848885F846E847D848C8415
:102600009B84AA84B984C884DF80EE80FD800C811D
:102610001B81AA81B981CE0FD11D0FB6F894DEBF00
:102620000FBECDBFED010895A0E0B0E0E9E1F3E118
:10263000CCCFEC01A880B980CA80DB80A114B104A2
:10264000C104D10441F484E2A82E89EDB82E8BE5B3
:10265000C82E87E0D82EC601B5012DE133EF41E049
:1026600050E058D027EA31E440E050E034D07B011C
:102670008C01C601B5012DE133EF41E050E04AD0B5
:10268000CA01B9012CEE34EF4FEF5FEF24D06E0D8D
:102690007F1D801F911F97FF04C0615070408040D4
:1026A0009048688379838A839B839B013F77C90124
:1026B000CDB7DEB7EAE0A5CFB7CF82E991E0B4CFDE
:1026C000A0E0B0E08093920190939301A0939401D5
:1026D000B09395010895629FD001739FF001829F8E
:1026E000E00DF11D649FE00DF11D929FF00D839FA1
:1026F000F00D749FF00D659FF00D9927729FB00D3E
:10270000E11DF91F639FB00DE11DF91FBD01CF0150
:102710001124089597FB092E05260ED057FD04D0ED
:1027200014D00AD0001C38F450954095309521956E
:102730003F4F4F4F5F4F0895F6F7909580957095F6
:1027400061957F4F8F4F9F4F0895A1E21A2EAA1BCC
:10275000BB1BFD010DC0AA1FBB1FEE1FFF1FA21751
:10276000B307E407F50720F0A21BB30BE40BF50B4E
:10277000661F771F881F991F1A9469F760957095D7
:10278000809590959B01AC01BD01CF010895F8940F
:02279000FFCF79
:102792004C3A2000533A200047616D652053746122
:1027A200727420496E3A20005A6F6D626965446105
:1027B20073682076312E30004C6163686C616E2044
:1027C200526F62696E736F6E006E38383435343012
:1027D2003900546F75636865642041205A6F6D62D9
:1027E2006965210047616D65204F564552210053AE
:1027F2000053002F002F0008000800010001000014
:1028020000000000000000000000000000030303BD
:102812000020E020E040E0A0E0A000000000000076
:06282200000001000000AF
:00000001FF
