:1000000045C100005FC100005DC100005BC1000090
:1000100059C1000057C1000055C1000053C1000084
:1000200051C10000FBC400004DC100004BC10000E5
:1000300049C1000047C1000045C1000043C10000A4
:1000400041C100003FC100003DC100003BC10000B4
:1000500039C1000037C1000035C10000ECC5000007
:1000600031C100002FC100002DC100002BC10000D4
:1000700029C1000027C1000025C1000023C10000E4
:1000800021C100001FC100001DC100001BC10000F4
:1000900019C1000017C1000015C1000013C1000004
:1000A00011C100000FC100000DC1000000000000E0
:1000B0000000005F00000007000700147F147F1499
:1000C000242A7F2A122313086462364955225000DD
:1000D00005030000001C2241000041221C001408FE
:1000E0003E081408083E08080050300000080808C0
:1000F0000808006060000020100804023E514945D5
:100100003E00427F400042615149462141454B310A
:100110001814127F1027454545393C4A494930019A
:10012000710905033649494936064949291E0036F1
:100130003600000056360000081422410014141442
:100140001414004122140802015109063249794170
:100150003E7E1111117E7F494949363E414141227F
:100160007F4141221C7F494949417F090909013EDC
:100170004149497A7F0808087F00417F41002040BB
:10018000413F017F081422417F404040407F020CE4
:10019000027F7F0408107F3E4141413E7F090909EB
:1001A000063E4151215E7F09192946464949493198
:1001B00001017F01013F4040403F1F2040201F3F81
:1001C0004038403F63140814630708700807615102
:1001D000494543007F41410002040810200041418D
:1001E0007F0004020102044040404040000102043C
:1001F0000020545454787F484444383844444420C0
:10020000384444487F3854545418087E0901020C7D
:100210005252523E7F0804047800447D4000204042
:10022000443D007F1028440000417F40007C0418BA
:1002300004787C0804047838444444387C1414144A
:1002400008081414187C7C080404084854545420EA
:10025000043F4440203C4040207C1C2040201C3C6B
:100260004030403C44281028440C5050503C4464DA
:10027000544C44000836410000007F000000413625
:1002800008001008081008784641467811241FBE5F
:10029000CFEFDAE0DEBFCDBF11E0A0E0B1E0EAE9E8
:1002A000FCE102C005900D92A836B107D9F713E022
:1002B000A8E6B1E001C01D92A838B107E1F7A4D5C6
:1002C0000C944B0E9DCEEF92FF920F931F937B01E8
:1002D0008C0120E030E040E05FE4E3D788237CF04D
:1002E000C801B70120E030E040E05FE4BFD6B3D101
:1002F0009B01AC01205030404040504805C0C8012F
:10030000B701A9D19B01AC01B901CA011F910F919D
:10031000FF90EF900895A0E2B0E0E1E9F1E00C94E5
:10032000610D69837A838B839C832D833E834F8306
:100330005887CE010196BE01675F7F4FB4D2CE01D0
:100340000596BE016F5E7F4FAED29985923088F0E0
:1003500089898230C8F0943019F4823051F404C095
:10036000843029F4923081F48CE591E0C6C092305B
:1003700049F420E09A858A89981321E02A87CE01E2
:100380000996BBC0823049F420E09A858A89981387
:1003900021E02A8BCE014196B0C02D843E844F844B
:1003A00058886D887E888F88988CEE24FF2487017A
:1003B000AA24BB24650140E050E060E070E0E0E08A
:1003C000F0E0C10181709070892BE9F0E60CF71C18
:1003D000081D191D9A01AB012A0D3B1D4C1D5D1D09
:1003E00080E090E0A0E0B0E0E614F704080519050D
:1003F00020F481E090E0A0E0B0E0BA01A901480F4C
:10040000591F6A1F7B1FAA0CBB1CCC1CDD1C97FE4E
:1004100008C081E090E0A0E0B0E0A82AB92ACA2A8A
:10042000DB2A3196E032F10549F0660C771C881C16
:10043000991C5694479437942794C3CFFA85EA8938
:100440002B893C898B859C85280F391F2E5F3F4F58
:1004500017C0CA0181709070892B61F016950795BD
:10046000F794E79480E090E0A0E0B0E8E82AF92A69
:100470000A2B1B2B76956795579547952F5F3F4F16
:1004800077FDE7CF0CC0440F551F661F771F17FD80
:100490004160EE0CFF1C001F111F21503040403006
:1004A00090E0590790E0690790E4790760F32B8F9B
:1004B0003C8FDB01CA018F779070A070B0708034E0
:1004C0009105A105B10561F447FD0AC0E114F104ED
:1004D0000105110529F0405C5F4F6F4F7F4F407859
:1004E0001A8EFE1711F081E08A8F4D8F5E8F6F8F0D
:1004F00078A383E0898FCE01499600D1A096E2E1EE
:100500000C947D0DA8E1B0E0E8E8F2E00C94690DF0
:1005100069837A838B839C832D833E834F835887A3
:10052000B9E0EB2EF12CEC0EFD1ECE010196B701C9
:10053000BAD18E010F5E1F4FCE010596B801B3D11F
:100540002985223008F47EC03989323010F4B80190
:100550007CC08A859A8989278A87243011F02230C5
:1005600031F4231709F06EC06CE571E06EC03430D1
:1005700039F41D861E861F86188A1C861B8604C0B9
:10058000323021F484E08987B7015FC02B853C8538
:100590008B899C89281B390B3C872B87ED84FE8433
:1005A0000F851889AD88BE88CF88D88CEA14FB04E3
:1005B0000C051D0540F4EE0CFF1C001F111F2150FF
:1005C00030403C872B8720E030E040E050E080E086
:1005D00090E0A0E0B0E460E070E0EA14FB040C05F9
:1005E0001D0540F0282B392B4A2B5B2BEA18FB0802
:1005F0000C091D09B695A79597958795EE0CFF1CDC
:10060000001F111F6F5F7F4F6F31710531F7DA01E6
:10061000C9018F779070A070B07080349105A105EA
:10062000B10561F427FD0AC0E114F10401051105CB
:1006300029F0205C3F4F4F4F5F4F20782D873E873A
:100640004F87588BBE01675F7F4FCB0157D06896AD
:10065000EAE00C94850DACE0B0E0E1E3F3E00C944B
:10066000710D69837A838B839C83CE010196BE01D1
:100670006B5F7F4F18D18D81823061F1823050F1F4
:10068000843021F48E81882351F12EC02F8138854A
:1006900037FD20C06E812F3131051CF06623F9F043
:1006A00023C08EE190E0821B930B29853A854B8510
:1006B0005C8504C056954795379527958A95D2F75E
:1006C0006623B1F050954095309521953F4F4F4F9F
:1006D0005F4F0EC020E030E040E050E009C02FEF57
:1006E0003FEF4FEF5FE704C020E030E040E050E82C
:1006F000B901CA012C96E2E00C948D0DDF92EF92C5
:10070000FF920F931F93FC01E480F580068117810F
:10071000D1808081823048F480E090E0A0E1B0E0B8
:10072000E82AF92A0A2B1B2BA5C0843009F49FC0A4
:10073000823021F4EE24FF24870105C0E114F10486
:100740000105110519F4E0E0F0E096C062817381C3
:100750009FEF623879070CF05BC022E83FEF261B61
:10076000370B2A3131052CF020E030E040E050E03A
:100770002AC0B801A701022E04C076956795579547
:1007800047950A94D2F781E090E0A0E0B0E004C081
:10079000880F991FAA1FBB1F2A95D2F70197A1099D
:1007A000B1098E219F21A023B1230097A105B10596
:1007B00021F081E090E0A0E0B0E09A01AB01282BAD
:1007C000392B4A2B5B2BDA01C9018F779070A0700F
:1007D000B07080349105A105B10539F427FF09C037
:1007E000205C3F4F4F4F5F4F04C0215C3F4F4F4F46
:1007F0005F4FE0E0F0E02030A0E03A07A0E04A07D9
:10080000A0E45A0710F0E1E0F0E079018A0127C086
:100810006038710564F5FB01E158FF4FD801C7014D
:100820008F779070A070B07080349105A105B105EC
:1008300039F4E7FE0DC080E490E0A0E0B0E004C031
:100840008FE390E0A0E0B0E0E80EF91E0A1F1B1F46
:1008500017FF05C016950795F794E794319687E042
:1008600016950795F794E7948A95D1F705C0EE247D
:10087000FF248701EFEFF0E06E2F679566276795FD
:10088000902F9F77D794DD24D7948E2F8695492F6C
:10089000462B582F5D29B701CA011F910F91FF9078
:1008A000EF90DF900895FC01DB01408151812281AE
:1008B000622F6F7770E0221F2227221F9381892FDA
:1008C000880F822B282F30E0991F9927991F1196A6
:1008D0009C93119721153105A9F541155105610525
:1008E000710511F482E037C082E89FEF13969C9364
:1008F0008E9312979A01AB0167E0220F331F441FBA
:10090000551F6A95D1F783E08C930DC0220F331FDA
:10091000441F551F12968D919C9113970197139622
:100920009C938E931297203080E0380780E0480730
:1009300080E4580758F314962D933D934D935C93A0
:10094000179708952F3F310579F441155105610539
:10095000710519F484E08C93089564FF03C081E06D
:100960008C9312C01C9210C02F57304013963C93AA
:100970002E93129783E08C9387E0440F551F661FD8
:10098000771F8A95D1F7706414964D935D936D939C
:100990007C931797089510926B0110926A01109240
:1009A000690110926801199B11C084EF91E020E960
:1009B00031E0F9013197F1F70197D9F7199B06C09A
:1009C00081E090E090936B0180936A01189B11C0C5
:1009D00084EF91E020E931E0F9013197F1F70197D7
:1009E000D9F7189B06C081E090E09093690180934D
:1009F00068010895EBE6F0E080818160808380816A
:100A000082608083E8E6F0E0808181608083E9E6AF
:100A1000F0E0808181608083789408951F920F9226
:100A20000FB60F9211248F939F9310926B01109227
:100A30006A011092690110926801199B06C081E059
:100A400090E090936B0180936A01189B06C081E04F
:100A500090E090936901809368019F918F910F902E
:100A60000FBE0F901F90189584B58D7F84BD85B5FE
:100A7000877F85BD85B5856085BD85B58D7F85BD45
:100A8000EEE6F0E0808181608083789408950F9392
:100A90001F9380914E0190914F01892B39F581E090
:100AA00090E0909379018093780110925101109217
:100AB000500100917C0110917D016091460170917F
:100AC000470161507040882777FD8095982F39D372
:100AD0009B01AC01F8016481758186819781E1D326
:100AE000181624F4109279011092780180914E0129
:100AF00090914F018130910529F590935101809398
:100B00005001109279011092780100917C011091AE
:100B10007D016091420170914301615070408827CE
:100B200077FD8095982F0DD39B01AC01F801608172
:100B3000718182819381B5D3181624F410925101EA
:100B40001092500180914E0190914F010297E9F46B
:100B50008FEF9FEF9093790180937801109251016C
:100B600010925001E0917C01F0917D0164817581CA
:100B70008681978120E030E040E251E4DCD2882396
:100B800024F4109279011092780180914E01909195
:100B90004F010397E9F48FEF9FEF909351018093FA
:100BA00050011092790110927801E0917C01F0914E
:100BB0007D01608171818281938120E030E040E09D
:100BC00050E4B9D2882324F41092510110925001BC
:100BD00000917C0110917D01609150017091510153
:100BE000882777FD8095982FACD29B01AC01F80146
:100BF00060817181828193813AD2F801608371832F
:100C0000828393836091780170917901882777FDC1
:100C10008095982F96D29B01AC01F8016481758173
:100C20008681978124D2F8016483758386839783B4
:100C30001F910F9108951F920F920FB60F921124DA
:100C40002F933F934F935F936F937F938F939F93D4
:100C5000AF93BF93EF93FF93A89A80917401909103
:100C600075010196909375018093740180917401D0
:100C70009091750105975CF08091760190917701D4
:100C8000892B29F0109275011092740100DFFF91F9
:100C9000EF91BF91AF919F918F917F916F915F91F4
:100CA0004F913F912F910F900FBE0F901F9018956D
:100CB00080E068E04091440128E032D380E068E0C1
:100CC00040E0209148012CD340914401842F68E0FA
:100CD0002091480125D32091480180E0622F409166
:100CE00044011ED380E091E060E040E04FD5809168
:100CF0005401805D6BE040E0F9D484E091E065E16F
:100D000040E044D580917A01805D6FE140E0EED40F
:100D100080914E0190914F01805D66E440E0E6C411
:100D20005E9A84B18C6084B920E030E002C02F5F0D
:100D30003F4F80916A0190916B01892B31F4809132
:100D4000680190916901892B91F3C9013DD71BB8C6
:100D50000895EF92FF920F931F938C017B0131D77F
:100D6000E01AF10A0894E11CF11CB70183D69C013A
:100D7000200F311FC9011F910F91FF90EF9008952F
:100D80001F93CF93DF9313E3C0E9D1E08ED288E0C5
:100D900091E062E046E1FAD4812F6BE446E1A6D40B
:100DA0000AD580E197E2FE013197F1F70197D9F773
:100DB0001150103359F7DF91CF911F91089584B1ED
:100DC0008C6084B9569A8BB18BB9289AE1E6F0E031
:100DD00080E8808310828FE320D567D20BDE44DE6B
:100DE00064D288E191E064E040E0D0D488E291E010
:100DF00062E049E0CBD489E391E066E14CE1C6D4FE
:100E0000DAD48EDFC8DDBCCF6F927F928F929F9233
:100E1000AF92BF92CF92DF92EF92FF920F931F9308
:100E2000DF93CF93CDB7DEB7C35CD0400FB6F89455
:100E3000DEBF0FBECDBFC3DF38D2BDD4DE011196F9
:100E4000E9E5F1E083E001900D928150E1F7DE01E8
:100E50001496E6E5F1E083E001900D928150E1F710
:100E6000209152018091420190914301821B91098E
:100E70009093430180934201409153012091460198
:100E800030914701241B31093093470120934601DB
:100E900062E070E0EFD5962EC90162E070E0EAD51D
:100EA0008B010B5F1F4FEE24FF24E0E9CE2EE1E023
:100EB000DE2EFBD180E090E069E070E04ADF805DEB
:100EC000692D402F13D477D488E893E1F601319748
:100ED000F1F70197D9F70894E11CF11C84E6E816B4
:100EE000F10439F7802E7CE1C72ED12CCC0EDD1E0B
:100EF0006EE7A62E61E0B62E192D54E0652E712CFA
:100F00006C0E7D1EF501C082D182C601612F482D75
:100F100020915201009153017301B2D482E090E01C
:100F2000A80EB91EE5E1F0E0CE0EDF1E1D5FFEE863
:100F3000AF16F1E0BF0631F7CE01079690937D0121
:100F400080937C01692D482D20915201009153011D
:100F50007E010894E11CF11C93D480917C01909156
:100F60007D01BED440EFE42E4FEFF42EEA0CFB1CC3
:100F7000F701819191917F01B3D4FEE8EF16F1E082
:100F8000FF06B1F718D488EE93E020E931E0F901CB
:100F90003197F1F70197D9F781E090E090937701CD
:100FA0008093760101E010E031E0C32ED12C23E0E4
:100FB000A22EB12C7AD180916A0190916B01892B7C
:100FC00011F401E010E08091680190916901892B92
:100FD00019F491E0C92ED12C80916A0190916B0196
:100FE000892BC1F001151105A9F080914E01909156
:100FF0004F01019790934F0180934E0180914E01D4
:1010000090914F0197FF04C0B0924F01A0924E0102
:1010100000E010E080916801909169018C219D2190
:10102000892B71F080914E0190914F01019664E0FF
:1010300070E020D590934F0180934E01CC24DD24A5
:1010400080917C0190917D014BD48EE7E82E81E068
:10105000F82EF701819191917F0142D4FEE8EF16BD
:10106000F1E0FF06B1F724DEA6D3A4CF5058BB278A
:10107000AA270ED0DCC0CDD030F0D2D020F031F491
:101080009F3F11F41EF4C2C00EF4E095E7FBB8C018
:10109000E92FDED080F3BA1762077307840795073C
:1010A00018F071F49EF5F6C00EF4E0950B2EBA2FF1
:1010B000A02D0B01B90190010C01CA01A00111245E
:1010C000FF27591B99F0593F50F4503E68F11A160A
:1010D000F040A22F232F342F4427585FF3CF46959B
:1010E00037952795A795F0405395C9F77EF41F16BD
:1010F000BA0B620B730B840BBAF09150A1F0FF0F87
:10110000BB1F661F771F881FC2F70EC0BA0F621F72
:10111000731F841F48F4879577956795B795F79562
:101120009E3F08F0B3CF9395880F08F09927EE0FF4
:1011300097958795089540D008F481E00895E89444
:1011400009C097FB3EF490958095709561957F4F0F
:101150008F4F9F4F9923A9F0F92F96E9BB279395BD
:10116000F695879577956795B795F111F8CFFAF4CD
:10117000BB0F11F460FF1BC06F5F7F4F8F4F9F4FFE
:1011800016C0882311F096E911C0772321F09EE85C
:10119000872F762F05C0662371F096E8862F70E0C2
:1011A00060E02AF09A95660F771F881FDAF7880F9C
:1011B0009695879597F90895990F0008550FAA0BF2
:1011C000E0E8FEEF16161706E807F907C0F012165A
:1011D0001306E407F50798F0621B730B840B950B5D
:1011E00039F40A2661F0232B242B252B21F40895B2
:1011F0000A2609F4A140A6958FEF811D811D08954F
:1012000097F99F6780E870E060E008959FEF80ECB9
:10121000089500240A94161617061806090608955C
:1012200000240A9412161306140605060895092EC2
:101230000394000C11F4882352F0BB0F40F4BF2B31
:1012400011F460FF04C06F5F7F4F8F4F9F4F089571
:1012500057FD9058440F551F59F05F3F71F0479567
:10126000880F97FB991F61F09F3F79F0879508954C
:10127000121613061406551FF2CF4695F1DF08C06B
:10128000161617061806991FF1CF86957105610588
:1012900008940895E894BB2766277727CB0197F930
:1012A00008958ADF08F48FEF0895E0E9F1E01192E4
:1012B00083E0E838F807D9F70895843580F560337E
:1012C00070F5262F269526952695677090E0442385
:1012D00099F0E4E52E9FF0011124E80FF91FE05783
:1012E000FE4F81E090E002C0880F991F6A95E2F7F7
:1012F0002081282B20830895E4E52E9FF0011124FE
:10130000E80FF91FE057FE4F81E090E002C0880F20
:10131000991F6A95E2F780952081282320830895FC
:101320002F923F924F925F926F927F928F929F92F5
:10133000AF92BF92CF92DF92EF92FF920F931F93E3
:10134000DF93CF93CDB7DEB766970FB6F894DEBFC5
:101350000FBECDBFC82ED62E49872A87841759F4D1
:10136000162F05C08C2D612F41E0A7DF1F5F2A8556
:101370002117C0F7A2C13A85631759F4182F05C089
:10138000812F6D2D41E099DF1F5F49854117C0F71F
:1013900094C15A85652F70E080E090E0D0DE7B013B
:1013A0008C018D2D90E09C878B87FC01BF018827E5
:1013B00077FD8095982FC5DE9B01AC01C801B70170
:1013C00055DE1B012C01F9856F2F70E080E090E065
:1013D000B6DE7B018C01AC2CBB24B501882777FDE0
:1013E0008095982FAEDE9B01AC01C801B7013EDEAF
:1013F0003B014C01C201B101A401930183D87B01DF
:101400008C012985C21608F038C020E030E040E8A1
:101410005FE347DF181624F471E0C72ED12C37C1E3
:10142000C801B70120E030E040E85FE384DE181631
:1014300064F0C801B70120E030E040E050E031DF67
:1014400018161CF4CC24DD2450C0C801B70120E0DC
:1014500030E040E050E06FDE18160CF411C1C80116
:10146000B70120E030E040E85FEB1BDF18160CF01E
:1014700007C167E0C62ED12C38C020E030E040E83C
:101480005FE30FDF181624F455E0C52ED12CFFC002
:10149000C801B70120E030E040E85FE34CDE1816F9
:1014A0006CF0C801B70120E030E040E050E0F9DE28
:1014B000181624F444E0C42ED12C17C0C801B7017B
:1014C00020E030E040E050E036DE18160CF4DCC0DE
:1014D000C801B70120E030E040E85FEBE2DE18161B
:1014E0000CF0D2C033E0C32ED12C4B855C855A83DF
:1014F0004983BE82AD829985892F90E09C838B833E
:1015000017012801E1E0F0E0F887EF83F7E0CF165C
:10151000D10428F423E0C216D10440F404C037E01B
:10152000C316D10429F481E090E002C08FEF9FEF51
:10153000AD80BE800F2EF0E06F2EF0E07F2EF0E049
:101540008F2EF0E09F2EF02DA201910150582D8793
:101550003E874F87588B9C01442737FD4095542F79
:10156000298B3A8B4B8B5C8B7AC04F815885452BEE
:1015700019F08A2D698102C089816A2D41E09DDEC2
:10158000C201B10120E030E040E050E08ADE882373
:101590001CF0A201910104C02D853E854F8558891C
:1015A000C401B30164DD3B014C0120E030E040E0C8
:1015B0005FE377DE18160CF044C069897A898B895D
:1015C0009C89BFDD9B01AC01C201B1010E948B016E
:1015D0007B018C011E8A1D8A20E030E040E050E053
:1015E00060DE181624F481E090E09E8B8D8BCC2475
:1015F000DD24C801B70120E030E040E050E09BDD91
:1016000088231CF421E0C22ED12CED89FE89EC192F
:10161000FD09319739F429813A812F5F3F4F3A8391
:10162000298306C049815A81415050405A834983D9
:10163000C401B30120E030E040E85FE317DD3B0187
:101640004C018B819C81ED81FE81E817F90720F424
:101650000894A11CB11C03C00894A108B1082B81F7
:101660003C814D815E814217530720F42A153B05CA
:1016700020F17BCF8B819C81A816B906F0F075CF45
:1016800096E0C92ED12C03C082E0C82ED12CC40113
:10169000B301A20191010E9482021B012C01BA82B6
:1016A000A982EB85FC85FE83ED833A85232F30E00C
:1016B0003C832B8318861F8229CF66960FB6F89439
:1016C000DEBF0FBECDBFCF91DF911F910F91FF9075
:1016D000EF90DF90CF90BF90AF909F908F907F90D2
:1016E0006F905F904F903F902F9008958F929F92B0
:1016F000AF92BF92CF92DF92EF92FF920F931F9320
:10170000CF93DF93D62EC42E95E0899FC00111247C
:101710008C01045F1F4FF1E08F2E912CE1E1AE2E82
:10172000E0E0BE2EA80EB91E1DC06C2D6C0FA401EA
:101730000C2E02C0440F551F0A94E2F74E215F2180
:101740000C2E02C0559547950A94E2F78D2DB5DD14
:101750002196C830D10549F70F5F1F4FD3940A1562
:101760001B0539F0C0E0D0E0F8018491E82EFF2499
:10177000DCCFDF91CF911F910F91FF90EF90DF9021
:10178000CF90BF90AF909F908F9008950F931F932D
:10179000CF93DF93EC01162F042F05C0612F402F4C
:1017A000A5DF21961B5F88818823C1F7DF91CF9148
:1017B0001F910F910895CF93DF9380E060E055D0A3
:1017C000C0E9D1E081E0699107D083E0C838D8074B
:1017D000C9F7DF91CF91089595B18295880F807EEA
:1017E0009F7D982B95B95F9827E030E070E08F9847
:1017F000CB01022E02C0959587950A94E2F780FFEF
:1018000002C02E9A01C02E988F9A215030408FEF3F
:101810002F3F380761F75F9A08951F93182F579A43
:10182000249A259A269A879A2C985F9A2C9A80E077
:1018300061E2D2DF106880E0612FCEDF80E064E0FB
:10184000CBDF80E063E1C8DF80E06CE0C5DF80E0F3
:1018500060E2C2DF80E06CE0BFDF80E060E4BCDF1C
:1018600080E060E8B9DF1F9108951F93182F60642E
:1018700080E0B2DF106880E0612FAEDF1F91089535
:101880008F929F92AF92BF92CF92DF92EF92FF9290
:101890000F931F934C01A42E122F70E080E090E074
:1018A0004EDCF4016083718382839383BB24CC2458
:1018B000DD24C601B50143DCF401648375838683AE
:1018C000978310870187F486E3861F910F91FF901D
:1018D000EF90DF90CF90BF90AF909F908F90089542
:1018E0002F923F924F925F927F928F929F92AF92F0
:1018F000BF92CF92DF92EF92FF920F931F93DF93ED
:10190000CF9300D000D0CDB7DEB72C01DC011A9602
:101910008C91882309F498C0222433241A821982D6
:1019200089C0E981FA81BF01882777FD8095982FCA
:1019300008DCD20114962D913D914D915C91179741
:1019400096DB5B016C0120E030E040E050E0F3DB2F
:1019500087FD6AC0C601B50120E030E040E452E4F2
:10196000A0DC87FF71C01C821B8247C0D2011B967E
:10197000ED91FC911C97E20DF31D7080EB81FC81D1
:10198000BF01882777FD8095982FDBDBD2012D9151
:101990003D914D915C916BDB7B018C0120E030E04F
:1019A00040E050E07EDC8823DCF0C801B70120E095
:1019B00030E048EA52E4BFDB882394F4782081F0D9
:1019C000C801B7010E9463017B018C01C601B5010A
:1019D0000E9463019B01AC018E2D622F41E06DDC02
:1019E000EB81FC813196FC83EB83CF018770907093
:1019F000892B39F40894211C311C90E8892E912CF4
:101A000002C095948794D20118968C9190E0EB8156
:101A1000FC81E817F9070CF4A9CF87709070892B27
:101A200019F00894211C311C29813A812F5F3F4F06
:101A30003A832983D20119968C9190E0E981FA8149
:101A4000E817F9070CF46DCF0F900F900F900F90DF
:101A5000CF91DF911F910F91FF90EF90DF90CF908A
:101A6000BF90AF909F908F907F905F904F903F90EE
:101A70002F90089597FB092E07260AD077FD04D0F2
:101A80000CD006D000201AF4709561957F4F089510
:101A9000F6F7909581959F4F0895AA1BBB1B51E1C6
:101AA00007C0AA1FBB1FA617B70710F0A61BB70BCE
:101AB000881F991F5A95A9F780959095BC01CD0173
:101AC00008952F923F924F925F926F927F928F92E2
:101AD0009F92AF92BF92CF92DF92EF92FF920F93BD
:101AE0001F93CF93DF93CDB7DEB7CA1BDB0B0FB6C7
:101AF000F894DEBF0FBECDBF09942A883988488884
:101B00005F846E847D848C849B84AA84B984C88419
:101B1000DF80EE80FD800C811B81AA81B981CE0F10
:101B2000D11D0FB6F894DEBF0FBECDBFED010895F5
:101B3000A0E0B0E0EDE9FDE0CCCFEC01A880B980F9
:101B4000CA80DB80A114B104C104D10441F484E251
:101B5000A82E89EDB82E8BE5C82E87E0D82EC601B9
:101B6000B5012DE133EF41E050E058D027EA31E4F0
:101B700040E050E034D07B018C01C601B5012DE17D
:101B800033EF41E050E04AD0CA01B9012CEE34EF06
:101B90004FEF5FEF24D06E0D7F1D801F911F97FFC9
:101BA00004C06150704080409048688379838A8384
:101BB0009B839B013F77C901CDB7DEB7EAE0A5CF94
:101BC000B7CF84E691E0B4CFA0E0B0E080936401A9
:101BD00090936501A0936601B09367010895629F99
:101BE000D001739FF001829FE00DF11D649FE00D15
:101BF000F11D929FF00D839FF00D749FF00D659F76
:101C0000F00D9927729FB00DE11DF91F639FB00D74
:101C1000E11DF91FBD01CF011124089597FB092E85
:101C200005260ED057FD04D014D00AD0001C38F47D
:101C300050954095309521953F4F4F4F5F4F0895F8
:101C4000F6F790958095709561957F4F8F4F9F4FD8
:101C50000895A1E21A2EAA1BBB1BFD010DC0AA1FED
:101C6000BB1FEE1FFF1FA217B307E407F50720F005
:101C7000A21BB30BE40BF50B661F771F881F991F80
:101C80001A9469F760957095809590959B01AC01C9
:0A1C9000BD01CF010895F894FFCFC5
:101C9A004C3A2000533A200047616D652053746125
:101CAA00727420496E3A20005A6F6D626965446108
:101CBA0073682076312E30004C6163686C616E2047
:101CCA00526F62696E736F6E006E38383435343015
:101CDA003900530053002F002F00080008000100AC
:101CEA00010003030300E040E0A0E0A000000000C0
:081CFA000000000001000000E1
:00000001FF
