:1000000045C100005EC100005CC100005AC1000093
:1000100058C1000056C1000054C1000052C1000088
:1000200050C1000083C200004CC100004AC1000062
:1000300048C1000046C1000044C1000042C10000A8
:1000400040C100003EC100003CC100003AC10000B8
:1000500038C1000036C1000034C100008DC200006C
:1000600030C100002EC100002CC100002AC10000D8
:1000700028C1000026C1000024C1000022C10000E8
:1000800020C100001EC100001CC100001AC10000F8
:1000900018C1000016C1000014C1000012C1000008
:1000A00010C100000EC100000CC1000000000000E3
:1000B0000000005F00000007000700147F147F1499
:1000C000242A7F2A122313086462364955225000DD
:1000D00005030000001C2241000041221C001408FE
:1000E0003E081408083E08080050300000080808C0
:1000F0000808006060000020100804023E514945D5
:100100003E00427F400042615149462141454B310A
:100110001814127F1027454545393C4A494930019A
:10012000710905033649494936064949291E0036F1
:100130003600000056360000081422410014141442
:100140001414004122140802015109063249794170
:100150003E7E1111117E7F494949363E414141227F
:100160007F4141221C7F494949417F090909013EDC
:100170004149497A7F0808087F00417F41002040BB
:10018000413F017F081422417F404040407F020CE4
:10019000027F7F0408107F3E4141413E7F090909EB
:1001A000063E4151215E7F09192946464949493198
:1001B00001017F01013F4040403F1F2040201F3F81
:1001C0004038403F63140814630708700807615102
:1001D000494543007F41410002040810200041418D
:1001E0007F0004020102044040404040000102043C
:1001F0000020545454787F484444383844444420C0
:10020000384444487F3854545418087E0901020C7D
:100210005252523E7F0804047800447D4000204042
:10022000443D007F1028440000417F40007C0418BA
:1002300004787C0804047838444444387C1414144A
:1002400008081414187C7C080404084854545420EA
:10025000043F4440203C4040207C1C2040201C3C6B
:100260004030403C44281028440C5050503C4464DA
:10027000544C44000836410000007F000000413625
:1002800008001008081008784641467811241FBE5F
:10029000CFEFDAE0DEBFCDBF11E0A0E0B1E0E8E7EC
:1002A000F0E102C005900D92A638B107D9F713E02E
:1002B000A6E8B1E001C01D92AA38B107E1F7BDD1AF
:1002C000D9C69ECEEF92FF920F931F937B018C01B4
:1002D00020E030E040E05FE4BBD388237CF0C8013D
:1002E000B70120E030E040E05FE497D213D09B01FB
:1002F000AC01205030404040504805C0C801B70113
:1003000009D09B01AC01B901CA011F910F91FF9067
:10031000EF900895ACE0B0E0EFE8F1E0D1C569837B
:100320007A838B839C83CE010196BE016B5F7F4FE6
:1003300042D08D81823061F1823050F1843021F4DD
:100340008E81882351F12EC02F81388537FD20C042
:100350006E812F3131051CF06623F9F023C08EE148
:1003600090E0821B930B29853A854B855C8504C000
:1003700056954795379527958A95D2F76623B1F01C
:1003800050954095309521953F4F4F4F5F4F0EC090
:1003900020E030E040E050E009C02FEF3FEF4FEFAA
:1003A0005FE704C020E030E040E050E8B901CA0156
:1003B0002C96E2E0A1C5FC01DB0140815181228144
:1003C000622F6F7770E0221F2227221F9381892FCF
:1003D000880F822B282F30E0991F9927991F11969B
:1003E0009C93119721153105A9F54115510561051A
:1003F000710511F482E037C082E89FEF13969C9359
:100400008E9312979A01AB0167E0220F331F441FAE
:10041000551F6A95D1F783E08C930DC0220F331FCF
:10042000441F551F12968D919C9113970197139617
:100430009C938E931297203080E0380780E0480725
:1004400080E4580758F314962D933D934D935C9395
:10045000179708952F3F310579F44115510561052E
:10046000710519F484E08C93089564FF03C081E062
:100470008C9312C01C9210C02F57304013963C939F
:100480002E93129783E08C9387E0440F551F661FCD
:10049000771F8A95D1F7706414964D935D936D9391
:1004A0007C931797089510928901109288011092F9
:1004B000870110928601199B11C084EF91E020E919
:1004C00031E0F9013197F1F70197D9F7199B06C08F
:1004D00081E090E09093890180938801189B11C07E
:1004E00084EF91E020E931E0F9013197F1F70197CC
:1004F000D9F7189B06C081E090E090938701809324
:1005000086010895EBE6F0E0808181608083808140
:1005100082608083E8E6F0E0808181608083E9E6A4
:10052000F0E0808181608083789408951F920F921B
:100530000FB60F9211248F939F93109289011092FE
:1005400088011092870110928601199B06C081E0F4
:1005500090E09093890180938801189B06C081E008
:1005600090E090938701809386019F918F910F90E7
:100570000FBE0F901F9018951F920F920FB60F92FB
:100580001124A89A0F900FBE0F901F9018955E9A95
:1005900084B18C6084B920E030E002C02F5F3F4F0F
:1005A0008091880190918901892BC1F3C901FBD405
:1005B0001BB808951F93CF93DF9313E3C0E9D1E0F5
:1005C0004BD280E091E062E046E1D1D2812F6BE432
:1005D00046E17DD2E1D280E197E2FE013197F1F769
:1005E0000197D9F71150103359F7DF91CF911F912F
:1005F000089584B18C6084B9569A8BB18BB9289ACE
:10060000E1E6F0E080E8808310828FE3F7D224D225
:1006100079DF22D280E191E064E040E0A8D280E27C
:1006200091E062E049E0A3D281E391E066E14CE130
:100630009ED2B2D2ACDF37DFBDCF2F923F924F9226
:100640005F926F927F928F929F92AF92BF92CF9262
:10065000DF92EF92FF920F931F93DF93CF93CDB76B
:10066000DEB7CA56D0400FB6F894DEBF0FBECDBF7E
:10067000C0DFDE019B96E2E6F1E080E201900D92A0
:100680008150E1F7DE01A55BBF4FE2E4F1E080E2DB
:1006900001900D928150E1F780913A0190913B01D8
:1006A000409790933B0180933A0120913C01309117
:1006B0003D012051304030933D0120933C0162E0E8
:1006C00070E0C7D3162F1051C90162E070E0C1D3AA
:1006D000B62E6E010894C11CD11CC601612F4B2D92
:1006E00020E100E15BE2E52EF12CEC0EFD1EB9D21B
:1006F000C601E7D246E1C42ED12CCC0EDD1E105E21
:10070000C601612F4B2D20E13BE4E32EF12CEC0ED2
:10071000FD1EA7D2C601D5D23FD23ED288EE93E0CD
:1007200020E931E0F9013197F1F70197D9F721E09C
:10073000422E512C91E0292E312CB201882777FDD1
:100740008095982FD5D05B016C012D813E814F8122
:10075000588564D07B018C016A8C7B8C8C8C9D8C41
:1007600020E030E040E85FE3BDD0882324F45094DB
:1007700041945108539460913C0170913D01882748
:1007800077FD8095982FB4D09B01AC01C801B701CB
:100790005FD1181624F45094419451085394C40125
:1007A000B301A601950139D06A8F7B8F8C8F9D8F05
:1007B000ED82FE820F8318874FD18091880190913E
:1007C0008901892B31F08091860190918701892BD5
:1007D00019F481E0282E312C8091880190918901B3
:1007E000019799F48091860190918701019769F4AE
:1007F0002114310451F02C853D8589A19AA19D8752
:100800008C873AA329A322243324CE01019659D2FE
:10081000CE01469656D2C0D190CF5058BB27AA27BA
:100820000ED0DCC0CDD030F0D2D020F031F49F3FDC
:1008300011F41EF4C2C00EF4E095E7FBB8C0E92F36
:10084000DED080F3BA17620773078407950718F0A4
:1008500071F49EF5F6C00EF4E0950B2EBA2FA02D84
:100860000B01B90190010C01CA01A0011124FF275D
:10087000591B99F0593F50F4503E68F11A16F04058
:10088000A22F232F342F4427585FF3CF4695379557
:100890002795A795F0405395C9F77EF41F16BA0B1C
:1008A000620B730B840BBAF09150A1F0FF0FBB1FCA
:1008B000661F771F881FC2F70EC0BA0F621F731F13
:1008C000841F48F4879577956795B795F7959E3F70
:1008D00008F0B3CF9395880F08F09927EE0F9795FE
:1008E0008795089540D008F481E00895E89409C000
:1008F00097FB3EF490958095709561957F4F8F4F53
:100900009F4F9923A9F0F92F96E9BB279395F69568
:10091000879577956795B795F111F8CFFAF4BB0FE6
:1009200011F460FF1BC06F5F7F4F8F4F9F4F16C04A
:10093000882311F096E911C0772321F09EE8872FD4
:10094000762F05C0662371F096E8862F70E060E090
:100950002AF09A95660F771F881FDAF7880F969509
:10096000879597F90895990F0008550FAA0BE0E8AD
:10097000FEEF16161706E807F907C0F01216130661
:10098000E407F50798F0621B730B840B950B39F4A1
:100990000A2661F0232B242B252B21F408950A2607
:1009A00009F4A140A6958FEF811D811D089597F947
:1009B0009F6780E870E060E008959FEF80EC089505
:1009C00000240A941616170618060906089500242E
:1009D0000A9412161306140605060895092E0394A8
:1009E000000C11F4882352F0BB0F40F4BF2B11F41C
:1009F00060FF04C06F5F7F4F8F4F9F4F089557FD7B
:100A00009058440F551F59F05F3F71F04795880F7C
:100A100097FB991F61F09F3F79F087950895121613
:100A200013061406551FF2CF4695F1DF08C01616BF
:100A300017061806991FF1CF869571056105089470
:100A40000895E894BB2766277727CB0197F9089587
:100A50008ADF08F48FEF0895E2E9F1E0119283E074
:100A6000EA38F807D9F70895843580F5603370F5D2
:100A7000262F269526952695677090E0442399F0B9
:100A8000E4E52E9FF0011124E80FF91FEE56FE4F0A
:100A900081E090E002C0880F991F6A95E2F72081FB
:100AA000282B20830895E4E52E9FF0011124E80F00
:100AB000F91FEE56FE4F81E090E002C0880F991FAB
:100AC0006A95E2F7809520812823208308958F92EC
:100AD0009F92AF92BF92CF92DF92EF92FF920F93CD
:100AE0001F93CF93DF93D62EC42E95E0899FC0012C
:100AF00011248C01045F1F4FF1E08F2E912CE1E156
:100B0000AE2EE0E0BE2EA80EB91E1DC06C2D6C0FDF
:100B1000A4010C2E02C0440F551F0A94E2F74E2187
:100B20005F210C2E02C0559547950A94E2F78D2D52
:100B30009BDF2196C830D10549F70F5F1F4FD39433
:100B40000A151B0539F0C0E0D0E0F8018491E82EC9
:100B5000FF24DCCFDF91CF911F910F91FF90EF9099
:100B6000DF90CF90BF90AF909F908F9008950F939C
:100B70001F93CF93DF93EC01162F042F05C0612F35
:100B8000402FA5DF21961B5F88818823C1F7DF9165
:100B9000CF911F910F910895CF93DF9380E060E094
:100BA00055D0C2E9D1E081E0699107D083E0CA382D
:100BB000D807C9F7DF91CF91089595B18295880F35
:100BC000807E9F7D982B95B95F9827E030E070E09C
:100BD0008F98CB01022E02C0959587950A94E2F773
:100BE00080FF02C02E9A01C02E988F9A215030406B
:100BF0008FEF2F3F380761F75F9A08951F93182FE3
:100C0000579A249A259A269A879A2C985F9A2C9A12
:100C100080E061E2D2DF106880E0612FCEDF80E00B
:100C200064E0CBDF80E063E1C8DF80E06CE0C5DF3B
:100C300080E060E2C2DF80E06CE0BFDF80E060E483
:100C4000BCDF80E060E8B9DF1F9108951F93182F83
:100C5000606480E0B2DF106880E0612FAEDF1F913A
:100C600008958F929F92AF92BF92CF92DF92EF92B0
:100C7000FF920F931F934C01A42E122F70E080E07F
:100C800090E034DEF4016083718382839383BB241C
:100C9000CC24DD24C601B50129DEF401648375830B
:100CA0008683978310870187F486E3861F910F91CF
:100CB000FF90EF90DF90CF90BF90AF909F908F907C
:100CC00008952F923F924F925F927F928F929F92C0
:100CD000AF92BF92CF92DF92EF92FF920F931F934A
:100CE000DF93CF9300D000D0CDB7DEB72C01DC016D
:100CF0001A968C91882309F496C0222433241A82F0
:100D0000198287C0E981FA81BF01882777FD809524
:100D1000982FEEDDD20114962D913D914D915C916D
:100D200017977CDD5B016C0120E030E040E050E093
:100D3000D9DD87FD68C0C601B50120E030E040E4A0
:100D400052E486DE87FF6FC01C821B8245C0D20141
:100D50001B96ED91FC911C97E20DF31D7080EB81C9
:100D6000FC81BF01882777FD8095982FC1DDD201D6
:100D70002D913D914D915C9151DD7B018C0120E0E5
:100D800030E040E050E064DE8823CCF0C801B701D9
:100D900020E030E048EA52E4A5DD882384F478209E
:100DA00071F0C801B7018EDA7B018C01C601B50173
:100DB00089DA9B01AC018E2D622F41E055DEEB817B
:100DC000FC813196FC83EB83CF0187709070892B77
:100DD00039F40894211C311C90E8892E912C02C012
:100DE00095948794D20118968C9190E0EB81FC81C8
:100DF000E817F9070CF4ABCF87709070892B19F0C6
:100E00000894211C311C29813A812F5F3F4F3A837E
:100E10002983D20119968C9190E0E981FA81E81733
:100E2000F9070CF46FCF0F900F900F900F90CF91A8
:100E3000DF911F910F91FF90EF90DF90CF90BF90C7
:100E4000AF909F908F907F905F904F903F902F90AA
:100E5000089597FB092E07260AD077FD04D00CD001
:100E600006D000201AF4709561957F4F0895F6F72B
:100E7000909581959F4F0895AA1BBB1B51E107C018
:100E8000AA1FBB1FA617B70710F0A61BB70B881F1A
:100E9000991F5A95A9F780959095BC01CD010895A9
:100EA0002F923F924F925F926F927F928F929F927A
:100EB000AF92BF92CF92DF92EF92FF920F931F9368
:100EC000CF93DF93CDB7DEB7CA1BDB0B0FB6F89419
:100ED000DEBF0FBECDBF09942A88398848885F8459
:100EE0006E847D848C849B84AA84B984C884DF80CA
:100EF000EE80FD800C811B81AA81B981CE0FD11DAE
:100F00000FB6F894DEBF0FBECDBFED010895A0E08F
:100F1000B0E0ECE8F7E0CCCFEC01A880B980CA8063
:100F2000DB80A114B104C104D10441F484E2A82EF1
:100F300089EDB82E8BE5C82E87E0D82EC601B50105
:100F40002DE133EF41E050E058D027EA31E440E0B2
:100F500050E034D07B018C01C601B5012DE133EFA7
:100F600041E050E04AD0CA01B9012CEE34EF4FEF16
:100F70005FEF24D06E0D7F1D801F911F97FF04C06F
:100F80006150704080409048688379838A839B8356
:100F90009B013F77C901CDB7DEB7EAE0A5CFB7CF58
:100FA00082E891E0B4CFA0E0B0E08093820190931A
:100FB0008301A0938401B09385010895629FD001BD
:100FC000739FF001829FE00DF11D649FE00DF11D04
:100FD000929FF00D839FF00D749FF00D659FF00DB3
:100FE0009927729FB00DE11DF91F639FB00DE11DA0
:100FF000F91FBD01CF011124089597FB092E052685
:101000000ED057FD04D014D00AD0001C38F45095EF
:101010004095309521953F4F4F4F5F4F0895F6F71C
:1010200090958095709561957F4F8F4F9F4F089554
:10103000A1E21A2EAA1BBB1BFD010DC0AA1FBB1FDC
:10104000EE1FFF1FA217B307E407F50720F0A21B4E
:10105000B30BE40BF50B661F771F881F991F1A94BB
:1010600069F760957095809590959B01AC01BD01E5
:08107000CF010895F894FFCFB1
:1010780047616D6520537461727420496E3A20008F
:101088005A6F6D626965446173682076312E30004D
:101098004C6163686C616E20526F62696E736F6E2B
:1010A800006E3838343534303900540030000800C8
:1010B800080007E01818200420044C324C32400283
:1010C800418241824182200427E410081008181840
:1010D80007E007E00000000000000C300C300000C2
:1010E8000180418241822004242413C81008181862
:0610F80007E0010000000A
:00000001FF
