:1000000045C1000060C100005EC100005CC100008D
:100010005AC1000058C1000056C1000054C1000080
:1000200052C1000081C400004EC100004CC100005C
:100030004AC1000048C1000046C1000044C10000A0
:1000400042C1000040C100003EC100003CC10000B0
:100050003AC1000038C1000036C100000C94010C08
:1000600032C1000030C100002EC100002CC10000D0
:100070002AC1000028C1000026C1000024C10000E0
:1000800022C1000020C100001EC100001CC10000F0
:100090001AC1000018C1000016C1000014C1000000
:1000A00012C1000010C100000EC1000000000000DD
:1000B0000000005F00000007000700147F147F1499
:1000C000242A7F2A122313086462364955225000DD
:1000D00005030000001C2241000041221C001408FE
:1000E0003E081408083E08080050300000080808C0
:1000F0000808006060000020100804023E514945D5
:100100003E00427F400042615149462141454B310A
:100110001814127F1027454545393C4A494930019A
:10012000710905033649494936064949291E0036F1
:100130003600000056360000081422410014141442
:100140001414004122140802015109063249794170
:100150003E7E1111117E7F494949363E414141227F
:100160007F4141221C7F494949417F090909013EDC
:100170004149497A7F0808087F00417F41002040BB
:10018000413F017F081422417F404040407F020CE4
:10019000027F7F0408107F3E4141413E7F090909EB
:1001A000063E4151215E7F09192946464949493198
:1001B00001017F01013F4040403F1F2040201F3F81
:1001C0004038403F63140814630708700807615102
:1001D000494543007F41410002040810200041418D
:1001E0007F0004020102044040404040000102043C
:1001F0000020545454787F484444383844444420C0
:10020000384444487F3854545418087E0901020C7D
:100210005252523E7F0804047800447D4000204042
:10022000443D007F1028440000417F40007C0418BA
:1002300004787C0804047838444444387C1414144A
:1002400008081414187C7C080404084854545420EA
:10025000043F4440203C4040207C1C2040201C3C6B
:100260004030403C44281028440C5050503C4464DA
:10027000544C44000836410000007F000000413625
:1002800008001008081008784641467811241FBE5F
:10029000CFEFDAE0DEBFCDBF11E0A0E0B1E0E0EEED
:1002A000FDE202C005900D92A03BB107D9F713E023
:1002B000A0EBB1E001C01D92AA3EB107E1F70E9498
:1002C000840E0C94EE169CCEA0E2B0E0EAE6F1E0DB
:1002D0000C94041669837A838B839C832D833E83DD
:1002E0004F835887CE010196BE01675F7F4F61D271
:1002F000CE010596BE016F5E7F4F5BD2998592302D
:1003000088F089898230C8F0943019F4823051F431
:1003100004C0843029F4923081F483EA91E0C6C0AD
:10032000923049F420E09A858A89981321E02A873F
:10033000CE010996BBC0823049F420E09A858A89B3
:10034000981321E02A8BCE014196B0C02D843E84C3
:100350004F8458886D887E888F88988CEE24FF247F
:100360008701AA24BB24650140E050E060E070E012
:10037000E0E0F0E0C10181709070892BE9F0E60CBB
:10038000F71C081D191D9A01AB012A0D3B1D4C1DC0
:100390005D1D80E090E0A0E0B0E0E614F704080501
:1003A000190520F481E090E0A0E0B0E0BA01A901D5
:1003B000480F591F6A1F7B1FAA0CBB1CCC1CDD1CDD
:1003C00097FE08C081E090E0A0E0B0E0A82AB92A3A
:1003D000CA2ADB2A3196E032F10549F0660C771C17
:1003E000881C991C5694479437942794C3CFFA8558
:1003F000EA892B893C898B859C85280F391F2E5FC4
:100400003F4F17C0CA0181709070892B61F016951B
:100410000795F794E79480E090E0A0E0B0E8E82A40
:10042000F92A0A2B1B2B76956795579547952F5FD1
:100430003F4F77FDE7CF0CC0440F551F661F771F56
:1004400017FD4160EE0CFF1C001F111F21503040B2
:10045000403090E0590790E0690790E4790760F335
:100460002B8F3C8FDB01CA018F779070A070B0702A
:1004700080349105A105B10561F447FD0AC0E1147E
:10048000F1040105110529F0405C5F4F6F4F7F4F6C
:1004900040781A8EFE1711F081E08A8F4D8F5E8FA3
:1004A0006F8F78A383E0898FCE014996ADD0A09657
:1004B000E2E10C942016A8E1B0E0E1E6F2E00C9451
:1004C0000C1669837A838B839C832D833E834F83B1
:1004D0005887B9E0EB2EF12CEC0EFD1ECE010196F3
:1004E000B70167D18E010F5E1F4FCE010596B8018F
:1004F00060D12985223008F47EC03989323010F469
:10050000B8017CC08A859A8989278A87243011F0AE
:10051000223031F4231709F06EC063EA71E06EC037
:10052000343039F41D861E861F86188A1C861B8669
:1005300004C0323021F484E08987B7015FC02B8585
:100540003C858B899C89281B390B3C872B87ED8444
:10055000FE840F851889AD88BE88CF88D88CEA14B0
:10056000FB040C051D0540F4EE0CFF1C001F111FC1
:10057000215030403C872B8720E030E040E050E0C5
:1005800080E090E0A0E0B0E460E070E0EA14FB04FA
:100590000C051D0540F0282B392B4A2B5B2BEA1844
:1005A000FB080C091D09B695A79597958795EE0C44
:1005B000FF1C001F111F6F5F7F4F6F31710531F7F7
:1005C000DA01C9018F779070A070B0708034910506
:1005D000A105B10561F427FD0AC0E114F10401058C
:1005E000110529F0205C3F4F4F4F5F4F20782D873A
:1005F0003E874F87588BBE01675F7F4FCB0104D08A
:100600006896EAE00C942816DF92EF92FF920F931F
:100610001F93FC01E480F58006811781D1808081E1
:10062000823048F480E090E0A0E1B0E0E82AF92AC6
:100630000A2B1B2BA5C0843009F49FC0823021F403
:10064000EE24FF24870105C0E114F1040105110522
:1006500019F4E0E0F0E096C0628173819FEF6238A8
:1006600079070CF05BC022E83FEF261B370B2A31DD
:1006700031052CF020E030E040E050E02AC0B80125
:10068000A701022E04C076956795579547950A9461
:10069000D2F781E090E0A0E0B0E004C0880F991F9D
:1006A000AA1FBB1F2A95D2F70197A109B1098E2174
:1006B0009F21A023B1230097A105B10521F081E07E
:1006C00090E0A0E0B0E09A01AB01282B392B4A2B37
:1006D0005B2BDA01C9018F779070A070B070803405
:1006E0009105A105B10539F427FF09C0205C3F4FF2
:1006F0004F4F5F4F04C0215C3F4F4F4F5F4FE0E0D3
:10070000F0E02030A0E03A07A0E04A07A0E45A0752
:1007100010F0E1E0F0E079018A0127C0603871054E
:1007200064F5FB01E158FF4FD801C7018F77907046
:10073000A070B07080349105A105B10539F4E7FED1
:100740000DC080E490E0A0E0B0E004C08FE390E052
:10075000A0E0B0E0E80EF91E0A1F1B1F17FF05C03E
:1007600016950795F794E794319687E016950795C7
:10077000F794E7948A95D1F705C0EE24FF2487010A
:10078000EFEFF0E06E2F679566276795902F9F77C4
:10079000D794DD24D7948E2F8695492F462B582F3A
:1007A0005D29B701CA011F910F91FF90EF90DF9073
:1007B0000895FC01DB01408151812281622F6F7716
:1007C00070E0221F2227221F9381892F880F822BFE
:1007D000282F30E0991F9927991F11969C93119704
:1007E00021153105A9F5411551056105710511F472
:1007F00082E037C082E89FEF13969C938E93129706
:100800009A01AB0167E0220F331F441F551F6A9501
:10081000D1F783E08C930DC0220F331F441F551F67
:1008200012968D919C911397019713969C938E939A
:100830001297203080E0380780E0480780E45807AE
:1008400058F314962D933D934D935C931797089509
:100850002F3F310579F4411551056105710519F4F2
:1008600084E08C93089564FF03C081E08C9312C0F0
:100870001C9210C02F57304013963C932E93129722
:1008800083E08C9387E0440F551F661F771F8A957E
:10089000D1F7706414964D935D936D937C93179785
:1008A00008951092B3011092B2011092B10110920A
:1008B000B001199B11C084EF91E020E931E0F9010A
:1008C0003197F1F70197D9F7199B06C081E090E0C5
:1008D0009093B3018093B201189B11C084EF91E013
:1008E00020E931E0F9013197F1F70197D9F7189B29
:1008F00006C081E090E09093B1018093B00108952B
:10090000EBE6F0E08081816080838081826080837B
:10091000E8E6F0E0808181608083E9E6F0E08081B4
:1009200081608083789408951F920F920FB60F9282
:1009300011248F939F931092B3011092B2011092E1
:10094000B1011092B001199B06C081E090E0909334
:10095000B3018093B201189B06C081E090E09093B0
:10096000B1018093B0019F918F910F900FBE0F90B6
:100970001F90189584B58D7F84BD85B5877F85BD13
:1009800085B5856085BD85B58D7F85BDEEE6F0E0DA
:1009900080818160808378940895CF92DF92EF9276
:1009A000FF920F931F9380916C0190916D0162E013
:1009B00070E00E94DD157B0185E090E0E80EF91EF5
:1009C000C090DA01D090DB018091680190916901BB
:1009D00062E070E00E94DD15882777FD8095982FF2
:1009E0000E944511F60160837183828393830027FF
:1009F000F7FC0095102FC801B7010E944511F601C0
:100A000064837583868397831F910F91FF90EF9086
:100A1000DF90CF9008950F931F938C01DC016D91AF
:100A20007D918D919C910E941211FB01D801149629
:100A30004D915D916D917C9117978091D801909126
:100A4000D9018E179F0744F520918A018091D0012A
:100A50009091D101821B91098E179F07ECF0CB0179
:100A6000BA010E9412118091DE019091DF01861778
:100A7000970794F430E020918B018091D6019091FA
:100A8000D701821B9109861797070CF431E081E0AA
:100A90003827232F30E002C020E030E0C9011F9149
:100AA0000F9108956F927F928F929F92AF92BF9213
:100AB000CF92DF92EF92FF920F931F93CF93DF932A
:100AC0000091DA011091DB01C801A5DF892BE9F063
:100AD0006090DE017090DF0182E090E0680E791E88
:100AE000A090D601B090D701ECEFFFEFAE0EBF1E85
:100AF0008090D8019090D901880E991EC090D001A5
:100B0000D090D101CE0EDF1E14C0A0906C01B09029
:100B10006D010894A108B108C0906801D0906901E6
:100B20000894C108D1083AE0632E712C22E0822E8D
:100B3000912C8091740190917501892B21F091E0A5
:100B4000E92EF12C39C0C091CC01D091CD0187E9BB
:100B500091E09C878B878091C8019091C901892B76
:100B6000B9F0F80180819181A281B3818883998352
:100B7000AA83BB83648175818681978120E030E000
:100B800040E850E40E94AA106C837D838E839F838B
:100B9000B501882777FD8095982F0E9445119B010C
:100BA000AC01F80164817581868197810E94F511FD
:100BB00018162CF4EE24FF24C0E0D0E004C0EE248C
:100BC000FF24C1E0D0E080917401909175010197FC
:100BD00009F040C0C091CC01D091CD0181E991E0F4
:100BE0009C878B878091C8019091C901892BC1F0A6
:100BF000F801608171818281938120E030E040E8DA
:100C000050E40E94AA10688379838A839B83F80149
:100C100084819581A681B7818C839D83AE83BF83B8
:100C2000B601882777FD8095982F0E9445119B017A
:100C3000AC01F80160817181828193810E94F5117C
:100C400018161CF4EE24FF2403C081E0E82EF12CDA
:100C5000C0E0D0E08091740190917501029709F095
:100C600040C0C091CC01D091CD0184E991E09C8736
:100C70008B878091C8019091C901892BB9F0F80147
:100C800080819181A281B38188839983AA83BB8368
:100C9000648175818681978120E030E040E850E4EE
:100CA0000E94A9106C837D838E839F83B301882764
:100CB00077FD8095982F0E9445119B01AC01F801AA
:100CC00064817581868197810E940E1188232CF49E
:100CD000EE24FF24C0E0D0E004C0EE24FF24CFEFD8
:100CE000DFEF8091740190917501039709F040C086
:100CF000C091CC01D091CD018EE891E09C878B878B
:100D00008091C8019091C901892BC1F0F8016081DF
:100D100071818281938120E030E040E850E40E94BC
:100D2000A910688379838A839B83F80184819581E4
:100D3000A681B7818C839D83AE83BF83B40188274E
:100D400077FD8095982F0E9445119B01AC01F80119
:100D500060817181828193810E940E1188231CF42D
:100D6000EE24FF2403C0EE24EA94FE2CC0E0D0E081
:100D7000C80151DE892B09F481C0F80160817181BD
:100D8000828193810E941211F8012481358146816C
:100D900057818091B0019091B101892B99F0809198
:100DA000B2019091B301892B69F0C616D70654F4AD
:100DB00084E090E0C80ED91EB601882777FD8095A3
:100DC000982F18C08091B0019091B101892BD1F07A
:100DD0008091B2019091B301892BA1F0681579053A
:100DE0008CF48CEF9FEF880E991EB401882777FD55
:100DF0008095982F0E944511F8016083718382834A
:100E000093833CC0CA01B9010E9412118091B001C4
:100E10009091B101892B99F08091B2019091B30129
:100E2000892B69F06615770554F48CEF9FEF680EF7
:100E3000791EB301882777FD8095982F18C080917F
:100E4000B0019091B101892BC9F08091B2019091CC
:100E5000B301892B99F0A616B70684F484E090E0DC
:100E6000A80EB91EB501882777FD8095982F0E949E
:100E70004511F8016483758386839783B7018827BA
:100E800077FD8095982F0E9445119B01AC01F801D8
:100E900060817181828193810E94AA10F801608330
:100EA000718382839383BE01882777FD8095982F75
:100EB0000E9445119B01AC01F80164817581868116
:100EC00097810E94AA10F8016483758386839783B3
:100ED000DF91CF911F910F91FF90EF90DF90CF9016
:100EE000BF90AF909F908F907F906F9008952091CA
:100EF000DE018091D801622F4091D0010E9434120E
:100F00002091D6018091D801622F4091D0010E949A
:100F100034124091D801842F6091DE012091D601D6
:100F20000E9434124091D001842F6091DE01209103
:100F3000D6010C9434120F931F9380E068E0409127
:100F40006A0128E00E94341280E068E040E02091CD
:100F50006E010E94341240916A01842F68E0209152
:100F60006E010E94341220916E0180E0622F409148
:100F70006A010E94341280E091E060E040E00E944B
:100F80006B1480918C01805D6BE040E00E941B142B
:100F900084E091E065E140E00E946B140091C6019D
:100FA0001091C701C8016AE070E00E94DD15805D04
:100FB00065E240E00E941B14C8016AE070E00E94F4
:100FC000DD15862F805D6FE140E00E941B1480914B
:100FD000740190917501805D6EE440E00E941B14E5
:100FE0008091DA019091DB0116DD805D66E440E0DE
:100FF0000E941B141F910F9108951F93CF93DF93AD
:1010000013E3C0E9D1E00E94F91188E091E062E0C9
:1010100046E10E946B14812F6BE446E10E941B1491
:101020000E94801480E197E2FE013197F1F7019769
:10103000D9F71150103339F7DF91CF911F910895EF
:101040005E9A84B18C6084B920E030E002C02F5FEA
:101050003F4F8091B2019091B301892B31F480917F
:10106000B0019091B101892B91F3C9010E948716BB
:101070001BB80895EF92FF920F931F938C017B0191
:101080000E948416E01AF10A0894E11CF11CB701D1
:101090000E94DD159C01200F311FC9011F910F9186
:1010A000FF90EF9008958F929F92AF92BF92CF9250
:1010B000DF92EF92FF920F931F93609168017091FE
:1010C000690182E090E0D6DF7C0160916C01709153
:1010D0006D0189E090E0CEDF5C018090D2019090BC
:1010E000D3010027F7FC0095102FC801B7010E941B
:1010F0004511F4016083718382839383CC24B7FC10
:10110000C094DC2CC601B5010E944511F401648332
:101110007583868397831F910F91FF90EF90DF90E7
:10112000CF90BF90AF909F908F9008958F929F9295
:10113000AF92BF92CF92DF92EF92FF920F931F93E5
:10114000609168017091690182E090E093DF7C0119
:1011500060916C0170916D0189E090E08BDF5C0122
:101160008090CC019090CD010027F7FC0095102FC6
:10117000C801B7010E944511F40160837183828325
:101180009383CC24B7FCC094DC2CC601B5010E942B
:101190004511F40164837583868397831F910F91B2
:1011A000FF90EF90DF90CF90BF90AF909F908F9087
:1011B0000895EF92FF920F931F9386E090E06CE00A
:1011C00070E058DF8C0186E090E06CE070E052DF68
:1011D0007C0160916A0170916B016451704084E1FF
:1011E00090E048DF9093D9018093D801800F911F40
:1011F0009093D1018093D00160916E0170916F0145
:10120000645170408DE190E035DF9093DF01809371
:10121000DE018E0D9F1D9093D7018093D60167DE6E
:101220001F910F91FF90EF9008952F923F924F9250
:101230005F926F927F928F929F92AF92BF92CF9266
:10124000DF92EF92FF920F931F93DF93CF9300D023
:1012500000D000D0CDB7DEB78091680190916901D0
:1012600062E070E00E94DD156D837E8380916C01E9
:1012700090916D0162E070E00E94DD151B0185E038
:1012800090E0280E391EA0EEB1E0BA83A9832D01AB
:1012900066247724ED81FE813A97FC83EB832FC08F
:1012A00081E090E06B817C81E5DEA82E60916C018D
:1012B00070916D016150704089E090E0DBDEE82EB6
:1012C000D2018D909D902D01BB24CC24DD24C6013C
:1012D000B501D9D7F4016083718382839383FF249E
:1012E00000E010E0C801B701CED7D40114966D9389
:1012F0007D938D939C9317970894611C711C80912A
:1013000088019091890164E070E00E94DD15661605
:10131000770634F2662477244D805E80EAE0F0E0C0
:101320004E0E5F1E3CC06091680170916901C20160
:10133000A1DEA82E60916C0170916D01615070402A
:1013400089E090E097DEE82E8091880190918901F4
:1013500064E070E00E94DD15FB01E60DF71DEE0F65
:10136000FF1FE052FE4F80809180BB24CC24DD24FF
:10137000C601B50188D7D4016D937D938D939C935D
:101380001397FF2400E010E0C801B7017CD7F401F7
:1013900064837583868397830894611C711C809194
:1013A00088019091890164E070E00E94DD15661665
:1013B00077060CF4B8CF44245524E6EF6E2EEFEFF9
:1013C0007E2E620C731C38C06091680170916901B7
:1013D00081E090E04FDEE82E89E090E0B3014ADE44
:1013E000A82E809188019091890162E070E00E94AE
:1013F000DD15FB01E40DF51DEE0FFF1FE052FE4F62
:1014000080809180FF2400E010E0C801B7013BD745
:10141000D4016D937D938D939C931397BB24CC241F
:10142000DD24C601B5012FD7F4016483758386835B
:1014300097830894411C511C8091880190918901E7
:1014400064E070E00E94DD15461657060CF4BCCF30
:10145000442455246AE0662E712C620C731C3FC034
:10146000609168017091690181E090E003DEE82EEF
:1014700060916C0170916D01C301FCDDA82E20917B
:10148000880130918901C901880F991F820F931F2C
:1014900064E070E00E94DD15FB01E40DF51DEE0F28
:1014A000FF1FE052FE4F80809180FF2400E010E09B
:1014B000C801B701E8D6D4016D937D938D939C93B9
:1014C0001397BB24CC24DD24C601B501DCD6F4017E
:1014D00064837583868397830894411C511C809193
:1014E00088019091890164E070E00E94DD15461644
:1014F00057060CF4B5CF06E711E066247724EE24F6
:10150000E3941DC080E090E063E070E0B3DDD801BB
:101510008D939C938091C4019091C501892B29F4EE
:10152000A981BA81ED91FC91E2860894611C711C3D
:101530000E5F1F4FE981FA813296FA83E983809129
:1015400088019091890168167906E4F226960FB613
:10155000F894DEBF0FBECDBFCF91DF911F910F91E9
:10156000FF90EF90DF90CF90BF90AF909F908F90C3
:101570007F906F905F904F903F902F9008952F92A3
:101580003F924F925F926F927F928F929F92AF9213
:10159000BF92CF92DF92EF92FF920F931F93DF9350
:1015A000CF9300D000D0CDB7DEB720EE31E03A8344
:1015B000298356E7652E51E0752E44245524CC240A
:1015C000DD2422243324F8C081E090E064E670E05A
:1015D00051DD863091056CF4F30180819181019792
:1015E0009183808397FF12C023E030E03183208312
:1015F0000DC08036910554F0F301808191810196F0
:1016000064E070E00E94DD1591838083E981FA81B6
:10161000A080B180C501FFD9892BF1F0E090DE01F7
:10162000F090DF0122E030E0E20EF31E2091D601BF
:101630003091D701245030408090D8019090D9014A
:1016400082E090E0880E991EE091D001F091D101E6
:101650003497FC83EB8313C020916C0130916D01B2
:1016600021503040809168019091690101979C83DD
:101670008B834AE0E42EF12C92E0892E912CF30129
:101680000081118101151105B1F4B901882777FD99
:101690008095982FFAD59B01AC01F5016481758185
:1016A00086819781A2D618160CF44FC04424552485
:1016B00081E0C82ED12C01301105A1F42B813C8191
:1016C000B901882777FD8095982FDFD59B01AC0164
:1016D000F501608171818281938187D618160CF49F
:1016E00074C017C002301105C9F4B701882777FD0F
:1016F0008095982FCAD59B01AC01F5016481758155
:10170000868197818BD587FD20C0CC24CA94DC2CA0
:101710005EC0B1E04B2E512CCC24DD2403301105EA
:10172000C1F4B401882777FD8095982FAED59B0131
:10173000AC01F50160817181828193816FD587FD54
:1017400004C044244A94542C02C044245524CC247C
:10175000DD24B201882777FD8095982F96D59B01CF
:10176000AC01F5016081718182819381F3D4F5012F
:101770006083718382839383E981FA81019111915E
:10178000FA83E983B601882777FD8095982F7DD568
:101790009B01AC01F8016481758186819781DAD45F
:1017A000F80164837583868397830894211C311C18
:1017B00022E030E0620E731E8091880190918901D1
:1017C000281639060CF400CF05C0CC24DD244424AF
:1017D0005524BFCF0F900F900F900F90CF91DF91B6
:1017E0001F910F91FF90EF90DF90CF90BF90AF903F
:1017F0009F908F907F906F905F904F903F902F9031
:1018000008951F920F920FB60F9211242F933F93BA
:101810004F935F936F937F938F939F93AF93BF93F8
:10182000EF93FF93A89A8091BC019091BD0101961E
:101830009093BD018093BC018091BC019091BD014A
:1018400005970CF43BC08091C2019091C301892B94
:10185000A9F11092BD011092BC018091BE0190913E
:10186000BF0101969093BF018093BE018091BE019C
:101870009091BF010A9774F08091C0019091C101CD
:1018800001969093C1018093C0011092BF01109204
:10189000BE0175DE8091C0019091C10106976CF088
:1018A0001092C1011092C0018091C6019091C701B0
:1018B00001969093C7018093C601F4D8FF91EF91F0
:1018C000BF91AF919F918F917F916F915F914F9158
:1018D0003F912F910F900FBE0F901F90189584B1DC
:1018E0008C6084B9569A8BB18BB9289AE1E6F0E006
:1018F00080E8808310828FE30E94B2147AD500D8EA
:1019000039D877D588E191E064E040E0E4D788E217
:1019100091E062E049E0DFD789E391E066E14CE1E4
:10192000DAD7EED78DDB0E94510467DB83E090E0CD
:1019300090938D0180938C011092C7011092C60183
:10194000809188019091890190938701809386010D
:1019500008950F931F93CF93DF93C0916801D091A7
:10196000690100916C0110916D0188E893E120E913
:1019700031E0F9013197F1F70197D9F73AD5CE0166
:1019800062E070E00E94DD15262F2151C80162E05F
:1019900070E00E94DD15462F82E491E0622F9BD714
:1019A000AFD788E99AE320E931E0F9013197F1F7FF
:1019B0000197D9F794DF0E94CD0437DCFADBB6DB60
:1019C0001092C9011092C8016EDB1092CB011092E7
:1019D000CA01DF91CF911F910F9108952F923F92ED
:1019E0004F925F926F927F928F929F92AF92BF922F
:1019F000CF92DF92EF92FF920F931F93DF93CF93DB
:101A0000CDB7DEB728970FB6F894DEBF0FBECDBFB7
:101A1000809168019091690162E070E00E94DD159B
:101A2000562E80916C0190916D0162E070E00E94F1
:101A3000DD156A830091DA011091DB01D8016D9107
:101A40007D918D919C91F3D3462EF801648175812F
:101A500086819781ECD369830091CC011091CD01EF
:101A6000D8016D917D918D919C91DCD36B01F80132
:101A70006481758186819781D5D35B0170EEE72EF5
:101A800071E0F72E88249924242D30E03C832B83A9
:101A90003981232E332460E9662E61E0762E87EEAD
:101AA000580EE8C0D7010D90BC91A02DB887AF8328
:101AB00014966D917D918D919C911797B8D3162FA7
:101AC000EF81F8856081718182819381B0D370E06C
:101AD000E02FF0E09B012E1B3F0B3E832D832C1546
:101AE0003D05C4F5CB018E0F9F1FC816D90694F58E
:101AF000212F30E080918B01482F50E0C901841BD9
:101B0000950B8A159B0534F5240F351FA216B306D5
:101B10000CF58091C8019091C901892BD9F0AF8152
:101B2000B8851A968C911A978130A1F41A961C9256
:101B30008091C6019091C70101969093C70180934F
:101B4000C60180918601909187010197909387014A
:101B5000809386012B813C818D819E818217930722
:101B60000CF081C06E0F7F1F261737070CF07BC06B
:101B7000612F70E080918B01282F30E0CB01821B18
:101B8000930B821593050CF06EC0620F731F26161F
:101B900037060CF068C0D701ED91FC918285813049
:101BA00009F061C01092C3011092C20180918C01B2
:101BB00090918D011816190664F588EB9BE0F301EE
:101BC0003197F1F70197D9F714D48BE491E060E0F5
:101BD0004A8181D695D688E99AE3F3013197F1F7E6
:101BE0000197D9F780918C0190918D010197909385
:101BF0008D0180938C010E94CD04E1E0F0E0F09330
:101C0000C501E093C40111DB1092C5011092C4011B
:101C10001AC088EB9BE0F3013197F1F70197D9F7F0
:101C2000E8D38DE591E0652D4A8155D669D688E9DE
:101C30009AE3F3013197F1F70197D9F750DE0E944B
:101C4000CD04F3DAB6DA72DA1092C9011092C80143
:101C50002ADA1092CB011092CA0121E030E03093D1
:101C6000C3012093C2010894811C911C82E090E082
:101C7000E80EF91E809188019091890100918A01F6
:101C8000881699060CF40ECF642D70E0202F30E0FA
:101C9000C601821B930B86179707ECF42C0D3D1D94
:101CA00062177307C4F49981692F70E080918B01EA
:101CB000282F30E0C501821B930B861797075CF431
:101CC0002A0D3B1D6217730734F481E090E0909376
:101CD000C9018093C80128960FB6F894DEBF0FBEE5
:101CE000CDBFCF91DF911F910F91FF90EF90DF90CB
:101CF000CF90BF90AF909F908F907F906F905F90AC
:101D00004F903F902F9008952F923F924F925F9265
:101D10006F927F928F929F92AF92BF92CF92DF92FB
:101D2000EF92FF920F931F93DF93CF93CDB7DEB760
:101D3000C557D0400FB6F894DEBF0FBECDBF2DB74C
:101D40003EB7E5963FAF2EAFE597C9DD52D3D8D564
:101D5000DE011196E0EAF1E083E001900D928150FE
:101D6000E1F7DE011496EDE9F1E083E001900D92D8
:101D70008150E1F7DE011796EAE9F1E083E0019096
:101D80000D928150E1F720918A0180916801909134
:101D90006901821B910990936901809368014091C8
:101DA0008B0120916C0130916D01241B310930931E
:101DB0006D0120936C0162E070E0FFD6E6966FAF94
:101DC000E697C90162E070E0F8D64B0145E050E0CB
:101DD000840E951E209188013091890185E190E063
:101DE000DC012A9FC0012B9F900D3A9F900D11247A
:101DF000EDB7FEB7E81BF90B0FB6F894FEBF0FBEA8
:101E0000EDBF6DB67EB60894611C711CE6961FADE1
:101E1000E697E0EEAE2EE1E0BE2ECC24DD2475E1A7
:101E2000272E312C64E0462E512C4C0E5D1E19C01D
:101E3000C29CC001C39C900DD29C900D1124860DB4
:101E4000971DD5018D939D935D01612F482D2091A4
:101E50008A0100918B017201B8D50894C11CD11C74
:101E60001D5F8091880190918901C816D90604F3FD
:101E7000CE010A969093CD018093CC019E01215E04
:101E80003F4F3093D5012093D40166EF46EF209168
:101E90008A0100918B015EE8E52E51E0F52E95D583
:101EA0008091D4019091D50166EF46EF20918A018F
:101EB00000918B0134E9E32E31E0F32E86D5CE017B
:101EC000C4969093D3018093D2019E01275B3F4F2C
:101ED0003093DD012093DC0127E0C22ED12CCC0E03
:101EE000DD1E66EF46EF20918A0100918B0176019D
:101EF0006CD58091DC019091DD0166EF46EF209179
:101F00008A0100918B0161D5CED810D98ED951D9D3
:101F1000CE01825A9F4F9093DB018093DA01E696BF
:101F20006FADE697482D20918A0100918B017E01CB
:101F30000894E11CF11C49D58091DA019091DB01F4
:101F400074D500EEE02E01E0F02E00E010E007C0B6
:101F5000F701819191917F0168D50F5F1F4F8091AB
:101F60008801909189010817190794F3C9D488EE64
:101F700093E020E931E0F9013197F1F70197D9F7C2
:101F800081E090E09093C3018093C20111E0C12EE3
:101F9000D12CB1E0AB2EB12C0F2EF0E06F2EF0E083
:101FA0007F2EF0E28F2EF1EC9F2EF02D0F2EF0E021
:101FB0002F2EF0E03F2EF0E04F2EF0E05F2EF02DC0
:101FC0009CC017D28091B2019091B301892B19F472
:101FD000A1E0CA2ED12C8091B0019091B101892B42
:101FE00019F4F1E0AF2EB12C8091B2019091B301C0
:101FF000892BD1F0C114D104B9F080917401909172
:10200000750101979093750180937401809174011B
:102010009091750197FF06C023E030E03093750181
:1020200020937401CC24DD248091B0019091B10102
:102030008A219B21892B71F0809174019091750107
:10204000019664E070E0B9D59093750180937401B6
:10205000AA24BB248091DA019091DB01E6D480911F
:10206000CC019091CD01E1D48091D2019091D30126
:10207000DCD48091C8019091C901E091D401F09124
:10208000D501892B69F080E090E0A4E3B2E480837D
:102090009183A283B383248235824682578208C00B
:1020A0006082718282829382648275828682978244
:1020B000CF01BBD4E0EEEE2EE1E0FE2E00E010E01A
:1020C00007C0D7018D919D917D01AFD40F5F1F4F48
:1020D00080918801909189010817190794F30E9453
:1020E00077070E949B070CD479DC80918601909140
:1020F0008701181619060CF02CDC8091C201909112
:10210000C301892B09F05DCF80E090E0E596EEAD4C
:10211000FFADE5970FB6F894FEBF0FBEEDBFCB58ED
:10212000DF4F0FB6F894DEBF0FBECDBFCF91DF916A
:102130001F910F91FF90EF90DF90CF90BF90AF90E5
:102140009F908F907F906F905F904F903F902F90D7
:1021500008955058BB27AA270ED00DC1FED030F0ED
:1021600003D120F031F49F3F11F41EF4F3C00EF4BC
:10217000E095E7FBE9C0E92F0FD180F3BA176207BA
:1021800073078407950718F071F49EF527C10EF4C4
:10219000E0950B2EBA2FA02D0B01B90190010C0177
:1021A000CA01A0011124FF27591B99F0593F50F48F
:1021B000503E68F11A16F040A22F232F342F4427E7
:1021C000585FF3CF469537952795A795F0405395DF
:1021D000C9F77EF41F16BA0B620B730B840BBAF0AF
:1021E0009150A1F0FF0FBB1F661F771F881FC2F71A
:1021F0000EC0BA0F621F731F841F48F4879577952E
:102200006795B795F7959E3F08F0B3CF9395880FE4
:1022100008F09927EE0F97958795089571D008F4E7
:1022200081E0089504D06894B111D9C00895BCD05C
:1022300088F09F5790F0B92F9927B751A0F0D1F0AF
:10224000660F771F881F991F1AF0BA95C9F712C039
:10225000B13081F0C3D0B1E00895C0C0672F782FAE
:102260008827B85F39F0B93FCCF3869577956795A5
:10227000B395D9F73EF490958095709561957F4F11
:102280008F4F9F4F0895E89409C097FB3EF49095B7
:102290008095709561957F4F8F4F9F4F9923A9F03F
:1022A000F92F96E9BB279395F695879577956795CE
:1022B000B795F111F8CFFAF4BB0F11F460FF1BC012
:1022C0006F5F7F4F8F4F9F4F16C0882311F096E9A5
:1022D00011C0772321F09EE8872F762F05C0662353
:1022E00071F096E8862F70E060E02AF09A95660F0C
:1022F000771F881FDAF7880F9695879597F90895C5
:10230000990F0008550FAA0BE0E8FEEF1616170606
:10231000E807F907C0F012161306E407F50798F06E
:10232000621B730B840B950B39F40A2661F0232B87
:10233000242B252B21F408950A2609F4A140A69503
:102340008FEF811D811D089597F99F6780E870E0E8
:1023500060E008959FEF80EC089500240A9416161B
:10236000170618060906089500240A941216130683
:10237000140605060895092E0394000C11F4882311
:1023800052F0BB0F40F4BF2B11F460FF04C06F5F2D
:102390007F4F8F4F9F4F089557FD9058440F551F03
:1023A00059F05F3F71F04795880F97FB991F61F0D7
:1023B0009F3F79F087950895121613061406551F4E
:1023C000F2CF4695F1DF08C0161617061806991FBA
:1023D000F1CF86957105610508940895E894BB27AF
:1023E00066277727CB0197F908958ADF08F48FEFE6
:1023F0000895E2EFF1E0119283E0EA3EF807D9F7A1
:102400000895843580F5603370F5262F269526953E
:102410002695677090E0442399F0E4E52E9FF00143
:102420001124E80FF91FEE50FE4F81E090E002C04A
:10243000880F991F6A95E2F72081282B2083089541
:10244000E4E52E9FF0011124E80FF91FEE50FE4F36
:1024500081E090E002C0880F991F6A95E2F78095AD
:1024600020812823208308952F923F924F925F92DC
:102470006F927F928F929F92AF92BF92CF92DF9294
:10248000EF92FF920F931F93DF93CF93CDB7DEB7F9
:1024900066970FB6F894DEBF0FBECDBFC82ED62EFE
:1024A00049872A87841759F4162F05C08C2D612F70
:1024B00041E0A7DF1F5F2A852117C0F7A3C13A8536
:1024C000631759F4182F05C0812F6D2D41E099DF56
:1024D0001F5F49854117C0F795C15A85652F70E088
:1024E00080E090E0D0DE7B018C018D2D90E09C8718
:1024F0008B87FC01BF01882777FD8095982FC5DE6B
:102500009B01AC01C801B70124DE1B012C01F98538
:102510006F2F70E080E090E0B6DE7B018C01AC2C88
:10252000BB24B501882777FD8095982FAEDE9B01EF
:10253000AC01C801B7010DDE3B014C01C201B10184
:10254000A40193010E945B027B018C012985C216C4
:1025500008F038C020E030E040E85FE346DF1816BE
:1025600024F471E0C72ED12C37C1C801B70120E097
:1025700030E040E85FE352DE181664F0C801B701AE
:1025800020E030E040E050E030DF18161CF4CC24AE
:10259000DD2450C0C801B70120E030E040E050E049
:1025A0003DDE18160CF411C1C801B70120E030E07F
:1025B00040E85FEB1ADF18160CF007C167E0C62E83
:1025C000D12C38C020E030E040E85FE30EDF181681
:1025D00024F455E0C52ED12CFFC0C801B70120E07E
:1025E00030E040E85FE31ADE18166CF0C801B7016E
:1025F00020E030E040E050E0F8DE181624F444E03B
:10260000C42ED12C17C0C801B70120E030E040E053
:1026100050E004DE18160CF4DCC0C801B70120E05D
:1026200030E040E85FEBE1DE18160CF0D2C033E09A
:10263000C32ED12C4B855C855A834983BE82AD82E3
:102640009985892F90E09C838B8317012801E1E015
:10265000F0E0F887EF83F7E0CF16D10428F423E009
:10266000C216D10440F404C037E0C316D10429F4E3
:1026700081E090E002C08FEF9FEFAD80BE800F2E13
:10268000F0E06F2EF0E07F2EF0E08F2EF0E09F2E36
:10269000F02DA201910150582D873E874F87588B0E
:1026A0009C01442737FD4095542F298B3A8B4B8B47
:1026B0005C8B7AC04F815885452B19F08A2D698132
:1026C00002C089816A2D41E09CDEC201B10120E097
:1026D00030E040E050E089DE88231CF0A201910147
:1026E00004C02D853E854F855889C401B30132DD74
:1026F0003B014C0120E030E040E05FE376DE18165D
:102700000CF044C069897A898B899C89BEDD9B0164
:10271000AC01C201B1010E9464017B018C011E8ADF
:102720001D8A20E030E040E050E05FDE181624F41F
:1027300081E090E09E8B8D8BCC24DD24C801B70115
:1027400020E030E040E050E069DD88231CF421E027
:10275000C22ED12CED89FE89EC19FD09319739F48F
:1027600029813A812F5F3F4F3A83298306C04981EF
:102770005A81415050405A834983C401B30120E03B
:1027800030E040E85FE3E5DC3B014C018B819C815C
:10279000ED81FE81E817F90720F40894A11CB11C13
:1027A00003C00894A108B1082B813C814D815E8152
:1027B0004217530720F42A153B0520F17BCF8B816C
:1027C0009C81A816B906F0F075CF96E0C92ED12CE1
:1027D00003C082E0C82ED12CC401B301A201910133
:1027E0000E945B021B012C01BA82A982EB85FC8549
:1027F000FE83ED833A85232F30E03C832B831886BC
:102800001F8229CF66960FB6F894DEBF0FBECDBFEC
:10281000CF91DF911F910F91FF90EF90DF90CF90BC
:10282000BF90AF909F908F907F906F905F904F90F0
:102830003F902F9008958F929F92AF92BF92CF9228
:10284000DF92EF92FF920F931F93CF93DF93D62ED9
:10285000C42E95E0899FC00111248C01045F1F4F95
:10286000F1E08F2E912CE1E1AE2EE0E0BE2EA80E1D
:10287000B91E1DC06C2D6C0FA4010C2E02C0440F9C
:10288000551F0A94E2F74E215F210C2E02C0559588
:1028900047950A94E2F78D2DB4DD2196C830D10515
:1028A00049F70F5F1F4FD3940A151B0539F0C0E09D
:1028B000D0E0F8018491E82EFF24DCCFDF91CF91A6
:1028C0001F910F91FF90EF90DF90CF90BF90AF904E
:1028D0009F908F9008950F931F93CF93DF93EC01F8
:1028E000162F042F05C0612F402FA5DF21961B5FF7
:1028F00088818823C1F7DF91CF911F910F910895AF
:10290000CF93DF9380E060E055D0C2EFD1E081E06B
:10291000699107D083E0CA3ED807C9F7DF91CF910C
:10292000089595B18295880F807E9F7D982B95B9EB
:102930005F9827E030E070E08F98CB01022E02C054
:10294000959587950A94E2F780FF02C02E9A01C000
:102950002E988F9A215030408FEF2F3F380761F724
:102960005F9A08951F93182F579A249A259A269AAA
:10297000879A2C985F9A2C9A80E061E2D2DF1068E7
:1029800080E0612FCEDF80E064E0CBDF80E063E1B8
:10299000C8DF80E06CE0C5DF80E060E2C2DF80E09D
:1029A0006CE0BFDF80E060E4BCDF80E060E8B9DFBE
:1029B0001F9108951F93182F606480E0B2DF1068A4
:1029C00080E0612FAEDF1F9108958F929F92AF92AA
:1029D000BF92CF92DF92EF92FF920F931F934C0121
:1029E000A42E122F70E080E090E04DDCF4016083B3
:1029F000718382839383BB24CC24DD24C601B5017B
:102A000042DCF40164837583868397831087018792
:102A1000F486E3861F910F91FF90EF90DF90CF90A7
:102A2000BF90AF909F908F9008952F923F924F92BA
:102A30005F927F928F929F92AF92BF92CF92DF92DE
:102A4000EF92FF920F931F93DF93CF9300D000D0AC
:102A5000CDB7DEB72C01DC011A968C91882309F4DE
:102A600096C0222433241A82198287C0E981FA8110
:102A7000BF01882777FD8095982F07DCD201149637
:102A80002D913D914D915C91179764DB5B016C0139
:102A900020E030E040E050E0C1DB87FD68C0C601C7
:102AA000B50120E030E040E452E49FDC87FF6FC0D6
:102AB0001C821B8245C0D2011B96ED91FC911C9794
:102AC000E20DF31D7080EB81FC81BF01882777FD4B
:102AD0008095982FDADBD2012D913D914D915C913B
:102AE00039DB7B018C0120E030E040E050E07DDC10
:102AF0008823CCF0C801B70120E030E048EA52E476
:102B00008DDB882384F4782071F0C801B7018FDB56
:102B10007B018C01C601B5018ADB9B01AC018E2DC6
:102B2000622F41E06EDCEB81FC813196FC83EB830C
:102B3000CF0187709070892B39F40894211C311CC7
:102B400090E8892E912C02C095948794D201189612
:102B50008C9190E0EB81FC81E817F9070CF4ABCF86
:102B600087709070892B19F00894211C311C2981E1
:102B70003A812F5F3F4F3A832983D20119968C9176
:102B800090E0E981FA81E817F9070CF46FCF0F9014
:102B90000F900F900F90CF91DF911F910F91FF90A9
:102BA000EF90DF90CF90BF90AF909F908F907F90ED
:102BB0005F904F903F902F90089597FB092E072626
:102BC0000AD077FD04D00CD006D000201AF47095FE
:102BD00061957F4F0895F6F7909581959F4F0895E1
:102BE000AA1BBB1B51E107C0AA1FBB1FA617B70733
:102BF00010F0A61BB70B881F991F5A95A9F780954F
:102C00009095BC01CD0108952F923F924F925F9213
:102C10006F927F928F929F92AF92BF92CF92DF92EC
:102C2000EF92FF920F931F93CF93DF93CDB7DEB751
:102C3000CA1BDB0B0FB6F894DEBF0FBECDBF0994E5
:102C40002A88398848885F846E847D848C849B843C
:102C5000AA84B984C884DF80EE80FD800C811B814A
:102C6000AA81B981CE0FD11D0FB6F894DEBF0FBE79
:102C7000CDBFED010895A0E0B0E0E0E4F6E1CCCFF7
:102C8000EC01A880B980CA80DB80A114B104C10422
:102C9000D10441F484E2A82E89EDB82E8BE5C82E2C
:102CA00087E0D82EC601B5012DE133EF41E050E0B9
:102CB00058D027EA31E440E050E034D07B018C0169
:102CC000C601B5012DE133EF41E050E04AD0CA0121
:102CD000B9012CEE34EF4FEF5FEF24D06E0D7F1D66
:102CE000801F911F97FF04C0615070408040904842
:102CF000688379838A839B839B013F77C901CDB722
:102D0000DEB7EAE0A5CFB7CF8BEA91E0B4CFA0E081
:102D1000B0E08093AB019093AC01A093AD01B09370
:102D2000AE010895629FD001739FF001829FE00D74
:102D3000F11D649FE00DF11D929FF00D839FF00D3A
:102D4000749FF00D659FF00D9927729FB00DE11DE6
:102D5000F91F639FB00DE11DF91FBD01CF011124C3
:102D6000089597FB092E05260ED057FD04D014D0E8
:102D70000AD0001C38F450954095309521953F4F6E
:102D80004F4F5F4F0895F6F7909580957095619538
:102D90007F4F8F4F9F4F0895A1E21A2EAA1BBB1B96
:102DA000FD010DC0AA1FBB1FEE1FFF1FA217B30717
:102DB000E407F50720F0A21BB30BE40BF50B661F2D
:102DC000771F881F991F1A9469F7609570958095F1
:102DD00090959B01AC01BD01CF010895F894FFCF00
:102DE0004C3A2000533A200047616D6520537461CE
:102DF000727420496E3A20005A6F6D6269654461B1
:102E000073682076312E30004C6163686C616E20EF
:102E1000526F62696E736F6E006E383834353430BD
:102E20003900596F752057494E2100546F756368FA
:102E300065642041205A6F6D626965210047616DAC
:102E400065204F5645522100530053002F002F009C
:102E50000800080001000100000000000000000060
:102E6000000000000000080008000303030020E049
:102E70002080E0804040E0E0404040A040E040E072
:102E8000A0E0A00000000000000000010000000021
:00000001FF
